{
	"contracts/Fácil/UsuariosBasicos/AdministrarUsuarios.sol": {
		"AdministrarUsuarios": {
			"abi": [
				{
					"inputs": [],
					"name": "borrar",
					"outputs": [],
					"stateMutability": "nonpayable",
					"type": "function"
				},
				{
					"inputs": [],
					"name": "consultar",
					"outputs": [
						{
							"components": [
								{
									"internalType": "uint256",
									"name": "edad",
									"type": "uint256"
								},
								{
									"internalType": "string",
									"name": "nombre",
									"type": "string"
								},
								{
									"internalType": "string",
									"name": "genero",
									"type": "string"
								}
							],
							"internalType": "struct AdministrarUsuarios.Usuario",
							"name": "",
							"type": "tuple"
						}
					],
					"stateMutability": "view",
					"type": "function"
				},
				{
					"inputs": [
						{
							"internalType": "uint256",
							"name": "edad",
							"type": "uint256"
						},
						{
							"internalType": "string",
							"name": "nombre",
							"type": "string"
						},
						{
							"internalType": "string",
							"name": "genero",
							"type": "string"
						}
					],
					"name": "registrar",
					"outputs": [],
					"stateMutability": "nonpayable",
					"type": "function"
				}
			],
			"devdoc": {
				"kind": "dev",
				"methods": {},
				"version": 1
			},
			"evm": {
				"assembly": "    /* \"contracts/F\\xc3\\xa1cil/UsuariosBasicos/AdministrarUsuarios.sol\":57:668  contract AdministrarUsuarios {... */\n  mstore(0x40, 0x80)\n  callvalue\n  dup1\n  iszero\n  tag_1\n  jumpi\n  0x00\n  dup1\n  revert\ntag_1:\n  pop\n  dataSize(sub_0)\n  dup1\n  dataOffset(sub_0)\n  0x00\n  codecopy\n  0x00\n  return\nstop\n\nsub_0: assembly {\n        /* \"contracts/F\\xc3\\xa1cil/UsuariosBasicos/AdministrarUsuarios.sol\":57:668  contract AdministrarUsuarios {... */\n      mstore(0x40, 0x80)\n      callvalue\n      dup1\n      iszero\n      tag_1\n      jumpi\n      0x00\n      dup1\n      revert\n    tag_1:\n      pop\n      jumpi(tag_2, lt(calldatasize, 0x04))\n      shr(0xe0, calldataload(0x00))\n      dup1\n      0x1660274e\n      eq\n      tag_3\n      jumpi\n      dup1\n      0x2b59d1fc\n      eq\n      tag_4\n      jumpi\n      dup1\n      0x70f05f97\n      eq\n      tag_5\n      jumpi\n    tag_2:\n      0x00\n      dup1\n      revert\n        /* \"contracts/F\\xc3\\xa1cil/UsuariosBasicos/AdministrarUsuarios.sol\":240:487  function registrar(uint edad, string memory nombre, string memory genero) public {... */\n    tag_3:\n      tag_6\n      0x04\n      dup1\n      calldatasize\n      sub\n      dup2\n      add\n      swap1\n      tag_7\n      swap2\n      swap1\n      tag_8\n      jump\t// in\n    tag_7:\n      tag_9\n      jump\t// in\n    tag_6:\n      stop\n        /* \"contracts/F\\xc3\\xa1cil/UsuariosBasicos/AdministrarUsuarios.sol\":597:666  function borrar() public {... */\n    tag_4:\n      tag_10\n      tag_11\n      jump\t// in\n    tag_10:\n      stop\n        /* \"contracts/F\\xc3\\xa1cil/UsuariosBasicos/AdministrarUsuarios.sol\":492:592  function consultar() public view returns(Usuario memory){... */\n    tag_5:\n      tag_12\n      tag_13\n      jump\t// in\n    tag_12:\n      mload(0x40)\n      tag_14\n      swap2\n      swap1\n      tag_15\n      jump\t// in\n    tag_14:\n      mload(0x40)\n      dup1\n      swap2\n      sub\n      swap1\n      return\n        /* \"contracts/F\\xc3\\xa1cil/UsuariosBasicos/AdministrarUsuarios.sol\":240:487  function registrar(uint edad, string memory nombre, string memory genero) public {... */\n    tag_9:\n        /* \"contracts/F\\xc3\\xa1cil/UsuariosBasicos/AdministrarUsuarios.sol\":331:355  Usuario storage _usuario */\n      0x00\n        /* \"contracts/F\\xc3\\xa1cil/UsuariosBasicos/AdministrarUsuarios.sol\":358:371  listaUsuarios */\n      dup1\n        /* \"contracts/F\\xc3\\xa1cil/UsuariosBasicos/AdministrarUsuarios.sol\":358:383  listaUsuarios[msg.sender] */\n      0x00\n        /* \"contracts/F\\xc3\\xa1cil/UsuariosBasicos/AdministrarUsuarios.sol\":372:382  msg.sender */\n      caller\n        /* \"contracts/F\\xc3\\xa1cil/UsuariosBasicos/AdministrarUsuarios.sol\":358:383  listaUsuarios[msg.sender] */\n      0xffffffffffffffffffffffffffffffffffffffff\n      and\n      0xffffffffffffffffffffffffffffffffffffffff\n      and\n      dup2\n      mstore\n      0x20\n      add\n      swap1\n      dup2\n      mstore\n      0x20\n      add\n      0x00\n      keccak256\n        /* \"contracts/F\\xc3\\xa1cil/UsuariosBasicos/AdministrarUsuarios.sol\":331:383  Usuario storage _usuario = listaUsuarios[msg.sender] */\n      swap1\n      pop\n        /* \"contracts/F\\xc3\\xa1cil/UsuariosBasicos/AdministrarUsuarios.sol\":409:413  edad */\n      dup4\n        /* \"contracts/F\\xc3\\xa1cil/UsuariosBasicos/AdministrarUsuarios.sol\":393:401  _usuario */\n      dup2\n        /* \"contracts/F\\xc3\\xa1cil/UsuariosBasicos/AdministrarUsuarios.sol\":393:406  _usuario.edad */\n      0x00\n      add\n        /* \"contracts/F\\xc3\\xa1cil/UsuariosBasicos/AdministrarUsuarios.sol\":393:413  _usuario.edad = edad */\n      dup2\n      swap1\n      sstore\n      pop\n        /* \"contracts/F\\xc3\\xa1cil/UsuariosBasicos/AdministrarUsuarios.sol\":441:447  nombre */\n      dup3\n        /* \"contracts/F\\xc3\\xa1cil/UsuariosBasicos/AdministrarUsuarios.sol\":423:431  _usuario */\n      dup2\n        /* \"contracts/F\\xc3\\xa1cil/UsuariosBasicos/AdministrarUsuarios.sol\":423:438  _usuario.nombre */\n      0x01\n      add\n        /* \"contracts/F\\xc3\\xa1cil/UsuariosBasicos/AdministrarUsuarios.sol\":423:447  _usuario.nombre = nombre */\n      swap1\n      dup1\n      mload\n      swap1\n      0x20\n      add\n      swap1\n      tag_17\n      swap3\n      swap2\n      swap1\n      tag_18\n      jump\t// in\n    tag_17:\n      pop\n        /* \"contracts/F\\xc3\\xa1cil/UsuariosBasicos/AdministrarUsuarios.sol\":475:481  genero */\n      dup2\n        /* \"contracts/F\\xc3\\xa1cil/UsuariosBasicos/AdministrarUsuarios.sol\":457:465  _usuario */\n      dup2\n        /* \"contracts/F\\xc3\\xa1cil/UsuariosBasicos/AdministrarUsuarios.sol\":457:472  _usuario.genero */\n      0x02\n      add\n        /* \"contracts/F\\xc3\\xa1cil/UsuariosBasicos/AdministrarUsuarios.sol\":457:481  _usuario.genero = genero */\n      swap1\n      dup1\n      mload\n      swap1\n      0x20\n      add\n      swap1\n      tag_19\n      swap3\n      swap2\n      swap1\n      tag_18\n      jump\t// in\n    tag_19:\n      pop\n        /* \"contracts/F\\xc3\\xa1cil/UsuariosBasicos/AdministrarUsuarios.sol\":321:487  {... */\n      pop\n        /* \"contracts/F\\xc3\\xa1cil/UsuariosBasicos/AdministrarUsuarios.sol\":240:487  function registrar(uint edad, string memory nombre, string memory genero) public {... */\n      pop\n      pop\n      pop\n      jump\t// out\n        /* \"contracts/F\\xc3\\xa1cil/UsuariosBasicos/AdministrarUsuarios.sol\":597:666  function borrar() public {... */\n    tag_11:\n        /* \"contracts/F\\xc3\\xa1cil/UsuariosBasicos/AdministrarUsuarios.sol\":635:648  listaUsuarios */\n      0x00\n        /* \"contracts/F\\xc3\\xa1cil/UsuariosBasicos/AdministrarUsuarios.sol\":635:660  listaUsuarios[msg.sender] */\n      dup1\n        /* \"contracts/F\\xc3\\xa1cil/UsuariosBasicos/AdministrarUsuarios.sol\":649:659  msg.sender */\n      caller\n        /* \"contracts/F\\xc3\\xa1cil/UsuariosBasicos/AdministrarUsuarios.sol\":635:660  listaUsuarios[msg.sender] */\n      0xffffffffffffffffffffffffffffffffffffffff\n      and\n      0xffffffffffffffffffffffffffffffffffffffff\n      and\n      dup2\n      mstore\n      0x20\n      add\n      swap1\n      dup2\n      mstore\n      0x20\n      add\n      0x00\n      keccak256\n      0x00\n        /* \"contracts/F\\xc3\\xa1cil/UsuariosBasicos/AdministrarUsuarios.sol\":628:660  delete listaUsuarios[msg.sender] */\n      dup1\n      dup3\n      add\n      0x00\n      swap1\n      sstore\n      0x01\n      dup3\n      add\n      0x00\n      tag_21\n      swap2\n      swap1\n      tag_22\n      jump\t// in\n    tag_21:\n      0x02\n      dup3\n      add\n      0x00\n      tag_23\n      swap2\n      swap1\n      tag_22\n      jump\t// in\n    tag_23:\n      pop\n      pop\n        /* \"contracts/F\\xc3\\xa1cil/UsuariosBasicos/AdministrarUsuarios.sol\":597:666  function borrar() public {... */\n      jump\t// out\n        /* \"contracts/F\\xc3\\xa1cil/UsuariosBasicos/AdministrarUsuarios.sol\":492:592  function consultar() public view returns(Usuario memory){... */\n    tag_13:\n        /* \"contracts/F\\xc3\\xa1cil/UsuariosBasicos/AdministrarUsuarios.sol\":533:547  Usuario memory */\n      tag_24\n      tag_25\n      jump\t// in\n    tag_24:\n        /* \"contracts/F\\xc3\\xa1cil/UsuariosBasicos/AdministrarUsuarios.sol\":561:574  listaUsuarios */\n      0x00\n        /* \"contracts/F\\xc3\\xa1cil/UsuariosBasicos/AdministrarUsuarios.sol\":561:586  listaUsuarios[msg.sender] */\n      dup1\n        /* \"contracts/F\\xc3\\xa1cil/UsuariosBasicos/AdministrarUsuarios.sol\":575:585  msg.sender */\n      caller\n        /* \"contracts/F\\xc3\\xa1cil/UsuariosBasicos/AdministrarUsuarios.sol\":561:586  listaUsuarios[msg.sender] */\n      0xffffffffffffffffffffffffffffffffffffffff\n      and\n      0xffffffffffffffffffffffffffffffffffffffff\n      and\n      dup2\n      mstore\n      0x20\n      add\n      swap1\n      dup2\n      mstore\n      0x20\n      add\n      0x00\n      keccak256\n        /* \"contracts/F\\xc3\\xa1cil/UsuariosBasicos/AdministrarUsuarios.sol\":554:586  return listaUsuarios[msg.sender] */\n      mload(0x40)\n      dup1\n      0x60\n      add\n      0x40\n      mstore\n      swap1\n      dup2\n      0x00\n      dup3\n      add\n      sload\n      dup2\n      mstore\n      0x20\n      add\n      0x01\n      dup3\n      add\n      dup1\n      sload\n      tag_27\n      swap1\n      tag_28\n      jump\t// in\n    tag_27:\n      dup1\n      0x1f\n      add\n      0x20\n      dup1\n      swap2\n      div\n      mul\n      0x20\n      add\n      mload(0x40)\n      swap1\n      dup2\n      add\n      0x40\n      mstore\n      dup1\n      swap3\n      swap2\n      swap1\n      dup2\n      dup2\n      mstore\n      0x20\n      add\n      dup3\n      dup1\n      sload\n      tag_29\n      swap1\n      tag_28\n      jump\t// in\n    tag_29:\n      dup1\n      iszero\n      tag_30\n      jumpi\n      dup1\n      0x1f\n      lt\n      tag_31\n      jumpi\n      0x0100\n      dup1\n      dup4\n      sload\n      div\n      mul\n      dup4\n      mstore\n      swap2\n      0x20\n      add\n      swap2\n      jump(tag_30)\n    tag_31:\n      dup3\n      add\n      swap2\n      swap1\n      0x00\n      mstore\n      keccak256(0x00, 0x20)\n      swap1\n    tag_32:\n      dup2\n      sload\n      dup2\n      mstore\n      swap1\n      0x01\n      add\n      swap1\n      0x20\n      add\n      dup1\n      dup4\n      gt\n      tag_32\n      jumpi\n      dup3\n      swap1\n      sub\n      0x1f\n      and\n      dup3\n      add\n      swap2\n    tag_30:\n      pop\n      pop\n      pop\n      pop\n      pop\n      dup2\n      mstore\n      0x20\n      add\n      0x02\n      dup3\n      add\n      dup1\n      sload\n      tag_33\n      swap1\n      tag_28\n      jump\t// in\n    tag_33:\n      dup1\n      0x1f\n      add\n      0x20\n      dup1\n      swap2\n      div\n      mul\n      0x20\n      add\n      mload(0x40)\n      swap1\n      dup2\n      add\n      0x40\n      mstore\n      dup1\n      swap3\n      swap2\n      swap1\n      dup2\n      dup2\n      mstore\n      0x20\n      add\n      dup3\n      dup1\n      sload\n      tag_34\n      swap1\n      tag_28\n      jump\t// in\n    tag_34:\n      dup1\n      iszero\n      tag_35\n      jumpi\n      dup1\n      0x1f\n      lt\n      tag_36\n      jumpi\n      0x0100\n      dup1\n      dup4\n      sload\n      div\n      mul\n      dup4\n      mstore\n      swap2\n      0x20\n      add\n      swap2\n      jump(tag_35)\n    tag_36:\n      dup3\n      add\n      swap2\n      swap1\n      0x00\n      mstore\n      keccak256(0x00, 0x20)\n      swap1\n    tag_37:\n      dup2\n      sload\n      dup2\n      mstore\n      swap1\n      0x01\n      add\n      swap1\n      0x20\n      add\n      dup1\n      dup4\n      gt\n      tag_37\n      jumpi\n      dup3\n      swap1\n      sub\n      0x1f\n      and\n      dup3\n      add\n      swap2\n    tag_35:\n      pop\n      pop\n      pop\n      pop\n      pop\n      dup2\n      mstore\n      pop\n      pop\n      swap1\n      pop\n        /* \"contracts/F\\xc3\\xa1cil/UsuariosBasicos/AdministrarUsuarios.sol\":492:592  function consultar() public view returns(Usuario memory){... */\n      swap1\n      jump\t// out\n    tag_18:\n      dup3\n      dup1\n      sload\n      tag_38\n      swap1\n      tag_28\n      jump\t// in\n    tag_38:\n      swap1\n      0x00\n      mstore\n      keccak256(0x00, 0x20)\n      swap1\n      0x1f\n      add\n      0x20\n      swap1\n      div\n      dup2\n      add\n      swap3\n      dup3\n      tag_40\n      jumpi\n      0x00\n      dup6\n      sstore\n      jump(tag_39)\n    tag_40:\n      dup3\n      0x1f\n      lt\n      tag_41\n      jumpi\n      dup1\n      mload\n      not(0xff)\n      and\n      dup4\n      dup1\n      add\n      or\n      dup6\n      sstore\n      jump(tag_39)\n    tag_41:\n      dup3\n      dup1\n      add\n      0x01\n      add\n      dup6\n      sstore\n      dup3\n      iszero\n      tag_39\n      jumpi\n      swap2\n      dup3\n      add\n    tag_42:\n      dup3\n      dup2\n      gt\n      iszero\n      tag_43\n      jumpi\n      dup3\n      mload\n      dup3\n      sstore\n      swap2\n      0x20\n      add\n      swap2\n      swap1\n      0x01\n      add\n      swap1\n      jump(tag_42)\n    tag_43:\n    tag_39:\n      pop\n      swap1\n      pop\n      tag_44\n      swap2\n      swap1\n      tag_45\n      jump\t// in\n    tag_44:\n      pop\n      swap1\n      jump\t// out\n    tag_22:\n      pop\n      dup1\n      sload\n      tag_46\n      swap1\n      tag_28\n      jump\t// in\n    tag_46:\n      0x00\n      dup3\n      sstore\n      dup1\n      0x1f\n      lt\n      tag_48\n      jumpi\n      pop\n      jump(tag_47)\n    tag_48:\n      0x1f\n      add\n      0x20\n      swap1\n      div\n      swap1\n      0x00\n      mstore\n      keccak256(0x00, 0x20)\n      swap1\n      dup2\n      add\n      swap1\n      tag_49\n      swap2\n      swap1\n      tag_45\n      jump\t// in\n    tag_49:\n    tag_47:\n      pop\n      jump\t// out\n    tag_25:\n      mload(0x40)\n      dup1\n      0x60\n      add\n      0x40\n      mstore\n      dup1\n      0x00\n      dup2\n      mstore\n      0x20\n      add\n      0x60\n      dup2\n      mstore\n      0x20\n      add\n      0x60\n      dup2\n      mstore\n      pop\n      swap1\n      jump\t// out\n    tag_45:\n    tag_50:\n      dup1\n      dup3\n      gt\n      iszero\n      tag_51\n      jumpi\n      0x00\n      dup2\n      0x00\n      swap1\n      sstore\n      pop\n      0x01\n      add\n      jump(tag_50)\n    tag_51:\n      pop\n      swap1\n      jump\t// out\n        /* \"#utility.yul\":7:419   */\n    tag_53:\n        /* \"#utility.yul\":85:90   */\n      0x00\n        /* \"#utility.yul\":110:176   */\n      tag_55\n        /* \"#utility.yul\":126:175   */\n      tag_56\n        /* \"#utility.yul\":168:174   */\n      dup5\n        /* \"#utility.yul\":126:175   */\n      tag_57\n      jump\t// in\n    tag_56:\n        /* \"#utility.yul\":110:176   */\n      tag_58\n      jump\t// in\n    tag_55:\n        /* \"#utility.yul\":101:176   */\n      swap1\n      pop\n        /* \"#utility.yul\":199:205   */\n      dup3\n        /* \"#utility.yul\":192:197   */\n      dup2\n        /* \"#utility.yul\":185:206   */\n      mstore\n        /* \"#utility.yul\":237:241   */\n      0x20\n        /* \"#utility.yul\":230:235   */\n      dup2\n        /* \"#utility.yul\":226:242   */\n      add\n        /* \"#utility.yul\":275:278   */\n      dup5\n        /* \"#utility.yul\":266:272   */\n      dup5\n        /* \"#utility.yul\":261:264   */\n      dup5\n        /* \"#utility.yul\":257:273   */\n      add\n        /* \"#utility.yul\":254:279   */\n      gt\n        /* \"#utility.yul\":251:363   */\n      iszero\n      tag_59\n      jumpi\n        /* \"#utility.yul\":282:361   */\n      tag_60\n      tag_61\n      jump\t// in\n    tag_60:\n        /* \"#utility.yul\":251:363   */\n    tag_59:\n        /* \"#utility.yul\":372:413   */\n      tag_62\n        /* \"#utility.yul\":406:412   */\n      dup5\n        /* \"#utility.yul\":401:404   */\n      dup3\n        /* \"#utility.yul\":396:399   */\n      dup6\n        /* \"#utility.yul\":372:413   */\n      tag_63\n      jump\t// in\n    tag_62:\n        /* \"#utility.yul\":91:419   */\n      pop\n        /* \"#utility.yul\":7:419   */\n      swap4\n      swap3\n      pop\n      pop\n      pop\n      jump\t// out\n        /* \"#utility.yul\":439:779   */\n    tag_64:\n        /* \"#utility.yul\":495:500   */\n      0x00\n        /* \"#utility.yul\":544:547   */\n      dup3\n        /* \"#utility.yul\":537:541   */\n      0x1f\n        /* \"#utility.yul\":529:535   */\n      dup4\n        /* \"#utility.yul\":525:542   */\n      add\n        /* \"#utility.yul\":521:548   */\n      slt\n        /* \"#utility.yul\":511:633   */\n      tag_66\n      jumpi\n        /* \"#utility.yul\":552:631   */\n      tag_67\n      tag_68\n      jump\t// in\n    tag_67:\n        /* \"#utility.yul\":511:633   */\n    tag_66:\n        /* \"#utility.yul\":669:675   */\n      dup2\n        /* \"#utility.yul\":656:676   */\n      calldataload\n        /* \"#utility.yul\":694:773   */\n      tag_69\n        /* \"#utility.yul\":769:772   */\n      dup5\n        /* \"#utility.yul\":761:767   */\n      dup3\n        /* \"#utility.yul\":754:758   */\n      0x20\n        /* \"#utility.yul\":746:752   */\n      dup7\n        /* \"#utility.yul\":742:759   */\n      add\n        /* \"#utility.yul\":694:773   */\n      tag_53\n      jump\t// in\n    tag_69:\n        /* \"#utility.yul\":685:773   */\n      swap2\n      pop\n        /* \"#utility.yul\":501:779   */\n      pop\n        /* \"#utility.yul\":439:779   */\n      swap3\n      swap2\n      pop\n      pop\n      jump\t// out\n        /* \"#utility.yul\":785:924   */\n    tag_70:\n        /* \"#utility.yul\":831:836   */\n      0x00\n        /* \"#utility.yul\":869:875   */\n      dup2\n        /* \"#utility.yul\":856:876   */\n      calldataload\n        /* \"#utility.yul\":847:876   */\n      swap1\n      pop\n        /* \"#utility.yul\":885:918   */\n      tag_72\n        /* \"#utility.yul\":912:917   */\n      dup2\n        /* \"#utility.yul\":885:918   */\n      tag_73\n      jump\t// in\n    tag_72:\n        /* \"#utility.yul\":785:924   */\n      swap3\n      swap2\n      pop\n      pop\n      jump\t// out\n        /* \"#utility.yul\":930:1909   */\n    tag_8:\n        /* \"#utility.yul\":1027:1033   */\n      0x00\n        /* \"#utility.yul\":1035:1041   */\n      dup1\n        /* \"#utility.yul\":1043:1049   */\n      0x00\n        /* \"#utility.yul\":1092:1094   */\n      0x60\n        /* \"#utility.yul\":1080:1089   */\n      dup5\n        /* \"#utility.yul\":1071:1078   */\n      dup7\n        /* \"#utility.yul\":1067:1090   */\n      sub\n        /* \"#utility.yul\":1063:1095   */\n      slt\n        /* \"#utility.yul\":1060:1179   */\n      iszero\n      tag_75\n      jumpi\n        /* \"#utility.yul\":1098:1177   */\n      tag_76\n      tag_77\n      jump\t// in\n    tag_76:\n        /* \"#utility.yul\":1060:1179   */\n    tag_75:\n        /* \"#utility.yul\":1218:1219   */\n      0x00\n        /* \"#utility.yul\":1243:1296   */\n      tag_78\n        /* \"#utility.yul\":1288:1295   */\n      dup7\n        /* \"#utility.yul\":1279:1285   */\n      dup3\n        /* \"#utility.yul\":1268:1277   */\n      dup8\n        /* \"#utility.yul\":1264:1286   */\n      add\n        /* \"#utility.yul\":1243:1296   */\n      tag_70\n      jump\t// in\n    tag_78:\n        /* \"#utility.yul\":1233:1296   */\n      swap4\n      pop\n        /* \"#utility.yul\":1189:1306   */\n      pop\n        /* \"#utility.yul\":1373:1375   */\n      0x20\n        /* \"#utility.yul\":1362:1371   */\n      dup5\n        /* \"#utility.yul\":1358:1376   */\n      add\n        /* \"#utility.yul\":1345:1377   */\n      calldataload\n        /* \"#utility.yul\":1404:1422   */\n      0xffffffffffffffff\n        /* \"#utility.yul\":1396:1402   */\n      dup2\n        /* \"#utility.yul\":1393:1423   */\n      gt\n        /* \"#utility.yul\":1390:1507   */\n      iszero\n      tag_79\n      jumpi\n        /* \"#utility.yul\":1426:1505   */\n      tag_80\n      tag_81\n      jump\t// in\n    tag_80:\n        /* \"#utility.yul\":1390:1507   */\n    tag_79:\n        /* \"#utility.yul\":1531:1594   */\n      tag_82\n        /* \"#utility.yul\":1586:1593   */\n      dup7\n        /* \"#utility.yul\":1577:1583   */\n      dup3\n        /* \"#utility.yul\":1566:1575   */\n      dup8\n        /* \"#utility.yul\":1562:1584   */\n      add\n        /* \"#utility.yul\":1531:1594   */\n      tag_64\n      jump\t// in\n    tag_82:\n        /* \"#utility.yul\":1521:1594   */\n      swap3\n      pop\n        /* \"#utility.yul\":1316:1604   */\n      pop\n        /* \"#utility.yul\":1671:1673   */\n      0x40\n        /* \"#utility.yul\":1660:1669   */\n      dup5\n        /* \"#utility.yul\":1656:1674   */\n      add\n        /* \"#utility.yul\":1643:1675   */\n      calldataload\n        /* \"#utility.yul\":1702:1720   */\n      0xffffffffffffffff\n        /* \"#utility.yul\":1694:1700   */\n      dup2\n        /* \"#utility.yul\":1691:1721   */\n      gt\n        /* \"#utility.yul\":1688:1805   */\n      iszero\n      tag_83\n      jumpi\n        /* \"#utility.yul\":1724:1803   */\n      tag_84\n      tag_81\n      jump\t// in\n    tag_84:\n        /* \"#utility.yul\":1688:1805   */\n    tag_83:\n        /* \"#utility.yul\":1829:1892   */\n      tag_85\n        /* \"#utility.yul\":1884:1891   */\n      dup7\n        /* \"#utility.yul\":1875:1881   */\n      dup3\n        /* \"#utility.yul\":1864:1873   */\n      dup8\n        /* \"#utility.yul\":1860:1882   */\n      add\n        /* \"#utility.yul\":1829:1892   */\n      tag_64\n      jump\t// in\n    tag_85:\n        /* \"#utility.yul\":1819:1892   */\n      swap2\n      pop\n        /* \"#utility.yul\":1614:1902   */\n      pop\n        /* \"#utility.yul\":930:1909   */\n      swap3\n      pop\n      swap3\n      pop\n      swap3\n      jump\t// out\n        /* \"#utility.yul\":1915:2259   */\n    tag_86:\n        /* \"#utility.yul\":1993:1996   */\n      0x00\n        /* \"#utility.yul\":2021:2060   */\n      tag_88\n        /* \"#utility.yul\":2054:2059   */\n      dup3\n        /* \"#utility.yul\":2021:2060   */\n      tag_89\n      jump\t// in\n    tag_88:\n        /* \"#utility.yul\":2076:2137   */\n      tag_90\n        /* \"#utility.yul\":2130:2136   */\n      dup2\n        /* \"#utility.yul\":2125:2128   */\n      dup6\n        /* \"#utility.yul\":2076:2137   */\n      tag_91\n      jump\t// in\n    tag_90:\n        /* \"#utility.yul\":2069:2137   */\n      swap4\n      pop\n        /* \"#utility.yul\":2146:2198   */\n      tag_92\n        /* \"#utility.yul\":2191:2197   */\n      dup2\n        /* \"#utility.yul\":2186:2189   */\n      dup6\n        /* \"#utility.yul\":2179:2183   */\n      0x20\n        /* \"#utility.yul\":2172:2177   */\n      dup7\n        /* \"#utility.yul\":2168:2184   */\n      add\n        /* \"#utility.yul\":2146:2198   */\n      tag_93\n      jump\t// in\n    tag_92:\n        /* \"#utility.yul\":2223:2252   */\n      tag_94\n        /* \"#utility.yul\":2245:2251   */\n      dup2\n        /* \"#utility.yul\":2223:2252   */\n      tag_95\n      jump\t// in\n    tag_94:\n        /* \"#utility.yul\":2218:2221   */\n      dup5\n        /* \"#utility.yul\":2214:2253   */\n      add\n        /* \"#utility.yul\":2207:2253   */\n      swap2\n      pop\n        /* \"#utility.yul\":1997:2259   */\n      pop\n        /* \"#utility.yul\":1915:2259   */\n      swap3\n      swap2\n      pop\n      pop\n      jump\t// out\n        /* \"#utility.yul\":2345:3194   */\n    tag_96:\n        /* \"#utility.yul\":2458:2461   */\n      0x00\n        /* \"#utility.yul\":2494:2498   */\n      0x60\n        /* \"#utility.yul\":2489:2492   */\n      dup4\n        /* \"#utility.yul\":2485:2499   */\n      add\n        /* \"#utility.yul\":2581:2585   */\n      0x00\n        /* \"#utility.yul\":2574:2579   */\n      dup4\n        /* \"#utility.yul\":2570:2586   */\n      add\n        /* \"#utility.yul\":2564:2587   */\n      mload\n        /* \"#utility.yul\":2600:2663   */\n      tag_98\n        /* \"#utility.yul\":2657:2661   */\n      0x00\n        /* \"#utility.yul\":2652:2655   */\n      dup7\n        /* \"#utility.yul\":2648:2662   */\n      add\n        /* \"#utility.yul\":2634:2646   */\n      dup3\n        /* \"#utility.yul\":2600:2663   */\n      tag_99\n      jump\t// in\n    tag_98:\n        /* \"#utility.yul\":2509:2673   */\n      pop\n        /* \"#utility.yul\":2757:2761   */\n      0x20\n        /* \"#utility.yul\":2750:2755   */\n      dup4\n        /* \"#utility.yul\":2746:2762   */\n      add\n        /* \"#utility.yul\":2740:2763   */\n      mload\n        /* \"#utility.yul\":2810:2813   */\n      dup5\n        /* \"#utility.yul\":2804:2808   */\n      dup3\n        /* \"#utility.yul\":2800:2814   */\n      sub\n        /* \"#utility.yul\":2793:2797   */\n      0x20\n        /* \"#utility.yul\":2788:2791   */\n      dup7\n        /* \"#utility.yul\":2784:2798   */\n      add\n        /* \"#utility.yul\":2777:2815   */\n      mstore\n        /* \"#utility.yul\":2836:2909   */\n      tag_100\n        /* \"#utility.yul\":2904:2908   */\n      dup3\n        /* \"#utility.yul\":2890:2902   */\n      dup3\n        /* \"#utility.yul\":2836:2909   */\n      tag_86\n      jump\t// in\n    tag_100:\n        /* \"#utility.yul\":2828:2909   */\n      swap2\n      pop\n        /* \"#utility.yul\":2683:2920   */\n      pop\n        /* \"#utility.yul\":3004:3008   */\n      0x40\n        /* \"#utility.yul\":2997:3002   */\n      dup4\n        /* \"#utility.yul\":2993:3009   */\n      add\n        /* \"#utility.yul\":2987:3010   */\n      mload\n        /* \"#utility.yul\":3057:3060   */\n      dup5\n        /* \"#utility.yul\":3051:3055   */\n      dup3\n        /* \"#utility.yul\":3047:3061   */\n      sub\n        /* \"#utility.yul\":3040:3044   */\n      0x40\n        /* \"#utility.yul\":3035:3038   */\n      dup7\n        /* \"#utility.yul\":3031:3045   */\n      add\n        /* \"#utility.yul\":3024:3062   */\n      mstore\n        /* \"#utility.yul\":3083:3156   */\n      tag_101\n        /* \"#utility.yul\":3151:3155   */\n      dup3\n        /* \"#utility.yul\":3137:3149   */\n      dup3\n        /* \"#utility.yul\":3083:3156   */\n      tag_86\n      jump\t// in\n    tag_101:\n        /* \"#utility.yul\":3075:3156   */\n      swap2\n      pop\n        /* \"#utility.yul\":2930:3167   */\n      pop\n        /* \"#utility.yul\":3184:3188   */\n      dup1\n        /* \"#utility.yul\":3177:3188   */\n      swap2\n      pop\n        /* \"#utility.yul\":2463:3194   */\n      pop\n        /* \"#utility.yul\":2345:3194   */\n      swap3\n      swap2\n      pop\n      pop\n      jump\t// out\n        /* \"#utility.yul\":3200:3308   */\n    tag_99:\n        /* \"#utility.yul\":3277:3301   */\n      tag_103\n        /* \"#utility.yul\":3295:3300   */\n      dup2\n        /* \"#utility.yul\":3277:3301   */\n      tag_104\n      jump\t// in\n    tag_103:\n        /* \"#utility.yul\":3272:3275   */\n      dup3\n        /* \"#utility.yul\":3265:3302   */\n      mstore\n        /* \"#utility.yul\":3200:3308   */\n      pop\n      pop\n      jump\t// out\n        /* \"#utility.yul\":3314:3675   */\n    tag_15:\n        /* \"#utility.yul\":3451:3455   */\n      0x00\n        /* \"#utility.yul\":3489:3491   */\n      0x20\n        /* \"#utility.yul\":3478:3487   */\n      dup3\n        /* \"#utility.yul\":3474:3492   */\n      add\n        /* \"#utility.yul\":3466:3492   */\n      swap1\n      pop\n        /* \"#utility.yul\":3538:3547   */\n      dup2\n        /* \"#utility.yul\":3532:3536   */\n      dup2\n        /* \"#utility.yul\":3528:3548   */\n      sub\n        /* \"#utility.yul\":3524:3525   */\n      0x00\n        /* \"#utility.yul\":3513:3522   */\n      dup4\n        /* \"#utility.yul\":3509:3526   */\n      add\n        /* \"#utility.yul\":3502:3549   */\n      mstore\n        /* \"#utility.yul\":3566:3668   */\n      tag_106\n        /* \"#utility.yul\":3663:3667   */\n      dup2\n        /* \"#utility.yul\":3654:3660   */\n      dup5\n        /* \"#utility.yul\":3566:3668   */\n      tag_96\n      jump\t// in\n    tag_106:\n        /* \"#utility.yul\":3558:3668   */\n      swap1\n      pop\n        /* \"#utility.yul\":3314:3675   */\n      swap3\n      swap2\n      pop\n      pop\n      jump\t// out\n        /* \"#utility.yul\":3681:3810   */\n    tag_58:\n        /* \"#utility.yul\":3715:3721   */\n      0x00\n        /* \"#utility.yul\":3742:3762   */\n      tag_108\n      tag_109\n      jump\t// in\n    tag_108:\n        /* \"#utility.yul\":3732:3762   */\n      swap1\n      pop\n        /* \"#utility.yul\":3771:3804   */\n      tag_110\n        /* \"#utility.yul\":3799:3803   */\n      dup3\n        /* \"#utility.yul\":3791:3797   */\n      dup3\n        /* \"#utility.yul\":3771:3804   */\n      tag_111\n      jump\t// in\n    tag_110:\n        /* \"#utility.yul\":3681:3810   */\n      swap2\n      swap1\n      pop\n      jump\t// out\n        /* \"#utility.yul\":3816:3891   */\n    tag_109:\n        /* \"#utility.yul\":3849:3855   */\n      0x00\n        /* \"#utility.yul\":3882:3884   */\n      0x40\n        /* \"#utility.yul\":3876:3885   */\n      mload\n        /* \"#utility.yul\":3866:3885   */\n      swap1\n      pop\n        /* \"#utility.yul\":3816:3891   */\n      swap1\n      jump\t// out\n        /* \"#utility.yul\":3897:4205   */\n    tag_57:\n        /* \"#utility.yul\":3959:3963   */\n      0x00\n        /* \"#utility.yul\":4049:4067   */\n      0xffffffffffffffff\n        /* \"#utility.yul\":4041:4047   */\n      dup3\n        /* \"#utility.yul\":4038:4068   */\n      gt\n        /* \"#utility.yul\":4035:4091   */\n      iszero\n      tag_114\n      jumpi\n        /* \"#utility.yul\":4071:4089   */\n      tag_115\n      tag_116\n      jump\t// in\n    tag_115:\n        /* \"#utility.yul\":4035:4091   */\n    tag_114:\n        /* \"#utility.yul\":4109:4138   */\n      tag_117\n        /* \"#utility.yul\":4131:4137   */\n      dup3\n        /* \"#utility.yul\":4109:4138   */\n      tag_95\n      jump\t// in\n    tag_117:\n        /* \"#utility.yul\":4101:4138   */\n      swap1\n      pop\n        /* \"#utility.yul\":4193:4197   */\n      0x20\n        /* \"#utility.yul\":4187:4191   */\n      dup2\n        /* \"#utility.yul\":4183:4198   */\n      add\n        /* \"#utility.yul\":4175:4198   */\n      swap1\n      pop\n        /* \"#utility.yul\":3897:4205   */\n      swap2\n      swap1\n      pop\n      jump\t// out\n        /* \"#utility.yul\":4211:4310   */\n    tag_89:\n        /* \"#utility.yul\":4263:4269   */\n      0x00\n        /* \"#utility.yul\":4297:4302   */\n      dup2\n        /* \"#utility.yul\":4291:4303   */\n      mload\n        /* \"#utility.yul\":4281:4303   */\n      swap1\n      pop\n        /* \"#utility.yul\":4211:4310   */\n      swap2\n      swap1\n      pop\n      jump\t// out\n        /* \"#utility.yul\":4316:4475   */\n    tag_91:\n        /* \"#utility.yul\":4390:4401   */\n      0x00\n        /* \"#utility.yul\":4424:4430   */\n      dup3\n        /* \"#utility.yul\":4419:4422   */\n      dup3\n        /* \"#utility.yul\":4412:4431   */\n      mstore\n        /* \"#utility.yul\":4464:4468   */\n      0x20\n        /* \"#utility.yul\":4459:4462   */\n      dup3\n        /* \"#utility.yul\":4455:4469   */\n      add\n        /* \"#utility.yul\":4440:4469   */\n      swap1\n      pop\n        /* \"#utility.yul\":4316:4475   */\n      swap3\n      swap2\n      pop\n      pop\n      jump\t// out\n        /* \"#utility.yul\":4481:4558   */\n    tag_104:\n        /* \"#utility.yul\":4518:4525   */\n      0x00\n        /* \"#utility.yul\":4547:4552   */\n      dup2\n        /* \"#utility.yul\":4536:4552   */\n      swap1\n      pop\n        /* \"#utility.yul\":4481:4558   */\n      swap2\n      swap1\n      pop\n      jump\t// out\n        /* \"#utility.yul\":4564:4718   */\n    tag_63:\n        /* \"#utility.yul\":4648:4654   */\n      dup3\n        /* \"#utility.yul\":4643:4646   */\n      dup2\n        /* \"#utility.yul\":4638:4641   */\n      dup4\n        /* \"#utility.yul\":4625:4655   */\n      calldatacopy\n        /* \"#utility.yul\":4710:4711   */\n      0x00\n        /* \"#utility.yul\":4701:4707   */\n      dup4\n        /* \"#utility.yul\":4696:4699   */\n      dup4\n        /* \"#utility.yul\":4692:4708   */\n      add\n        /* \"#utility.yul\":4685:4712   */\n      mstore\n        /* \"#utility.yul\":4564:4718   */\n      pop\n      pop\n      pop\n      jump\t// out\n        /* \"#utility.yul\":4724:5031   */\n    tag_93:\n        /* \"#utility.yul\":4792:4793   */\n      0x00\n        /* \"#utility.yul\":4802:4915   */\n    tag_123:\n        /* \"#utility.yul\":4816:4822   */\n      dup4\n        /* \"#utility.yul\":4813:4814   */\n      dup2\n        /* \"#utility.yul\":4810:4823   */\n      lt\n        /* \"#utility.yul\":4802:4915   */\n      iszero\n      tag_125\n      jumpi\n        /* \"#utility.yul\":4901:4902   */\n      dup1\n        /* \"#utility.yul\":4896:4899   */\n      dup3\n        /* \"#utility.yul\":4892:4903   */\n      add\n        /* \"#utility.yul\":4886:4904   */\n      mload\n        /* \"#utility.yul\":4882:4883   */\n      dup2\n        /* \"#utility.yul\":4877:4880   */\n      dup5\n        /* \"#utility.yul\":4873:4884   */\n      add\n        /* \"#utility.yul\":4866:4905   */\n      mstore\n        /* \"#utility.yul\":4838:4840   */\n      0x20\n        /* \"#utility.yul\":4835:4836   */\n      dup2\n        /* \"#utility.yul\":4831:4841   */\n      add\n        /* \"#utility.yul\":4826:4841   */\n      swap1\n      pop\n        /* \"#utility.yul\":4802:4915   */\n      jump(tag_123)\n    tag_125:\n        /* \"#utility.yul\":4933:4939   */\n      dup4\n        /* \"#utility.yul\":4930:4931   */\n      dup2\n        /* \"#utility.yul\":4927:4940   */\n      gt\n        /* \"#utility.yul\":4924:5025   */\n      iszero\n      tag_126\n      jumpi\n        /* \"#utility.yul\":5013:5014   */\n      0x00\n        /* \"#utility.yul\":5004:5010   */\n      dup5\n        /* \"#utility.yul\":4999:5002   */\n      dup5\n        /* \"#utility.yul\":4995:5011   */\n      add\n        /* \"#utility.yul\":4988:5015   */\n      mstore\n        /* \"#utility.yul\":4924:5025   */\n    tag_126:\n        /* \"#utility.yul\":4773:5031   */\n      pop\n        /* \"#utility.yul\":4724:5031   */\n      pop\n      pop\n      pop\n      jump\t// out\n        /* \"#utility.yul\":5037:5357   */\n    tag_28:\n        /* \"#utility.yul\":5081:5087   */\n      0x00\n        /* \"#utility.yul\":5118:5119   */\n      0x02\n        /* \"#utility.yul\":5112:5116   */\n      dup3\n        /* \"#utility.yul\":5108:5120   */\n      div\n        /* \"#utility.yul\":5098:5120   */\n      swap1\n      pop\n        /* \"#utility.yul\":5165:5166   */\n      0x01\n        /* \"#utility.yul\":5159:5163   */\n      dup3\n        /* \"#utility.yul\":5155:5167   */\n      and\n        /* \"#utility.yul\":5186:5204   */\n      dup1\n        /* \"#utility.yul\":5176:5257   */\n      tag_128\n      jumpi\n        /* \"#utility.yul\":5242:5246   */\n      0x7f\n        /* \"#utility.yul\":5234:5240   */\n      dup3\n        /* \"#utility.yul\":5230:5247   */\n      and\n        /* \"#utility.yul\":5220:5247   */\n      swap2\n      pop\n        /* \"#utility.yul\":5176:5257   */\n    tag_128:\n        /* \"#utility.yul\":5304:5306   */\n      0x20\n        /* \"#utility.yul\":5296:5302   */\n      dup3\n        /* \"#utility.yul\":5293:5307   */\n      lt\n        /* \"#utility.yul\":5273:5291   */\n      dup2\n        /* \"#utility.yul\":5270:5308   */\n      eq\n        /* \"#utility.yul\":5267:5351   */\n      iszero\n      tag_129\n      jumpi\n        /* \"#utility.yul\":5323:5341   */\n      tag_130\n      tag_131\n      jump\t// in\n    tag_130:\n        /* \"#utility.yul\":5267:5351   */\n    tag_129:\n        /* \"#utility.yul\":5088:5357   */\n      pop\n        /* \"#utility.yul\":5037:5357   */\n      swap2\n      swap1\n      pop\n      jump\t// out\n        /* \"#utility.yul\":5363:5644   */\n    tag_111:\n        /* \"#utility.yul\":5446:5473   */\n      tag_133\n        /* \"#utility.yul\":5468:5472   */\n      dup3\n        /* \"#utility.yul\":5446:5473   */\n      tag_95\n      jump\t// in\n    tag_133:\n        /* \"#utility.yul\":5438:5444   */\n      dup2\n        /* \"#utility.yul\":5434:5474   */\n      add\n        /* \"#utility.yul\":5576:5582   */\n      dup2\n        /* \"#utility.yul\":5564:5574   */\n      dup2\n        /* \"#utility.yul\":5561:5583   */\n      lt\n        /* \"#utility.yul\":5540:5558   */\n      0xffffffffffffffff\n        /* \"#utility.yul\":5528:5538   */\n      dup3\n        /* \"#utility.yul\":5525:5559   */\n      gt\n        /* \"#utility.yul\":5522:5584   */\n      or\n        /* \"#utility.yul\":5519:5607   */\n      iszero\n      tag_134\n      jumpi\n        /* \"#utility.yul\":5587:5605   */\n      tag_135\n      tag_116\n      jump\t// in\n    tag_135:\n        /* \"#utility.yul\":5519:5607   */\n    tag_134:\n        /* \"#utility.yul\":5627:5637   */\n      dup1\n        /* \"#utility.yul\":5623:5625   */\n      0x40\n        /* \"#utility.yul\":5616:5638   */\n      mstore\n        /* \"#utility.yul\":5406:5644   */\n      pop\n        /* \"#utility.yul\":5363:5644   */\n      pop\n      pop\n      jump\t// out\n        /* \"#utility.yul\":5650:5830   */\n    tag_131:\n        /* \"#utility.yul\":5698:5775   */\n      0x4e487b7100000000000000000000000000000000000000000000000000000000\n        /* \"#utility.yul\":5695:5696   */\n      0x00\n        /* \"#utility.yul\":5688:5776   */\n      mstore\n        /* \"#utility.yul\":5795:5799   */\n      0x22\n        /* \"#utility.yul\":5792:5793   */\n      0x04\n        /* \"#utility.yul\":5785:5800   */\n      mstore\n        /* \"#utility.yul\":5819:5823   */\n      0x24\n        /* \"#utility.yul\":5816:5817   */\n      0x00\n        /* \"#utility.yul\":5809:5824   */\n      revert\n        /* \"#utility.yul\":5836:6016   */\n    tag_116:\n        /* \"#utility.yul\":5884:5961   */\n      0x4e487b7100000000000000000000000000000000000000000000000000000000\n        /* \"#utility.yul\":5881:5882   */\n      0x00\n        /* \"#utility.yul\":5874:5962   */\n      mstore\n        /* \"#utility.yul\":5981:5985   */\n      0x41\n        /* \"#utility.yul\":5978:5979   */\n      0x04\n        /* \"#utility.yul\":5971:5986   */\n      mstore\n        /* \"#utility.yul\":6005:6009   */\n      0x24\n        /* \"#utility.yul\":6002:6003   */\n      0x00\n        /* \"#utility.yul\":5995:6010   */\n      revert\n        /* \"#utility.yul\":6022:6139   */\n    tag_68:\n        /* \"#utility.yul\":6131:6132   */\n      0x00\n        /* \"#utility.yul\":6128:6129   */\n      dup1\n        /* \"#utility.yul\":6121:6133   */\n      revert\n        /* \"#utility.yul\":6145:6262   */\n    tag_61:\n        /* \"#utility.yul\":6254:6255   */\n      0x00\n        /* \"#utility.yul\":6251:6252   */\n      dup1\n        /* \"#utility.yul\":6244:6256   */\n      revert\n        /* \"#utility.yul\":6268:6385   */\n    tag_81:\n        /* \"#utility.yul\":6377:6378   */\n      0x00\n        /* \"#utility.yul\":6374:6375   */\n      dup1\n        /* \"#utility.yul\":6367:6379   */\n      revert\n        /* \"#utility.yul\":6391:6508   */\n    tag_77:\n        /* \"#utility.yul\":6500:6501   */\n      0x00\n        /* \"#utility.yul\":6497:6498   */\n      dup1\n        /* \"#utility.yul\":6490:6502   */\n      revert\n        /* \"#utility.yul\":6514:6616   */\n    tag_95:\n        /* \"#utility.yul\":6555:6561   */\n      0x00\n        /* \"#utility.yul\":6606:6608   */\n      0x1f\n        /* \"#utility.yul\":6602:6609   */\n      not\n        /* \"#utility.yul\":6597:6599   */\n      0x1f\n        /* \"#utility.yul\":6590:6595   */\n      dup4\n        /* \"#utility.yul\":6586:6600   */\n      add\n        /* \"#utility.yul\":6582:6610   */\n      and\n        /* \"#utility.yul\":6572:6610   */\n      swap1\n      pop\n        /* \"#utility.yul\":6514:6616   */\n      swap2\n      swap1\n      pop\n      jump\t// out\n        /* \"#utility.yul\":6622:6744   */\n    tag_73:\n        /* \"#utility.yul\":6695:6719   */\n      tag_144\n        /* \"#utility.yul\":6713:6718   */\n      dup2\n        /* \"#utility.yul\":6695:6719   */\n      tag_104\n      jump\t// in\n    tag_144:\n        /* \"#utility.yul\":6688:6693   */\n      dup2\n        /* \"#utility.yul\":6685:6720   */\n      eq\n        /* \"#utility.yul\":6675:6738   */\n      tag_145\n      jumpi\n        /* \"#utility.yul\":6734:6735   */\n      0x00\n        /* \"#utility.yul\":6731:6732   */\n      dup1\n        /* \"#utility.yul\":6724:6736   */\n      revert\n        /* \"#utility.yul\":6675:6738   */\n    tag_145:\n        /* \"#utility.yul\":6622:6744   */\n      pop\n      jump\t// out\n\n    auxdata: 0xa2646970667358221220e0ef96315000135a5a2dd38807a95241afb792d36079cf16d65f6446e503490a64736f6c63430008070033\n}\n",
				"bytecode": {
					"linkReferences": {},
					"object": "608060405234801561001057600080fd5b506107c2806100206000396000f3fe608060405234801561001057600080fd5b50600436106100415760003560e01c80631660274e146100465780632b59d1fc1461006257806370f05f971461006c575b600080fd5b610060600480360381019061005b9190610485565b61008a565b005b61006a61010d565b005b610074610178565b60405161008191906105af565b60405180910390f35b60008060003373ffffffffffffffffffffffffffffffffffffffff1673ffffffffffffffffffffffffffffffffffffffff1681526020019081526020016000209050838160000181905550828160010190805190602001906100ed9291906102fc565b50818160020190805190602001906101069291906102fc565b5050505050565b6000803373ffffffffffffffffffffffffffffffffffffffff1673ffffffffffffffffffffffffffffffffffffffff1681526020019081526020016000206000808201600090556001820160006101649190610382565b6002820160006101749190610382565b5050565b6101806103c2565b6000803373ffffffffffffffffffffffffffffffffffffffff1673ffffffffffffffffffffffffffffffffffffffff168152602001908152602001600020604051806060016040529081600082015481526020016001820180546101e39061068f565b80601f016020809104026020016040519081016040528092919081815260200182805461020f9061068f565b801561025c5780601f106102315761010080835404028352916020019161025c565b820191906000526020600020905b81548152906001019060200180831161023f57829003601f168201915b505050505081526020016002820180546102759061068f565b80601f01602080910402602001604051908101604052809291908181526020018280546102a19061068f565b80156102ee5780601f106102c3576101008083540402835291602001916102ee565b820191906000526020600020905b8154815290600101906020018083116102d157829003601f168201915b505050505081525050905090565b8280546103089061068f565b90600052602060002090601f01602090048101928261032a5760008555610371565b82601f1061034357805160ff1916838001178555610371565b82800160010185558215610371579182015b82811115610370578251825591602001919060010190610355565b5b50905061037e91906103e3565b5090565b50805461038e9061068f565b6000825580601f106103a057506103bf565b601f0160209004906000526020600020908101906103be91906103e3565b5b50565b60405180606001604052806000815260200160608152602001606081525090565b5b808211156103fc5760008160009055506001016103e4565b5090565b600061041361040e846105f6565b6105d1565b90508281526020810184848401111561042f5761042e610755565b5b61043a84828561064d565b509392505050565b600082601f83011261045757610456610750565b5b8135610467848260208601610400565b91505092915050565b60008135905061047f81610775565b92915050565b60008060006060848603121561049e5761049d61075f565b5b60006104ac86828701610470565b935050602084013567ffffffffffffffff8111156104cd576104cc61075a565b5b6104d986828701610442565b925050604084013567ffffffffffffffff8111156104fa576104f961075a565b5b61050686828701610442565b9150509250925092565b600061051b82610627565b6105258185610632565b935061053581856020860161065c565b61053e81610764565b840191505092915050565b600060608301600083015161056160008601826105a0565b50602083015184820360208601526105798282610510565b915050604083015184820360408601526105938282610510565b9150508091505092915050565b6105a981610643565b82525050565b600060208201905081810360008301526105c98184610549565b905092915050565b60006105db6105ec565b90506105e782826106c1565b919050565b6000604051905090565b600067ffffffffffffffff82111561061157610610610721565b5b61061a82610764565b9050602081019050919050565b600081519050919050565b600082825260208201905092915050565b6000819050919050565b82818337600083830152505050565b60005b8381101561067a57808201518184015260208101905061065f565b83811115610689576000848401525b50505050565b600060028204905060018216806106a757607f821691505b602082108114156106bb576106ba6106f2565b5b50919050565b6106ca82610764565b810181811067ffffffffffffffff821117156106e9576106e8610721565b5b80604052505050565b7f4e487b7100000000000000000000000000000000000000000000000000000000600052602260045260246000fd5b7f4e487b7100000000000000000000000000000000000000000000000000000000600052604160045260246000fd5b600080fd5b600080fd5b600080fd5b600080fd5b6000601f19601f8301169050919050565b61077e81610643565b811461078957600080fd5b5056fea2646970667358221220e0ef96315000135a5a2dd38807a95241afb792d36079cf16d65f6446e503490a64736f6c63430008070033",
					"opcodes": "PUSH1 0x80 PUSH1 0x40 MSTORE CALLVALUE DUP1 ISZERO PUSH2 0x10 JUMPI PUSH1 0x0 DUP1 REVERT JUMPDEST POP PUSH2 0x7C2 DUP1 PUSH2 0x20 PUSH1 0x0 CODECOPY PUSH1 0x0 RETURN INVALID PUSH1 0x80 PUSH1 0x40 MSTORE CALLVALUE DUP1 ISZERO PUSH2 0x10 JUMPI PUSH1 0x0 DUP1 REVERT JUMPDEST POP PUSH1 0x4 CALLDATASIZE LT PUSH2 0x41 JUMPI PUSH1 0x0 CALLDATALOAD PUSH1 0xE0 SHR DUP1 PUSH4 0x1660274E EQ PUSH2 0x46 JUMPI DUP1 PUSH4 0x2B59D1FC EQ PUSH2 0x62 JUMPI DUP1 PUSH4 0x70F05F97 EQ PUSH2 0x6C JUMPI JUMPDEST PUSH1 0x0 DUP1 REVERT JUMPDEST PUSH2 0x60 PUSH1 0x4 DUP1 CALLDATASIZE SUB DUP2 ADD SWAP1 PUSH2 0x5B SWAP2 SWAP1 PUSH2 0x485 JUMP JUMPDEST PUSH2 0x8A JUMP JUMPDEST STOP JUMPDEST PUSH2 0x6A PUSH2 0x10D JUMP JUMPDEST STOP JUMPDEST PUSH2 0x74 PUSH2 0x178 JUMP JUMPDEST PUSH1 0x40 MLOAD PUSH2 0x81 SWAP2 SWAP1 PUSH2 0x5AF JUMP JUMPDEST PUSH1 0x40 MLOAD DUP1 SWAP2 SUB SWAP1 RETURN JUMPDEST PUSH1 0x0 DUP1 PUSH1 0x0 CALLER PUSH20 0xFFFFFFFFFFFFFFFFFFFFFFFFFFFFFFFFFFFFFFFF AND PUSH20 0xFFFFFFFFFFFFFFFFFFFFFFFFFFFFFFFFFFFFFFFF AND DUP2 MSTORE PUSH1 0x20 ADD SWAP1 DUP2 MSTORE PUSH1 0x20 ADD PUSH1 0x0 KECCAK256 SWAP1 POP DUP4 DUP2 PUSH1 0x0 ADD DUP2 SWAP1 SSTORE POP DUP3 DUP2 PUSH1 0x1 ADD SWAP1 DUP1 MLOAD SWAP1 PUSH1 0x20 ADD SWAP1 PUSH2 0xED SWAP3 SWAP2 SWAP1 PUSH2 0x2FC JUMP JUMPDEST POP DUP2 DUP2 PUSH1 0x2 ADD SWAP1 DUP1 MLOAD SWAP1 PUSH1 0x20 ADD SWAP1 PUSH2 0x106 SWAP3 SWAP2 SWAP1 PUSH2 0x2FC JUMP JUMPDEST POP POP POP POP POP JUMP JUMPDEST PUSH1 0x0 DUP1 CALLER PUSH20 0xFFFFFFFFFFFFFFFFFFFFFFFFFFFFFFFFFFFFFFFF AND PUSH20 0xFFFFFFFFFFFFFFFFFFFFFFFFFFFFFFFFFFFFFFFF AND DUP2 MSTORE PUSH1 0x20 ADD SWAP1 DUP2 MSTORE PUSH1 0x20 ADD PUSH1 0x0 KECCAK256 PUSH1 0x0 DUP1 DUP3 ADD PUSH1 0x0 SWAP1 SSTORE PUSH1 0x1 DUP3 ADD PUSH1 0x0 PUSH2 0x164 SWAP2 SWAP1 PUSH2 0x382 JUMP JUMPDEST PUSH1 0x2 DUP3 ADD PUSH1 0x0 PUSH2 0x174 SWAP2 SWAP1 PUSH2 0x382 JUMP JUMPDEST POP POP JUMP JUMPDEST PUSH2 0x180 PUSH2 0x3C2 JUMP JUMPDEST PUSH1 0x0 DUP1 CALLER PUSH20 0xFFFFFFFFFFFFFFFFFFFFFFFFFFFFFFFFFFFFFFFF AND PUSH20 0xFFFFFFFFFFFFFFFFFFFFFFFFFFFFFFFFFFFFFFFF AND DUP2 MSTORE PUSH1 0x20 ADD SWAP1 DUP2 MSTORE PUSH1 0x20 ADD PUSH1 0x0 KECCAK256 PUSH1 0x40 MLOAD DUP1 PUSH1 0x60 ADD PUSH1 0x40 MSTORE SWAP1 DUP2 PUSH1 0x0 DUP3 ADD SLOAD DUP2 MSTORE PUSH1 0x20 ADD PUSH1 0x1 DUP3 ADD DUP1 SLOAD PUSH2 0x1E3 SWAP1 PUSH2 0x68F JUMP JUMPDEST DUP1 PUSH1 0x1F ADD PUSH1 0x20 DUP1 SWAP2 DIV MUL PUSH1 0x20 ADD PUSH1 0x40 MLOAD SWAP1 DUP2 ADD PUSH1 0x40 MSTORE DUP1 SWAP3 SWAP2 SWAP1 DUP2 DUP2 MSTORE PUSH1 0x20 ADD DUP3 DUP1 SLOAD PUSH2 0x20F SWAP1 PUSH2 0x68F JUMP JUMPDEST DUP1 ISZERO PUSH2 0x25C JUMPI DUP1 PUSH1 0x1F LT PUSH2 0x231 JUMPI PUSH2 0x100 DUP1 DUP4 SLOAD DIV MUL DUP4 MSTORE SWAP2 PUSH1 0x20 ADD SWAP2 PUSH2 0x25C JUMP JUMPDEST DUP3 ADD SWAP2 SWAP1 PUSH1 0x0 MSTORE PUSH1 0x20 PUSH1 0x0 KECCAK256 SWAP1 JUMPDEST DUP2 SLOAD DUP2 MSTORE SWAP1 PUSH1 0x1 ADD SWAP1 PUSH1 0x20 ADD DUP1 DUP4 GT PUSH2 0x23F JUMPI DUP3 SWAP1 SUB PUSH1 0x1F AND DUP3 ADD SWAP2 JUMPDEST POP POP POP POP POP DUP2 MSTORE PUSH1 0x20 ADD PUSH1 0x2 DUP3 ADD DUP1 SLOAD PUSH2 0x275 SWAP1 PUSH2 0x68F JUMP JUMPDEST DUP1 PUSH1 0x1F ADD PUSH1 0x20 DUP1 SWAP2 DIV MUL PUSH1 0x20 ADD PUSH1 0x40 MLOAD SWAP1 DUP2 ADD PUSH1 0x40 MSTORE DUP1 SWAP3 SWAP2 SWAP1 DUP2 DUP2 MSTORE PUSH1 0x20 ADD DUP3 DUP1 SLOAD PUSH2 0x2A1 SWAP1 PUSH2 0x68F JUMP JUMPDEST DUP1 ISZERO PUSH2 0x2EE JUMPI DUP1 PUSH1 0x1F LT PUSH2 0x2C3 JUMPI PUSH2 0x100 DUP1 DUP4 SLOAD DIV MUL DUP4 MSTORE SWAP2 PUSH1 0x20 ADD SWAP2 PUSH2 0x2EE JUMP JUMPDEST DUP3 ADD SWAP2 SWAP1 PUSH1 0x0 MSTORE PUSH1 0x20 PUSH1 0x0 KECCAK256 SWAP1 JUMPDEST DUP2 SLOAD DUP2 MSTORE SWAP1 PUSH1 0x1 ADD SWAP1 PUSH1 0x20 ADD DUP1 DUP4 GT PUSH2 0x2D1 JUMPI DUP3 SWAP1 SUB PUSH1 0x1F AND DUP3 ADD SWAP2 JUMPDEST POP POP POP POP POP DUP2 MSTORE POP POP SWAP1 POP SWAP1 JUMP JUMPDEST DUP3 DUP1 SLOAD PUSH2 0x308 SWAP1 PUSH2 0x68F JUMP JUMPDEST SWAP1 PUSH1 0x0 MSTORE PUSH1 0x20 PUSH1 0x0 KECCAK256 SWAP1 PUSH1 0x1F ADD PUSH1 0x20 SWAP1 DIV DUP2 ADD SWAP3 DUP3 PUSH2 0x32A JUMPI PUSH1 0x0 DUP6 SSTORE PUSH2 0x371 JUMP JUMPDEST DUP3 PUSH1 0x1F LT PUSH2 0x343 JUMPI DUP1 MLOAD PUSH1 0xFF NOT AND DUP4 DUP1 ADD OR DUP6 SSTORE PUSH2 0x371 JUMP JUMPDEST DUP3 DUP1 ADD PUSH1 0x1 ADD DUP6 SSTORE DUP3 ISZERO PUSH2 0x371 JUMPI SWAP2 DUP3 ADD JUMPDEST DUP3 DUP2 GT ISZERO PUSH2 0x370 JUMPI DUP3 MLOAD DUP3 SSTORE SWAP2 PUSH1 0x20 ADD SWAP2 SWAP1 PUSH1 0x1 ADD SWAP1 PUSH2 0x355 JUMP JUMPDEST JUMPDEST POP SWAP1 POP PUSH2 0x37E SWAP2 SWAP1 PUSH2 0x3E3 JUMP JUMPDEST POP SWAP1 JUMP JUMPDEST POP DUP1 SLOAD PUSH2 0x38E SWAP1 PUSH2 0x68F JUMP JUMPDEST PUSH1 0x0 DUP3 SSTORE DUP1 PUSH1 0x1F LT PUSH2 0x3A0 JUMPI POP PUSH2 0x3BF JUMP JUMPDEST PUSH1 0x1F ADD PUSH1 0x20 SWAP1 DIV SWAP1 PUSH1 0x0 MSTORE PUSH1 0x20 PUSH1 0x0 KECCAK256 SWAP1 DUP2 ADD SWAP1 PUSH2 0x3BE SWAP2 SWAP1 PUSH2 0x3E3 JUMP JUMPDEST JUMPDEST POP JUMP JUMPDEST PUSH1 0x40 MLOAD DUP1 PUSH1 0x60 ADD PUSH1 0x40 MSTORE DUP1 PUSH1 0x0 DUP2 MSTORE PUSH1 0x20 ADD PUSH1 0x60 DUP2 MSTORE PUSH1 0x20 ADD PUSH1 0x60 DUP2 MSTORE POP SWAP1 JUMP JUMPDEST JUMPDEST DUP1 DUP3 GT ISZERO PUSH2 0x3FC JUMPI PUSH1 0x0 DUP2 PUSH1 0x0 SWAP1 SSTORE POP PUSH1 0x1 ADD PUSH2 0x3E4 JUMP JUMPDEST POP SWAP1 JUMP JUMPDEST PUSH1 0x0 PUSH2 0x413 PUSH2 0x40E DUP5 PUSH2 0x5F6 JUMP JUMPDEST PUSH2 0x5D1 JUMP JUMPDEST SWAP1 POP DUP3 DUP2 MSTORE PUSH1 0x20 DUP2 ADD DUP5 DUP5 DUP5 ADD GT ISZERO PUSH2 0x42F JUMPI PUSH2 0x42E PUSH2 0x755 JUMP JUMPDEST JUMPDEST PUSH2 0x43A DUP5 DUP3 DUP6 PUSH2 0x64D JUMP JUMPDEST POP SWAP4 SWAP3 POP POP POP JUMP JUMPDEST PUSH1 0x0 DUP3 PUSH1 0x1F DUP4 ADD SLT PUSH2 0x457 JUMPI PUSH2 0x456 PUSH2 0x750 JUMP JUMPDEST JUMPDEST DUP2 CALLDATALOAD PUSH2 0x467 DUP5 DUP3 PUSH1 0x20 DUP7 ADD PUSH2 0x400 JUMP JUMPDEST SWAP2 POP POP SWAP3 SWAP2 POP POP JUMP JUMPDEST PUSH1 0x0 DUP2 CALLDATALOAD SWAP1 POP PUSH2 0x47F DUP2 PUSH2 0x775 JUMP JUMPDEST SWAP3 SWAP2 POP POP JUMP JUMPDEST PUSH1 0x0 DUP1 PUSH1 0x0 PUSH1 0x60 DUP5 DUP7 SUB SLT ISZERO PUSH2 0x49E JUMPI PUSH2 0x49D PUSH2 0x75F JUMP JUMPDEST JUMPDEST PUSH1 0x0 PUSH2 0x4AC DUP7 DUP3 DUP8 ADD PUSH2 0x470 JUMP JUMPDEST SWAP4 POP POP PUSH1 0x20 DUP5 ADD CALLDATALOAD PUSH8 0xFFFFFFFFFFFFFFFF DUP2 GT ISZERO PUSH2 0x4CD JUMPI PUSH2 0x4CC PUSH2 0x75A JUMP JUMPDEST JUMPDEST PUSH2 0x4D9 DUP7 DUP3 DUP8 ADD PUSH2 0x442 JUMP JUMPDEST SWAP3 POP POP PUSH1 0x40 DUP5 ADD CALLDATALOAD PUSH8 0xFFFFFFFFFFFFFFFF DUP2 GT ISZERO PUSH2 0x4FA JUMPI PUSH2 0x4F9 PUSH2 0x75A JUMP JUMPDEST JUMPDEST PUSH2 0x506 DUP7 DUP3 DUP8 ADD PUSH2 0x442 JUMP JUMPDEST SWAP2 POP POP SWAP3 POP SWAP3 POP SWAP3 JUMP JUMPDEST PUSH1 0x0 PUSH2 0x51B DUP3 PUSH2 0x627 JUMP JUMPDEST PUSH2 0x525 DUP2 DUP6 PUSH2 0x632 JUMP JUMPDEST SWAP4 POP PUSH2 0x535 DUP2 DUP6 PUSH1 0x20 DUP7 ADD PUSH2 0x65C JUMP JUMPDEST PUSH2 0x53E DUP2 PUSH2 0x764 JUMP JUMPDEST DUP5 ADD SWAP2 POP POP SWAP3 SWAP2 POP POP JUMP JUMPDEST PUSH1 0x0 PUSH1 0x60 DUP4 ADD PUSH1 0x0 DUP4 ADD MLOAD PUSH2 0x561 PUSH1 0x0 DUP7 ADD DUP3 PUSH2 0x5A0 JUMP JUMPDEST POP PUSH1 0x20 DUP4 ADD MLOAD DUP5 DUP3 SUB PUSH1 0x20 DUP7 ADD MSTORE PUSH2 0x579 DUP3 DUP3 PUSH2 0x510 JUMP JUMPDEST SWAP2 POP POP PUSH1 0x40 DUP4 ADD MLOAD DUP5 DUP3 SUB PUSH1 0x40 DUP7 ADD MSTORE PUSH2 0x593 DUP3 DUP3 PUSH2 0x510 JUMP JUMPDEST SWAP2 POP POP DUP1 SWAP2 POP POP SWAP3 SWAP2 POP POP JUMP JUMPDEST PUSH2 0x5A9 DUP2 PUSH2 0x643 JUMP JUMPDEST DUP3 MSTORE POP POP JUMP JUMPDEST PUSH1 0x0 PUSH1 0x20 DUP3 ADD SWAP1 POP DUP2 DUP2 SUB PUSH1 0x0 DUP4 ADD MSTORE PUSH2 0x5C9 DUP2 DUP5 PUSH2 0x549 JUMP JUMPDEST SWAP1 POP SWAP3 SWAP2 POP POP JUMP JUMPDEST PUSH1 0x0 PUSH2 0x5DB PUSH2 0x5EC JUMP JUMPDEST SWAP1 POP PUSH2 0x5E7 DUP3 DUP3 PUSH2 0x6C1 JUMP JUMPDEST SWAP2 SWAP1 POP JUMP JUMPDEST PUSH1 0x0 PUSH1 0x40 MLOAD SWAP1 POP SWAP1 JUMP JUMPDEST PUSH1 0x0 PUSH8 0xFFFFFFFFFFFFFFFF DUP3 GT ISZERO PUSH2 0x611 JUMPI PUSH2 0x610 PUSH2 0x721 JUMP JUMPDEST JUMPDEST PUSH2 0x61A DUP3 PUSH2 0x764 JUMP JUMPDEST SWAP1 POP PUSH1 0x20 DUP2 ADD SWAP1 POP SWAP2 SWAP1 POP JUMP JUMPDEST PUSH1 0x0 DUP2 MLOAD SWAP1 POP SWAP2 SWAP1 POP JUMP JUMPDEST PUSH1 0x0 DUP3 DUP3 MSTORE PUSH1 0x20 DUP3 ADD SWAP1 POP SWAP3 SWAP2 POP POP JUMP JUMPDEST PUSH1 0x0 DUP2 SWAP1 POP SWAP2 SWAP1 POP JUMP JUMPDEST DUP3 DUP2 DUP4 CALLDATACOPY PUSH1 0x0 DUP4 DUP4 ADD MSTORE POP POP POP JUMP JUMPDEST PUSH1 0x0 JUMPDEST DUP4 DUP2 LT ISZERO PUSH2 0x67A JUMPI DUP1 DUP3 ADD MLOAD DUP2 DUP5 ADD MSTORE PUSH1 0x20 DUP2 ADD SWAP1 POP PUSH2 0x65F JUMP JUMPDEST DUP4 DUP2 GT ISZERO PUSH2 0x689 JUMPI PUSH1 0x0 DUP5 DUP5 ADD MSTORE JUMPDEST POP POP POP POP JUMP JUMPDEST PUSH1 0x0 PUSH1 0x2 DUP3 DIV SWAP1 POP PUSH1 0x1 DUP3 AND DUP1 PUSH2 0x6A7 JUMPI PUSH1 0x7F DUP3 AND SWAP2 POP JUMPDEST PUSH1 0x20 DUP3 LT DUP2 EQ ISZERO PUSH2 0x6BB JUMPI PUSH2 0x6BA PUSH2 0x6F2 JUMP JUMPDEST JUMPDEST POP SWAP2 SWAP1 POP JUMP JUMPDEST PUSH2 0x6CA DUP3 PUSH2 0x764 JUMP JUMPDEST DUP2 ADD DUP2 DUP2 LT PUSH8 0xFFFFFFFFFFFFFFFF DUP3 GT OR ISZERO PUSH2 0x6E9 JUMPI PUSH2 0x6E8 PUSH2 0x721 JUMP JUMPDEST JUMPDEST DUP1 PUSH1 0x40 MSTORE POP POP POP JUMP JUMPDEST PUSH32 0x4E487B7100000000000000000000000000000000000000000000000000000000 PUSH1 0x0 MSTORE PUSH1 0x22 PUSH1 0x4 MSTORE PUSH1 0x24 PUSH1 0x0 REVERT JUMPDEST PUSH32 0x4E487B7100000000000000000000000000000000000000000000000000000000 PUSH1 0x0 MSTORE PUSH1 0x41 PUSH1 0x4 MSTORE PUSH1 0x24 PUSH1 0x0 REVERT JUMPDEST PUSH1 0x0 DUP1 REVERT JUMPDEST PUSH1 0x0 DUP1 REVERT JUMPDEST PUSH1 0x0 DUP1 REVERT JUMPDEST PUSH1 0x0 DUP1 REVERT JUMPDEST PUSH1 0x0 PUSH1 0x1F NOT PUSH1 0x1F DUP4 ADD AND SWAP1 POP SWAP2 SWAP1 POP JUMP JUMPDEST PUSH2 0x77E DUP2 PUSH2 0x643 JUMP JUMPDEST DUP2 EQ PUSH2 0x789 JUMPI PUSH1 0x0 DUP1 REVERT JUMPDEST POP JUMP INVALID LOG2 PUSH5 0x6970667358 0x22 SLT KECCAK256 0xE0 0xEF SWAP7 BALANCE POP STOP SGT GAS GAS 0x2D 0xD3 DUP9 SMOD 0xA9 MSTORE COINBASE 0xAF 0xB7 SWAP3 0xD3 PUSH1 0x79 0xCF AND 0xD6 0x5F PUSH5 0x46E503490A PUSH5 0x736F6C6343 STOP ADDMOD SMOD STOP CALLER "
				},
				"gasEstimates": {
					"creation": {
						"codeDepositCost": "397200",
						"executionCost": "436",
						"totalCost": "397636"
					},
					"external": {
						"borrar()": "infinite",
						"consultar()": "infinite",
						"registrar(uint256,string,string)": "infinite"
					}
				},
				"methodIdentifiers": {
					"borrar()": "2b59d1fc",
					"consultar()": "70f05f97",
					"registrar(uint256,string,string)": "1660274e"
				}
			},
			"storageLayout": {
				"storage": [
					{
						"astId": 13,
						"contract": "contracts/Fácil/UsuariosBasicos/AdministrarUsuarios.sol:AdministrarUsuarios",
						"label": "listaUsuarios",
						"offset": 0,
						"slot": "0",
						"type": "t_mapping(t_address,t_struct(Usuario)8_storage)"
					}
				],
				"types": {
					"t_address": {
						"encoding": "inplace",
						"label": "address",
						"numberOfBytes": "20"
					},
					"t_mapping(t_address,t_struct(Usuario)8_storage)": {
						"encoding": "mapping",
						"key": "t_address",
						"label": "mapping(address => struct AdministrarUsuarios.Usuario)",
						"numberOfBytes": "32",
						"value": "t_struct(Usuario)8_storage"
					},
					"t_string_storage": {
						"encoding": "bytes",
						"label": "string",
						"numberOfBytes": "32"
					},
					"t_struct(Usuario)8_storage": {
						"encoding": "inplace",
						"label": "struct AdministrarUsuarios.Usuario",
						"members": [
							{
								"astId": 3,
								"contract": "contracts/Fácil/UsuariosBasicos/AdministrarUsuarios.sol:AdministrarUsuarios",
								"label": "edad",
								"offset": 0,
								"slot": "0",
								"type": "t_uint256"
							},
							{
								"astId": 5,
								"contract": "contracts/Fácil/UsuariosBasicos/AdministrarUsuarios.sol:AdministrarUsuarios",
								"label": "nombre",
								"offset": 0,
								"slot": "1",
								"type": "t_string_storage"
							},
							{
								"astId": 7,
								"contract": "contracts/Fácil/UsuariosBasicos/AdministrarUsuarios.sol:AdministrarUsuarios",
								"label": "genero",
								"offset": 0,
								"slot": "2",
								"type": "t_string_storage"
							}
						],
						"numberOfBytes": "96"
					},
					"t_uint256": {
						"encoding": "inplace",
						"label": "uint256",
						"numberOfBytes": "32"
					}
				}
			},
			"userdoc": {
				"kind": "user",
				"methods": {},
				"version": 1
			}
		}
	}
}