{
	"contracts/Fácil/wallet/Depositar.sol": {
		"DepositarDinero": {
			"abi": [
				{
					"inputs": [
						{
							"internalType": "bytes10",
							"name": "moneda",
							"type": "bytes10"
						}
					],
					"name": "ConsultarSaldo",
					"outputs": [
						{
							"internalType": "uint256",
							"name": "",
							"type": "uint256"
						}
					],
					"stateMutability": "view",
					"type": "function"
				},
				{
					"inputs": [
						{
							"internalType": "uint256",
							"name": "cantidad",
							"type": "uint256"
						},
						{
							"internalType": "bytes10",
							"name": "moneda",
							"type": "bytes10"
						}
					],
					"name": "Depositar",
					"outputs": [],
					"stateMutability": "payable",
					"type": "function"
				},
				{
					"inputs": [
						{
							"internalType": "uint256",
							"name": "cantidad",
							"type": "uint256"
						},
						{
							"internalType": "bytes10",
							"name": "moneda",
							"type": "bytes10"
						},
						{
							"internalType": "address payable",
							"name": "wallet",
							"type": "address"
						}
					],
					"name": "RetirarSaldo",
					"outputs": [],
					"stateMutability": "nonpayable",
					"type": "function"
				}
			],
			"devdoc": {
				"kind": "dev",
				"methods": {},
				"version": 1
			},
			"evm": {
				"assembly": "    /* \"contracts/F\\xc3\\xa1cil/wallet/Depositar.sol\":57:1378  contract DepositarDinero{... */\n  mstore(0x40, 0x80)\n  callvalue\n  dup1\n  iszero\n  tag_1\n  jumpi\n  0x00\n  dup1\n  revert\ntag_1:\n  pop\n  dataSize(sub_0)\n  dup1\n  dataOffset(sub_0)\n  0x00\n  codecopy\n  0x00\n  return\nstop\n\nsub_0: assembly {\n        /* \"contracts/F\\xc3\\xa1cil/wallet/Depositar.sol\":57:1378  contract DepositarDinero{... */\n      mstore(0x40, 0x80)\n      jumpi(tag_1, lt(calldatasize, 0x04))\n      shr(0xe0, calldataload(0x00))\n      dup1\n      0x95e8629a\n      eq\n      tag_2\n      jumpi\n      dup1\n      0x9dd44066\n      eq\n      tag_3\n      jumpi\n      dup1\n      0xcd2a041f\n      eq\n      tag_4\n      jumpi\n    tag_1:\n      0x00\n      dup1\n      revert\n        /* \"contracts/F\\xc3\\xa1cil/wallet/Depositar.sol\":223:566  function Depositar(uint256 cantidad, bytes10 moneda) external payable{... */\n    tag_2:\n      tag_5\n      0x04\n      dup1\n      calldatasize\n      sub\n      dup2\n      add\n      swap1\n      tag_6\n      swap2\n      swap1\n      tag_7\n      jump\t// in\n    tag_6:\n      tag_8\n      jump\t// in\n    tag_5:\n      stop\n        /* \"contracts/F\\xc3\\xa1cil/wallet/Depositar.sol\":1249:1376  function ConsultarSaldo(bytes10 moneda) external view returns(uint256){... */\n    tag_3:\n      callvalue\n      dup1\n      iszero\n      tag_9\n      jumpi\n      0x00\n      dup1\n      revert\n    tag_9:\n      pop\n      tag_10\n      0x04\n      dup1\n      calldatasize\n      sub\n      dup2\n      add\n      swap1\n      tag_11\n      swap2\n      swap1\n      tag_12\n      jump\t// in\n    tag_11:\n      tag_13\n      jump\t// in\n    tag_10:\n      mload(0x40)\n      tag_14\n      swap2\n      swap1\n      tag_15\n      jump\t// in\n    tag_14:\n      mload(0x40)\n      dup1\n      swap2\n      sub\n      swap1\n      return\n        /* \"contracts/F\\xc3\\xa1cil/wallet/Depositar.sol\":711:1243  function RetirarSaldo(uint256 cantidad, bytes10 moneda,address payable wallet) external{... */\n    tag_4:\n      callvalue\n      dup1\n      iszero\n      tag_16\n      jumpi\n      0x00\n      dup1\n      revert\n    tag_16:\n      pop\n      tag_17\n      0x04\n      dup1\n      calldatasize\n      sub\n      dup2\n      add\n      swap1\n      tag_18\n      swap2\n      swap1\n      tag_19\n      jump\t// in\n    tag_18:\n      tag_20\n      jump\t// in\n    tag_17:\n      stop\n        /* \"contracts/F\\xc3\\xa1cil/wallet/Depositar.sol\":223:566  function Depositar(uint256 cantidad, bytes10 moneda) external payable{... */\n    tag_8:\n        /* \"contracts/F\\xc3\\xa1cil/wallet/Depositar.sol\":323:331  cantidad */\n      dup2\n        /* \"contracts/F\\xc3\\xa1cil/wallet/Depositar.sol\":310:319  msg.value */\n      callvalue\n        /* \"contracts/F\\xc3\\xa1cil/wallet/Depositar.sol\":310:331  msg.value == cantidad */\n      eq\n        /* \"contracts/F\\xc3\\xa1cil/wallet/Depositar.sol\":302:383  require(msg.value == cantidad, \"No estas ingresando la misma cantidad de dinero\") */\n      tag_22\n      jumpi\n      mload(0x40)\n      0x08c379a000000000000000000000000000000000000000000000000000000000\n      dup2\n      mstore\n      0x04\n      add\n      tag_23\n      swap1\n      tag_24\n      jump\t// in\n    tag_23:\n      mload(0x40)\n      dup1\n      swap2\n      sub\n      swap1\n      revert\n    tag_22:\n        /* \"contracts/F\\xc3\\xa1cil/wallet/Depositar.sol\":393:414  Cuenta storage cuenta */\n      0x00\n        /* \"contracts/F\\xc3\\xa1cil/wallet/Depositar.sol\":417:424  cuentas */\n      dup1\n        /* \"contracts/F\\xc3\\xa1cil/wallet/Depositar.sol\":417:436  cuentas[msg.sender] */\n      0x00\n        /* \"contracts/F\\xc3\\xa1cil/wallet/Depositar.sol\":425:435  msg.sender */\n      caller\n        /* \"contracts/F\\xc3\\xa1cil/wallet/Depositar.sol\":417:436  cuentas[msg.sender] */\n      0xffffffffffffffffffffffffffffffffffffffff\n      and\n      0xffffffffffffffffffffffffffffffffffffffff\n      and\n      dup2\n      mstore\n      0x20\n      add\n      swap1\n      dup2\n      mstore\n      0x20\n      add\n      0x00\n      keccak256\n        /* \"contracts/F\\xc3\\xa1cil/wallet/Depositar.sol\":417:444  cuentas[msg.sender][moneda] */\n      0x00\n        /* \"contracts/F\\xc3\\xa1cil/wallet/Depositar.sol\":437:443  moneda */\n      dup4\n        /* \"contracts/F\\xc3\\xa1cil/wallet/Depositar.sol\":417:444  cuentas[msg.sender][moneda] */\n      not(0xffffffffffffffffffffffffffffffffffffffffffff)\n      and\n      not(0xffffffffffffffffffffffffffffffffffffffffffff)\n      and\n      dup2\n      mstore\n      0x20\n      add\n      swap1\n      dup2\n      mstore\n      0x20\n      add\n      0x00\n      keccak256\n        /* \"contracts/F\\xc3\\xa1cil/wallet/Depositar.sol\":393:444  Cuenta storage cuenta = cuentas[msg.sender][moneda] */\n      swap1\n      pop\n        /* \"contracts/F\\xc3\\xa1cil/wallet/Depositar.sol\":470:478  cantidad */\n      dup3\n        /* \"contracts/F\\xc3\\xa1cil/wallet/Depositar.sol\":454:460  cuenta */\n      dup2\n        /* \"contracts/F\\xc3\\xa1cil/wallet/Depositar.sol\":454:466  cuenta.saldo */\n      0x00\n      add\n      0x00\n        /* \"contracts/F\\xc3\\xa1cil/wallet/Depositar.sol\":454:478  cuenta.saldo += cantidad */\n      dup3\n      dup3\n      sload\n      tag_25\n      swap2\n      swap1\n      tag_26\n      jump\t// in\n    tag_25:\n      swap3\n      pop\n      pop\n      dup2\n      swap1\n      sstore\n      pop\n        /* \"contracts/F\\xc3\\xa1cil/wallet/Depositar.sol\":492:511  cuenta.moneda == \"\" */\n      0x00\n        /* \"contracts/F\\xc3\\xa1cil/wallet/Depositar.sol\":492:498  cuenta */\n      dup2\n        /* \"contracts/F\\xc3\\xa1cil/wallet/Depositar.sol\":492:505  cuenta.moneda */\n      0x01\n      add\n      0x00\n      swap1\n      sload\n      swap1\n      0x0100\n      exp\n      swap1\n      div\n      0xb0\n      shl\n        /* \"contracts/F\\xc3\\xa1cil/wallet/Depositar.sol\":492:511  cuenta.moneda == \"\" */\n      not(0xffffffffffffffffffffffffffffffffffffffffffff)\n      and\n      eq\n        /* \"contracts/F\\xc3\\xa1cil/wallet/Depositar.sol\":489:559  if(cuenta.moneda == \"\"){... */\n      iszero\n      tag_27\n      jumpi\n        /* \"contracts/F\\xc3\\xa1cil/wallet/Depositar.sol\":542:548  moneda */\n      dup2\n        /* \"contracts/F\\xc3\\xa1cil/wallet/Depositar.sol\":526:532  cuenta */\n      dup2\n        /* \"contracts/F\\xc3\\xa1cil/wallet/Depositar.sol\":526:539  cuenta.moneda */\n      0x01\n      add\n      0x00\n        /* \"contracts/F\\xc3\\xa1cil/wallet/Depositar.sol\":526:548  cuenta.moneda = moneda */\n      0x0100\n      exp\n      dup2\n      sload\n      dup2\n      0xffffffffffffffffffff\n      mul\n      not\n      and\n      swap1\n      dup4\n      0xb0\n      shr\n      mul\n      or\n      swap1\n      sstore\n      pop\n        /* \"contracts/F\\xc3\\xa1cil/wallet/Depositar.sol\":489:559  if(cuenta.moneda == \"\"){... */\n    tag_27:\n        /* \"contracts/F\\xc3\\xa1cil/wallet/Depositar.sol\":292:566  {... */\n      pop\n        /* \"contracts/F\\xc3\\xa1cil/wallet/Depositar.sol\":223:566  function Depositar(uint256 cantidad, bytes10 moneda) external payable{... */\n      pop\n      pop\n      jump\t// out\n        /* \"contracts/F\\xc3\\xa1cil/wallet/Depositar.sol\":1249:1376  function ConsultarSaldo(bytes10 moneda) external view returns(uint256){... */\n    tag_13:\n        /* \"contracts/F\\xc3\\xa1cil/wallet/Depositar.sol\":1311:1318  uint256 */\n      0x00\n        /* \"contracts/F\\xc3\\xa1cil/wallet/Depositar.sol\":1336:1343  cuentas */\n      dup1\n        /* \"contracts/F\\xc3\\xa1cil/wallet/Depositar.sol\":1336:1355  cuentas[msg.sender] */\n      0x00\n        /* \"contracts/F\\xc3\\xa1cil/wallet/Depositar.sol\":1344:1354  msg.sender */\n      caller\n        /* \"contracts/F\\xc3\\xa1cil/wallet/Depositar.sol\":1336:1355  cuentas[msg.sender] */\n      0xffffffffffffffffffffffffffffffffffffffff\n      and\n      0xffffffffffffffffffffffffffffffffffffffff\n      and\n      dup2\n      mstore\n      0x20\n      add\n      swap1\n      dup2\n      mstore\n      0x20\n      add\n      0x00\n      keccak256\n        /* \"contracts/F\\xc3\\xa1cil/wallet/Depositar.sol\":1336:1363  cuentas[msg.sender][moneda] */\n      0x00\n        /* \"contracts/F\\xc3\\xa1cil/wallet/Depositar.sol\":1356:1362  moneda */\n      dup4\n        /* \"contracts/F\\xc3\\xa1cil/wallet/Depositar.sol\":1336:1363  cuentas[msg.sender][moneda] */\n      not(0xffffffffffffffffffffffffffffffffffffffffffff)\n      and\n      not(0xffffffffffffffffffffffffffffffffffffffffffff)\n      and\n      dup2\n      mstore\n      0x20\n      add\n      swap1\n      dup2\n      mstore\n      0x20\n      add\n      0x00\n      keccak256\n        /* \"contracts/F\\xc3\\xa1cil/wallet/Depositar.sol\":1336:1369  cuentas[msg.sender][moneda].saldo */\n      0x00\n      add\n      sload\n        /* \"contracts/F\\xc3\\xa1cil/wallet/Depositar.sol\":1329:1369  return cuentas[msg.sender][moneda].saldo */\n      swap1\n      pop\n        /* \"contracts/F\\xc3\\xa1cil/wallet/Depositar.sol\":1249:1376  function ConsultarSaldo(bytes10 moneda) external view returns(uint256){... */\n      swap2\n      swap1\n      pop\n      jump\t// out\n        /* \"contracts/F\\xc3\\xa1cil/wallet/Depositar.sol\":711:1243  function RetirarSaldo(uint256 cantidad, bytes10 moneda,address payable wallet) external{... */\n    tag_20:\n        /* \"contracts/F\\xc3\\xa1cil/wallet/Depositar.sol\":808:829  Cuenta storage cuenta */\n      0x00\n        /* \"contracts/F\\xc3\\xa1cil/wallet/Depositar.sol\":832:839  cuentas */\n      dup1\n        /* \"contracts/F\\xc3\\xa1cil/wallet/Depositar.sol\":832:851  cuentas[msg.sender] */\n      0x00\n        /* \"contracts/F\\xc3\\xa1cil/wallet/Depositar.sol\":840:850  msg.sender */\n      caller\n        /* \"contracts/F\\xc3\\xa1cil/wallet/Depositar.sol\":832:851  cuentas[msg.sender] */\n      0xffffffffffffffffffffffffffffffffffffffff\n      and\n      0xffffffffffffffffffffffffffffffffffffffff\n      and\n      dup2\n      mstore\n      0x20\n      add\n      swap1\n      dup2\n      mstore\n      0x20\n      add\n      0x00\n      keccak256\n        /* \"contracts/F\\xc3\\xa1cil/wallet/Depositar.sol\":832:859  cuentas[msg.sender][moneda] */\n      0x00\n        /* \"contracts/F\\xc3\\xa1cil/wallet/Depositar.sol\":852:858  moneda */\n      dup5\n        /* \"contracts/F\\xc3\\xa1cil/wallet/Depositar.sol\":832:859  cuentas[msg.sender][moneda] */\n      not(0xffffffffffffffffffffffffffffffffffffffffffff)\n      and\n      not(0xffffffffffffffffffffffffffffffffffffffffffff)\n      and\n      dup2\n      mstore\n      0x20\n      add\n      swap1\n      dup2\n      mstore\n      0x20\n      add\n      0x00\n      keccak256\n        /* \"contracts/F\\xc3\\xa1cil/wallet/Depositar.sol\":808:859  Cuenta storage cuenta = cuentas[msg.sender][moneda] */\n      swap1\n      pop\n        /* \"contracts/F\\xc3\\xa1cil/wallet/Depositar.sol\":893:901  cantidad */\n      dup4\n        /* \"contracts/F\\xc3\\xa1cil/wallet/Depositar.sol\":877:883  cuenta */\n      dup2\n        /* \"contracts/F\\xc3\\xa1cil/wallet/Depositar.sol\":877:889  cuenta.saldo */\n      0x00\n      add\n      sload\n        /* \"contracts/F\\xc3\\xa1cil/wallet/Depositar.sol\":877:901  cuenta.saldo >= cantidad */\n      lt\n      iszero\n        /* \"contracts/F\\xc3\\xa1cil/wallet/Depositar.sol\":869:937  require(cuenta.saldo >= cantidad, \"Saldo insuficiente en la cuenta\") */\n      tag_30\n      jumpi\n      mload(0x40)\n      0x08c379a000000000000000000000000000000000000000000000000000000000\n      dup2\n      mstore\n      0x04\n      add\n      tag_31\n      swap1\n      tag_32\n      jump\t// in\n    tag_31:\n      mload(0x40)\n      dup1\n      swap2\n      sub\n      swap1\n      revert\n    tag_30:\n        /* \"contracts/F\\xc3\\xa1cil/wallet/Depositar.sol\":948:960  bool success */\n      0x00\n        /* \"contracts/F\\xc3\\xa1cil/wallet/Depositar.sol\":965:971  wallet */\n      dup3\n        /* \"contracts/F\\xc3\\xa1cil/wallet/Depositar.sol\":965:976  wallet.call */\n      0xffffffffffffffffffffffffffffffffffffffff\n      and\n        /* \"contracts/F\\xc3\\xa1cil/wallet/Depositar.sol\":984:992  cantidad */\n      dup6\n        /* \"contracts/F\\xc3\\xa1cil/wallet/Depositar.sol\":965:997  wallet.call{value: cantidad}(\"\") */\n      mload(0x40)\n      tag_33\n      swap1\n      tag_34\n      jump\t// in\n    tag_33:\n      0x00\n      mload(0x40)\n      dup1\n      dup4\n      sub\n      dup2\n      dup6\n      dup8\n      gas\n      call\n      swap3\n      pop\n      pop\n      pop\n      returndatasize\n      dup1\n      0x00\n      dup2\n      eq\n      tag_37\n      jumpi\n      mload(0x40)\n      swap2\n      pop\n      and(add(returndatasize, 0x3f), not(0x1f))\n      dup3\n      add\n      0x40\n      mstore\n      returndatasize\n      dup3\n      mstore\n      returndatasize\n      0x00\n      0x20\n      dup5\n      add\n      returndatacopy\n      jump(tag_36)\n    tag_37:\n      0x60\n      swap2\n      pop\n    tag_36:\n      pop\n        /* \"contracts/F\\xc3\\xa1cil/wallet/Depositar.sol\":947:997  (bool success,) = wallet.call{value: cantidad}(\"\") */\n      pop\n      swap1\n      pop\n        /* \"contracts/F\\xc3\\xa1cil/wallet/Depositar.sol\":1172:1179  success */\n      dup1\n        /* \"contracts/F\\xc3\\xa1cil/wallet/Depositar.sol\":1164:1202  require(success, \"No se ha realizado\") */\n      tag_38\n      jumpi\n      mload(0x40)\n      0x08c379a000000000000000000000000000000000000000000000000000000000\n      dup2\n      mstore\n      0x04\n      add\n      tag_39\n      swap1\n      tag_40\n      jump\t// in\n    tag_39:\n      mload(0x40)\n      dup1\n      swap2\n      sub\n      swap1\n      revert\n    tag_38:\n        /* \"contracts/F\\xc3\\xa1cil/wallet/Depositar.sol\":1228:1236  cantidad */\n      dup5\n        /* \"contracts/F\\xc3\\xa1cil/wallet/Depositar.sol\":1212:1218  cuenta */\n      dup3\n        /* \"contracts/F\\xc3\\xa1cil/wallet/Depositar.sol\":1212:1224  cuenta.saldo */\n      0x00\n      add\n      0x00\n        /* \"contracts/F\\xc3\\xa1cil/wallet/Depositar.sol\":1212:1236  cuenta.saldo -= cantidad */\n      dup3\n      dup3\n      sload\n      tag_41\n      swap2\n      swap1\n      tag_42\n      jump\t// in\n    tag_41:\n      swap3\n      pop\n      pop\n      dup2\n      swap1\n      sstore\n      pop\n        /* \"contracts/F\\xc3\\xa1cil/wallet/Depositar.sol\":798:1243  {... */\n      pop\n      pop\n        /* \"contracts/F\\xc3\\xa1cil/wallet/Depositar.sol\":711:1243  function RetirarSaldo(uint256 cantidad, bytes10 moneda,address payable wallet) external{... */\n      pop\n      pop\n      pop\n      jump\t// out\n        /* \"#utility.yul\":7:162   */\n    tag_44:\n        /* \"#utility.yul\":61:66   */\n      0x00\n        /* \"#utility.yul\":99:105   */\n      dup2\n        /* \"#utility.yul\":86:106   */\n      calldataload\n        /* \"#utility.yul\":77:106   */\n      swap1\n      pop\n        /* \"#utility.yul\":115:156   */\n      tag_46\n        /* \"#utility.yul\":150:155   */\n      dup2\n        /* \"#utility.yul\":115:156   */\n      tag_47\n      jump\t// in\n    tag_46:\n        /* \"#utility.yul\":7:162   */\n      swap3\n      swap2\n      pop\n      pop\n      jump\t// out\n        /* \"#utility.yul\":168:307   */\n    tag_48:\n        /* \"#utility.yul\":214:219   */\n      0x00\n        /* \"#utility.yul\":252:258   */\n      dup2\n        /* \"#utility.yul\":239:259   */\n      calldataload\n        /* \"#utility.yul\":230:259   */\n      swap1\n      pop\n        /* \"#utility.yul\":268:301   */\n      tag_50\n        /* \"#utility.yul\":295:300   */\n      dup2\n        /* \"#utility.yul\":268:301   */\n      tag_51\n      jump\t// in\n    tag_50:\n        /* \"#utility.yul\":168:307   */\n      swap3\n      swap2\n      pop\n      pop\n      jump\t// out\n        /* \"#utility.yul\":313:452   */\n    tag_52:\n        /* \"#utility.yul\":359:364   */\n      0x00\n        /* \"#utility.yul\":397:403   */\n      dup2\n        /* \"#utility.yul\":384:404   */\n      calldataload\n        /* \"#utility.yul\":375:404   */\n      swap1\n      pop\n        /* \"#utility.yul\":413:446   */\n      tag_54\n        /* \"#utility.yul\":440:445   */\n      dup2\n        /* \"#utility.yul\":413:446   */\n      tag_55\n      jump\t// in\n    tag_54:\n        /* \"#utility.yul\":313:452   */\n      swap3\n      swap2\n      pop\n      pop\n      jump\t// out\n        /* \"#utility.yul\":458:787   */\n    tag_12:\n        /* \"#utility.yul\":517:523   */\n      0x00\n        /* \"#utility.yul\":566:568   */\n      0x20\n        /* \"#utility.yul\":554:563   */\n      dup3\n        /* \"#utility.yul\":545:552   */\n      dup5\n        /* \"#utility.yul\":541:564   */\n      sub\n        /* \"#utility.yul\":537:569   */\n      slt\n        /* \"#utility.yul\":534:653   */\n      iszero\n      tag_57\n      jumpi\n        /* \"#utility.yul\":572:651   */\n      tag_58\n      tag_59\n      jump\t// in\n    tag_58:\n        /* \"#utility.yul\":534:653   */\n    tag_57:\n        /* \"#utility.yul\":692:693   */\n      0x00\n        /* \"#utility.yul\":717:770   */\n      tag_60\n        /* \"#utility.yul\":762:769   */\n      dup5\n        /* \"#utility.yul\":753:759   */\n      dup3\n        /* \"#utility.yul\":742:751   */\n      dup6\n        /* \"#utility.yul\":738:760   */\n      add\n        /* \"#utility.yul\":717:770   */\n      tag_48\n      jump\t// in\n    tag_60:\n        /* \"#utility.yul\":707:770   */\n      swap2\n      pop\n        /* \"#utility.yul\":663:780   */\n      pop\n        /* \"#utility.yul\":458:787   */\n      swap3\n      swap2\n      pop\n      pop\n      jump\t// out\n        /* \"#utility.yul\":793:1267   */\n    tag_7:\n        /* \"#utility.yul\":861:867   */\n      0x00\n        /* \"#utility.yul\":869:875   */\n      dup1\n        /* \"#utility.yul\":918:920   */\n      0x40\n        /* \"#utility.yul\":906:915   */\n      dup4\n        /* \"#utility.yul\":897:904   */\n      dup6\n        /* \"#utility.yul\":893:916   */\n      sub\n        /* \"#utility.yul\":889:921   */\n      slt\n        /* \"#utility.yul\":886:1005   */\n      iszero\n      tag_62\n      jumpi\n        /* \"#utility.yul\":924:1003   */\n      tag_63\n      tag_59\n      jump\t// in\n    tag_63:\n        /* \"#utility.yul\":886:1005   */\n    tag_62:\n        /* \"#utility.yul\":1044:1045   */\n      0x00\n        /* \"#utility.yul\":1069:1122   */\n      tag_64\n        /* \"#utility.yul\":1114:1121   */\n      dup6\n        /* \"#utility.yul\":1105:1111   */\n      dup3\n        /* \"#utility.yul\":1094:1103   */\n      dup7\n        /* \"#utility.yul\":1090:1112   */\n      add\n        /* \"#utility.yul\":1069:1122   */\n      tag_52\n      jump\t// in\n    tag_64:\n        /* \"#utility.yul\":1059:1122   */\n      swap3\n      pop\n        /* \"#utility.yul\":1015:1132   */\n      pop\n        /* \"#utility.yul\":1171:1173   */\n      0x20\n        /* \"#utility.yul\":1197:1250   */\n      tag_65\n        /* \"#utility.yul\":1242:1249   */\n      dup6\n        /* \"#utility.yul\":1233:1239   */\n      dup3\n        /* \"#utility.yul\":1222:1231   */\n      dup7\n        /* \"#utility.yul\":1218:1240   */\n      add\n        /* \"#utility.yul\":1197:1250   */\n      tag_48\n      jump\t// in\n    tag_65:\n        /* \"#utility.yul\":1187:1250   */\n      swap2\n      pop\n        /* \"#utility.yul\":1142:1260   */\n      pop\n        /* \"#utility.yul\":793:1267   */\n      swap3\n      pop\n      swap3\n      swap1\n      pop\n      jump\t// out\n        /* \"#utility.yul\":1273:1908   */\n    tag_19:\n        /* \"#utility.yul\":1358:1364   */\n      0x00\n        /* \"#utility.yul\":1366:1372   */\n      dup1\n        /* \"#utility.yul\":1374:1380   */\n      0x00\n        /* \"#utility.yul\":1423:1425   */\n      0x60\n        /* \"#utility.yul\":1411:1420   */\n      dup5\n        /* \"#utility.yul\":1402:1409   */\n      dup7\n        /* \"#utility.yul\":1398:1421   */\n      sub\n        /* \"#utility.yul\":1394:1426   */\n      slt\n        /* \"#utility.yul\":1391:1510   */\n      iszero\n      tag_67\n      jumpi\n        /* \"#utility.yul\":1429:1508   */\n      tag_68\n      tag_59\n      jump\t// in\n    tag_68:\n        /* \"#utility.yul\":1391:1510   */\n    tag_67:\n        /* \"#utility.yul\":1549:1550   */\n      0x00\n        /* \"#utility.yul\":1574:1627   */\n      tag_69\n        /* \"#utility.yul\":1619:1626   */\n      dup7\n        /* \"#utility.yul\":1610:1616   */\n      dup3\n        /* \"#utility.yul\":1599:1608   */\n      dup8\n        /* \"#utility.yul\":1595:1617   */\n      add\n        /* \"#utility.yul\":1574:1627   */\n      tag_52\n      jump\t// in\n    tag_69:\n        /* \"#utility.yul\":1564:1627   */\n      swap4\n      pop\n        /* \"#utility.yul\":1520:1637   */\n      pop\n        /* \"#utility.yul\":1676:1678   */\n      0x20\n        /* \"#utility.yul\":1702:1755   */\n      tag_70\n        /* \"#utility.yul\":1747:1754   */\n      dup7\n        /* \"#utility.yul\":1738:1744   */\n      dup3\n        /* \"#utility.yul\":1727:1736   */\n      dup8\n        /* \"#utility.yul\":1723:1745   */\n      add\n        /* \"#utility.yul\":1702:1755   */\n      tag_48\n      jump\t// in\n    tag_70:\n        /* \"#utility.yul\":1692:1755   */\n      swap3\n      pop\n        /* \"#utility.yul\":1647:1765   */\n      pop\n        /* \"#utility.yul\":1804:1806   */\n      0x40\n        /* \"#utility.yul\":1830:1891   */\n      tag_71\n        /* \"#utility.yul\":1883:1890   */\n      dup7\n        /* \"#utility.yul\":1874:1880   */\n      dup3\n        /* \"#utility.yul\":1863:1872   */\n      dup8\n        /* \"#utility.yul\":1859:1881   */\n      add\n        /* \"#utility.yul\":1830:1891   */\n      tag_44\n      jump\t// in\n    tag_71:\n        /* \"#utility.yul\":1820:1891   */\n      swap2\n      pop\n        /* \"#utility.yul\":1775:1901   */\n      pop\n        /* \"#utility.yul\":1273:1908   */\n      swap3\n      pop\n      swap3\n      pop\n      swap3\n      jump\t// out\n        /* \"#utility.yul\":1914:2280   */\n    tag_72:\n        /* \"#utility.yul\":2056:2059   */\n      0x00\n        /* \"#utility.yul\":2077:2144   */\n      tag_74\n        /* \"#utility.yul\":2141:2143   */\n      0x2f\n        /* \"#utility.yul\":2136:2139   */\n      dup4\n        /* \"#utility.yul\":2077:2144   */\n      tag_75\n      jump\t// in\n    tag_74:\n        /* \"#utility.yul\":2070:2144   */\n      swap2\n      pop\n        /* \"#utility.yul\":2153:2246   */\n      tag_76\n        /* \"#utility.yul\":2242:2245   */\n      dup3\n        /* \"#utility.yul\":2153:2246   */\n      tag_77\n      jump\t// in\n    tag_76:\n        /* \"#utility.yul\":2271:2273   */\n      0x40\n        /* \"#utility.yul\":2266:2269   */\n      dup3\n        /* \"#utility.yul\":2262:2274   */\n      add\n        /* \"#utility.yul\":2255:2274   */\n      swap1\n      pop\n        /* \"#utility.yul\":1914:2280   */\n      swap2\n      swap1\n      pop\n      jump\t// out\n        /* \"#utility.yul\":2286:2652   */\n    tag_78:\n        /* \"#utility.yul\":2428:2431   */\n      0x00\n        /* \"#utility.yul\":2449:2516   */\n      tag_80\n        /* \"#utility.yul\":2513:2515   */\n      0x1f\n        /* \"#utility.yul\":2508:2511   */\n      dup4\n        /* \"#utility.yul\":2449:2516   */\n      tag_75\n      jump\t// in\n    tag_80:\n        /* \"#utility.yul\":2442:2516   */\n      swap2\n      pop\n        /* \"#utility.yul\":2525:2618   */\n      tag_81\n        /* \"#utility.yul\":2614:2617   */\n      dup3\n        /* \"#utility.yul\":2525:2618   */\n      tag_82\n      jump\t// in\n    tag_81:\n        /* \"#utility.yul\":2643:2645   */\n      0x20\n        /* \"#utility.yul\":2638:2641   */\n      dup3\n        /* \"#utility.yul\":2634:2646   */\n      add\n        /* \"#utility.yul\":2627:2646   */\n      swap1\n      pop\n        /* \"#utility.yul\":2286:2652   */\n      swap2\n      swap1\n      pop\n      jump\t// out\n        /* \"#utility.yul\":2658:3056   */\n    tag_83:\n        /* \"#utility.yul\":2817:2820   */\n      0x00\n        /* \"#utility.yul\":2838:2921   */\n      tag_85\n        /* \"#utility.yul\":2919:2920   */\n      0x00\n        /* \"#utility.yul\":2914:2917   */\n      dup4\n        /* \"#utility.yul\":2838:2921   */\n      tag_86\n      jump\t// in\n    tag_85:\n        /* \"#utility.yul\":2831:2921   */\n      swap2\n      pop\n        /* \"#utility.yul\":2930:3023   */\n      tag_87\n        /* \"#utility.yul\":3019:3022   */\n      dup3\n        /* \"#utility.yul\":2930:3023   */\n      tag_88\n      jump\t// in\n    tag_87:\n        /* \"#utility.yul\":3048:3049   */\n      0x00\n        /* \"#utility.yul\":3043:3046   */\n      dup3\n        /* \"#utility.yul\":3039:3050   */\n      add\n        /* \"#utility.yul\":3032:3050   */\n      swap1\n      pop\n        /* \"#utility.yul\":2658:3056   */\n      swap2\n      swap1\n      pop\n      jump\t// out\n        /* \"#utility.yul\":3062:3428   */\n    tag_89:\n        /* \"#utility.yul\":3204:3207   */\n      0x00\n        /* \"#utility.yul\":3225:3292   */\n      tag_91\n        /* \"#utility.yul\":3289:3291   */\n      0x12\n        /* \"#utility.yul\":3284:3287   */\n      dup4\n        /* \"#utility.yul\":3225:3292   */\n      tag_75\n      jump\t// in\n    tag_91:\n        /* \"#utility.yul\":3218:3292   */\n      swap2\n      pop\n        /* \"#utility.yul\":3301:3394   */\n      tag_92\n        /* \"#utility.yul\":3390:3393   */\n      dup3\n        /* \"#utility.yul\":3301:3394   */\n      tag_93\n      jump\t// in\n    tag_92:\n        /* \"#utility.yul\":3419:3421   */\n      0x20\n        /* \"#utility.yul\":3414:3417   */\n      dup3\n        /* \"#utility.yul\":3410:3422   */\n      add\n        /* \"#utility.yul\":3403:3422   */\n      swap1\n      pop\n        /* \"#utility.yul\":3062:3428   */\n      swap2\n      swap1\n      pop\n      jump\t// out\n        /* \"#utility.yul\":3434:3552   */\n    tag_94:\n        /* \"#utility.yul\":3521:3545   */\n      tag_96\n        /* \"#utility.yul\":3539:3544   */\n      dup2\n        /* \"#utility.yul\":3521:3545   */\n      tag_97\n      jump\t// in\n    tag_96:\n        /* \"#utility.yul\":3516:3519   */\n      dup3\n        /* \"#utility.yul\":3509:3546   */\n      mstore\n        /* \"#utility.yul\":3434:3552   */\n      pop\n      pop\n      jump\t// out\n        /* \"#utility.yul\":3558:3937   */\n    tag_34:\n        /* \"#utility.yul\":3742:3745   */\n      0x00\n        /* \"#utility.yul\":3764:3911   */\n      tag_99\n        /* \"#utility.yul\":3907:3910   */\n      dup3\n        /* \"#utility.yul\":3764:3911   */\n      tag_83\n      jump\t// in\n    tag_99:\n        /* \"#utility.yul\":3757:3911   */\n      swap2\n      pop\n        /* \"#utility.yul\":3928:3931   */\n      dup2\n        /* \"#utility.yul\":3921:3931   */\n      swap1\n      pop\n        /* \"#utility.yul\":3558:3937   */\n      swap2\n      swap1\n      pop\n      jump\t// out\n        /* \"#utility.yul\":3943:4362   */\n    tag_24:\n        /* \"#utility.yul\":4109:4113   */\n      0x00\n        /* \"#utility.yul\":4147:4149   */\n      0x20\n        /* \"#utility.yul\":4136:4145   */\n      dup3\n        /* \"#utility.yul\":4132:4150   */\n      add\n        /* \"#utility.yul\":4124:4150   */\n      swap1\n      pop\n        /* \"#utility.yul\":4196:4205   */\n      dup2\n        /* \"#utility.yul\":4190:4194   */\n      dup2\n        /* \"#utility.yul\":4186:4206   */\n      sub\n        /* \"#utility.yul\":4182:4183   */\n      0x00\n        /* \"#utility.yul\":4171:4180   */\n      dup4\n        /* \"#utility.yul\":4167:4184   */\n      add\n        /* \"#utility.yul\":4160:4207   */\n      mstore\n        /* \"#utility.yul\":4224:4355   */\n      tag_101\n        /* \"#utility.yul\":4350:4354   */\n      dup2\n        /* \"#utility.yul\":4224:4355   */\n      tag_72\n      jump\t// in\n    tag_101:\n        /* \"#utility.yul\":4216:4355   */\n      swap1\n      pop\n        /* \"#utility.yul\":3943:4362   */\n      swap2\n      swap1\n      pop\n      jump\t// out\n        /* \"#utility.yul\":4368:4787   */\n    tag_32:\n        /* \"#utility.yul\":4534:4538   */\n      0x00\n        /* \"#utility.yul\":4572:4574   */\n      0x20\n        /* \"#utility.yul\":4561:4570   */\n      dup3\n        /* \"#utility.yul\":4557:4575   */\n      add\n        /* \"#utility.yul\":4549:4575   */\n      swap1\n      pop\n        /* \"#utility.yul\":4621:4630   */\n      dup2\n        /* \"#utility.yul\":4615:4619   */\n      dup2\n        /* \"#utility.yul\":4611:4631   */\n      sub\n        /* \"#utility.yul\":4607:4608   */\n      0x00\n        /* \"#utility.yul\":4596:4605   */\n      dup4\n        /* \"#utility.yul\":4592:4609   */\n      add\n        /* \"#utility.yul\":4585:4632   */\n      mstore\n        /* \"#utility.yul\":4649:4780   */\n      tag_103\n        /* \"#utility.yul\":4775:4779   */\n      dup2\n        /* \"#utility.yul\":4649:4780   */\n      tag_78\n      jump\t// in\n    tag_103:\n        /* \"#utility.yul\":4641:4780   */\n      swap1\n      pop\n        /* \"#utility.yul\":4368:4787   */\n      swap2\n      swap1\n      pop\n      jump\t// out\n        /* \"#utility.yul\":4793:5212   */\n    tag_40:\n        /* \"#utility.yul\":4959:4963   */\n      0x00\n        /* \"#utility.yul\":4997:4999   */\n      0x20\n        /* \"#utility.yul\":4986:4995   */\n      dup3\n        /* \"#utility.yul\":4982:5000   */\n      add\n        /* \"#utility.yul\":4974:5000   */\n      swap1\n      pop\n        /* \"#utility.yul\":5046:5055   */\n      dup2\n        /* \"#utility.yul\":5040:5044   */\n      dup2\n        /* \"#utility.yul\":5036:5056   */\n      sub\n        /* \"#utility.yul\":5032:5033   */\n      0x00\n        /* \"#utility.yul\":5021:5030   */\n      dup4\n        /* \"#utility.yul\":5017:5034   */\n      add\n        /* \"#utility.yul\":5010:5057   */\n      mstore\n        /* \"#utility.yul\":5074:5205   */\n      tag_105\n        /* \"#utility.yul\":5200:5204   */\n      dup2\n        /* \"#utility.yul\":5074:5205   */\n      tag_89\n      jump\t// in\n    tag_105:\n        /* \"#utility.yul\":5066:5205   */\n      swap1\n      pop\n        /* \"#utility.yul\":4793:5212   */\n      swap2\n      swap1\n      pop\n      jump\t// out\n        /* \"#utility.yul\":5218:5440   */\n    tag_15:\n        /* \"#utility.yul\":5311:5315   */\n      0x00\n        /* \"#utility.yul\":5349:5351   */\n      0x20\n        /* \"#utility.yul\":5338:5347   */\n      dup3\n        /* \"#utility.yul\":5334:5352   */\n      add\n        /* \"#utility.yul\":5326:5352   */\n      swap1\n      pop\n        /* \"#utility.yul\":5362:5433   */\n      tag_107\n        /* \"#utility.yul\":5430:5431   */\n      0x00\n        /* \"#utility.yul\":5419:5428   */\n      dup4\n        /* \"#utility.yul\":5415:5432   */\n      add\n        /* \"#utility.yul\":5406:5412   */\n      dup5\n        /* \"#utility.yul\":5362:5433   */\n      tag_94\n      jump\t// in\n    tag_107:\n        /* \"#utility.yul\":5218:5440   */\n      swap3\n      swap2\n      pop\n      pop\n      jump\t// out\n        /* \"#utility.yul\":5527:5674   */\n    tag_86:\n        /* \"#utility.yul\":5628:5639   */\n      0x00\n        /* \"#utility.yul\":5665:5668   */\n      dup2\n        /* \"#utility.yul\":5650:5668   */\n      swap1\n      pop\n        /* \"#utility.yul\":5527:5674   */\n      swap3\n      swap2\n      pop\n      pop\n      jump\t// out\n        /* \"#utility.yul\":5680:5849   */\n    tag_75:\n        /* \"#utility.yul\":5764:5775   */\n      0x00\n        /* \"#utility.yul\":5798:5804   */\n      dup3\n        /* \"#utility.yul\":5793:5796   */\n      dup3\n        /* \"#utility.yul\":5786:5805   */\n      mstore\n        /* \"#utility.yul\":5838:5842   */\n      0x20\n        /* \"#utility.yul\":5833:5836   */\n      dup3\n        /* \"#utility.yul\":5829:5843   */\n      add\n        /* \"#utility.yul\":5814:5843   */\n      swap1\n      pop\n        /* \"#utility.yul\":5680:5849   */\n      swap3\n      swap2\n      pop\n      pop\n      jump\t// out\n        /* \"#utility.yul\":5855:6160   */\n    tag_26:\n        /* \"#utility.yul\":5895:5898   */\n      0x00\n        /* \"#utility.yul\":5914:5934   */\n      tag_113\n        /* \"#utility.yul\":5932:5933   */\n      dup3\n        /* \"#utility.yul\":5914:5934   */\n      tag_97\n      jump\t// in\n    tag_113:\n        /* \"#utility.yul\":5909:5934   */\n      swap2\n      pop\n        /* \"#utility.yul\":5948:5968   */\n      tag_114\n        /* \"#utility.yul\":5966:5967   */\n      dup4\n        /* \"#utility.yul\":5948:5968   */\n      tag_97\n      jump\t// in\n    tag_114:\n        /* \"#utility.yul\":5943:5968   */\n      swap3\n      pop\n        /* \"#utility.yul\":6102:6103   */\n      dup3\n        /* \"#utility.yul\":6034:6100   */\n      0xffffffffffffffffffffffffffffffffffffffffffffffffffffffffffffffff\n        /* \"#utility.yul\":6030:6104   */\n      sub\n        /* \"#utility.yul\":6027:6028   */\n      dup3\n        /* \"#utility.yul\":6024:6105   */\n      gt\n        /* \"#utility.yul\":6021:6128   */\n      iszero\n      tag_115\n      jumpi\n        /* \"#utility.yul\":6108:6126   */\n      tag_116\n      tag_117\n      jump\t// in\n    tag_116:\n        /* \"#utility.yul\":6021:6128   */\n    tag_115:\n        /* \"#utility.yul\":6152:6153   */\n      dup3\n        /* \"#utility.yul\":6149:6150   */\n      dup3\n        /* \"#utility.yul\":6145:6154   */\n      add\n        /* \"#utility.yul\":6138:6154   */\n      swap1\n      pop\n        /* \"#utility.yul\":5855:6160   */\n      swap3\n      swap2\n      pop\n      pop\n      jump\t// out\n        /* \"#utility.yul\":6166:6357   */\n    tag_42:\n        /* \"#utility.yul\":6206:6210   */\n      0x00\n        /* \"#utility.yul\":6226:6246   */\n      tag_119\n        /* \"#utility.yul\":6244:6245   */\n      dup3\n        /* \"#utility.yul\":6226:6246   */\n      tag_97\n      jump\t// in\n    tag_119:\n        /* \"#utility.yul\":6221:6246   */\n      swap2\n      pop\n        /* \"#utility.yul\":6260:6280   */\n      tag_120\n        /* \"#utility.yul\":6278:6279   */\n      dup4\n        /* \"#utility.yul\":6260:6280   */\n      tag_97\n      jump\t// in\n    tag_120:\n        /* \"#utility.yul\":6255:6280   */\n      swap3\n      pop\n        /* \"#utility.yul\":6299:6300   */\n      dup3\n        /* \"#utility.yul\":6296:6297   */\n      dup3\n        /* \"#utility.yul\":6293:6301   */\n      lt\n        /* \"#utility.yul\":6290:6324   */\n      iszero\n      tag_121\n      jumpi\n        /* \"#utility.yul\":6304:6322   */\n      tag_122\n      tag_117\n      jump\t// in\n    tag_122:\n        /* \"#utility.yul\":6290:6324   */\n    tag_121:\n        /* \"#utility.yul\":6349:6350   */\n      dup3\n        /* \"#utility.yul\":6346:6347   */\n      dup3\n        /* \"#utility.yul\":6342:6351   */\n      sub\n        /* \"#utility.yul\":6334:6351   */\n      swap1\n      pop\n        /* \"#utility.yul\":6166:6357   */\n      swap3\n      swap2\n      pop\n      pop\n      jump\t// out\n        /* \"#utility.yul\":6363:6467   */\n    tag_123:\n        /* \"#utility.yul\":6408:6415   */\n      0x00\n        /* \"#utility.yul\":6437:6461   */\n      tag_125\n        /* \"#utility.yul\":6455:6460   */\n      dup3\n        /* \"#utility.yul\":6437:6461   */\n      tag_126\n      jump\t// in\n    tag_125:\n        /* \"#utility.yul\":6426:6461   */\n      swap1\n      pop\n        /* \"#utility.yul\":6363:6467   */\n      swap2\n      swap1\n      pop\n      jump\t// out\n        /* \"#utility.yul\":6473:6623   */\n    tag_127:\n        /* \"#utility.yul\":6510:6517   */\n      0x00\n        /* \"#utility.yul\":6550:6616   */\n      0xffffffffffffffffffff00000000000000000000000000000000000000000000\n        /* \"#utility.yul\":6543:6548   */\n      dup3\n        /* \"#utility.yul\":6539:6617   */\n      and\n        /* \"#utility.yul\":6528:6617   */\n      swap1\n      pop\n        /* \"#utility.yul\":6473:6623   */\n      swap2\n      swap1\n      pop\n      jump\t// out\n        /* \"#utility.yul\":6629:6755   */\n    tag_126:\n        /* \"#utility.yul\":6666:6673   */\n      0x00\n        /* \"#utility.yul\":6706:6748   */\n      0xffffffffffffffffffffffffffffffffffffffff\n        /* \"#utility.yul\":6699:6704   */\n      dup3\n        /* \"#utility.yul\":6695:6749   */\n      and\n        /* \"#utility.yul\":6684:6749   */\n      swap1\n      pop\n        /* \"#utility.yul\":6629:6755   */\n      swap2\n      swap1\n      pop\n      jump\t// out\n        /* \"#utility.yul\":6761:6838   */\n    tag_97:\n        /* \"#utility.yul\":6798:6805   */\n      0x00\n        /* \"#utility.yul\":6827:6832   */\n      dup2\n        /* \"#utility.yul\":6816:6832   */\n      swap1\n      pop\n        /* \"#utility.yul\":6761:6838   */\n      swap2\n      swap1\n      pop\n      jump\t// out\n        /* \"#utility.yul\":6844:7024   */\n    tag_117:\n        /* \"#utility.yul\":6892:6969   */\n      0x4e487b7100000000000000000000000000000000000000000000000000000000\n        /* \"#utility.yul\":6889:6890   */\n      0x00\n        /* \"#utility.yul\":6882:6970   */\n      mstore\n        /* \"#utility.yul\":6989:6993   */\n      0x11\n        /* \"#utility.yul\":6986:6987   */\n      0x04\n        /* \"#utility.yul\":6979:6994   */\n      mstore\n        /* \"#utility.yul\":7013:7017   */\n      0x24\n        /* \"#utility.yul\":7010:7011   */\n      0x00\n        /* \"#utility.yul\":7003:7018   */\n      revert\n        /* \"#utility.yul\":7153:7270   */\n    tag_59:\n        /* \"#utility.yul\":7262:7263   */\n      0x00\n        /* \"#utility.yul\":7259:7260   */\n      dup1\n        /* \"#utility.yul\":7252:7264   */\n      revert\n        /* \"#utility.yul\":7276:7510   */\n    tag_77:\n        /* \"#utility.yul\":7416:7450   */\n      0x4e6f20657374617320696e67726573616e646f206c61206d69736d612063616e\n        /* \"#utility.yul\":7412:7413   */\n      0x00\n        /* \"#utility.yul\":7404:7410   */\n      dup3\n        /* \"#utility.yul\":7400:7414   */\n      add\n        /* \"#utility.yul\":7393:7451   */\n      mstore\n        /* \"#utility.yul\":7485:7502   */\n      0x74696461642064652064696e65726f0000000000000000000000000000000000\n        /* \"#utility.yul\":7480:7482   */\n      0x20\n        /* \"#utility.yul\":7472:7478   */\n      dup3\n        /* \"#utility.yul\":7468:7483   */\n      add\n        /* \"#utility.yul\":7461:7503   */\n      mstore\n        /* \"#utility.yul\":7276:7510   */\n      pop\n      jump\t// out\n        /* \"#utility.yul\":7516:7697   */\n    tag_82:\n        /* \"#utility.yul\":7656:7689   */\n      0x53616c646f20696e737566696369656e746520656e206c61206375656e746100\n        /* \"#utility.yul\":7652:7653   */\n      0x00\n        /* \"#utility.yul\":7644:7650   */\n      dup3\n        /* \"#utility.yul\":7640:7654   */\n      add\n        /* \"#utility.yul\":7633:7690   */\n      mstore\n        /* \"#utility.yul\":7516:7697   */\n      pop\n      jump\t// out\n        /* \"#utility.yul\":7703:7817   */\n    tag_88:\n      pop\n      jump\t// out\n        /* \"#utility.yul\":7823:7991   */\n    tag_93:\n        /* \"#utility.yul\":7963:7983   */\n      0x4e6f207365206861207265616c697a61646f0000000000000000000000000000\n        /* \"#utility.yul\":7959:7960   */\n      0x00\n        /* \"#utility.yul\":7951:7957   */\n      dup3\n        /* \"#utility.yul\":7947:7961   */\n      add\n        /* \"#utility.yul\":7940:7984   */\n      mstore\n        /* \"#utility.yul\":7823:7991   */\n      pop\n      jump\t// out\n        /* \"#utility.yul\":7997:8135   */\n    tag_47:\n        /* \"#utility.yul\":8078:8110   */\n      tag_140\n        /* \"#utility.yul\":8104:8109   */\n      dup2\n        /* \"#utility.yul\":8078:8110   */\n      tag_123\n      jump\t// in\n    tag_140:\n        /* \"#utility.yul\":8071:8076   */\n      dup2\n        /* \"#utility.yul\":8068:8111   */\n      eq\n        /* \"#utility.yul\":8058:8129   */\n      tag_141\n      jumpi\n        /* \"#utility.yul\":8125:8126   */\n      0x00\n        /* \"#utility.yul\":8122:8123   */\n      dup1\n        /* \"#utility.yul\":8115:8127   */\n      revert\n        /* \"#utility.yul\":8058:8129   */\n    tag_141:\n        /* \"#utility.yul\":7997:8135   */\n      pop\n      jump\t// out\n        /* \"#utility.yul\":8141:8263   */\n    tag_51:\n        /* \"#utility.yul\":8214:8238   */\n      tag_143\n        /* \"#utility.yul\":8232:8237   */\n      dup2\n        /* \"#utility.yul\":8214:8238   */\n      tag_127\n      jump\t// in\n    tag_143:\n        /* \"#utility.yul\":8207:8212   */\n      dup2\n        /* \"#utility.yul\":8204:8239   */\n      eq\n        /* \"#utility.yul\":8194:8257   */\n      tag_144\n      jumpi\n        /* \"#utility.yul\":8253:8254   */\n      0x00\n        /* \"#utility.yul\":8250:8251   */\n      dup1\n        /* \"#utility.yul\":8243:8255   */\n      revert\n        /* \"#utility.yul\":8194:8257   */\n    tag_144:\n        /* \"#utility.yul\":8141:8263   */\n      pop\n      jump\t// out\n        /* \"#utility.yul\":8269:8391   */\n    tag_55:\n        /* \"#utility.yul\":8342:8366   */\n      tag_146\n        /* \"#utility.yul\":8360:8365   */\n      dup2\n        /* \"#utility.yul\":8342:8366   */\n      tag_97\n      jump\t// in\n    tag_146:\n        /* \"#utility.yul\":8335:8340   */\n      dup2\n        /* \"#utility.yul\":8332:8367   */\n      eq\n        /* \"#utility.yul\":8322:8385   */\n      tag_147\n      jumpi\n        /* \"#utility.yul\":8381:8382   */\n      0x00\n        /* \"#utility.yul\":8378:8379   */\n      dup1\n        /* \"#utility.yul\":8371:8383   */\n      revert\n        /* \"#utility.yul\":8322:8385   */\n    tag_147:\n        /* \"#utility.yul\":8269:8391   */\n      pop\n      jump\t// out\n\n    auxdata: 0xa26469706673582212203ad39b6f6d5e56c9fcda7a7159e44aeeec2d192da5012927fafd8fc9c51cda5864736f6c63430008070033\n}\n",
				"bytecode": {
					"linkReferences": {},
					"object": "608060405234801561001057600080fd5b506108af806100206000396000f3fe6080604052600436106100345760003560e01c806395e8629a146100395780639dd4406614610055578063cd2a041f14610092575b600080fd5b610053600480360381019061004e9190610490565b6100bb565b005b34801561006157600080fd5b5061007c60048036038101906100779190610463565b6101fc565b6040516100899190610633565b60405180910390f35b34801561009e57600080fd5b506100b960048036038101906100b491906104d0565b61028a565b005b8134146100fd576040517f08c379a00000000000000000000000000000000000000000000000000000000081526004016100f4906105d3565b60405180910390fd5b60008060003373ffffffffffffffffffffffffffffffffffffffff1673ffffffffffffffffffffffffffffffffffffffff16815260200190815260200160002060008375ffffffffffffffffffffffffffffffffffffffffffff191675ffffffffffffffffffffffffffffffffffffffffffff19168152602001908152602001600020905082816000016000828254610196919061066a565b9250508190555060008160010160009054906101000a900460b01b75ffffffffffffffffffffffffffffffffffffffffffff191614156101f757818160010160006101000a81548169ffffffffffffffffffff021916908360b01c02179055505b505050565b60008060003373ffffffffffffffffffffffffffffffffffffffff1673ffffffffffffffffffffffffffffffffffffffff16815260200190815260200160002060008375ffffffffffffffffffffffffffffffffffffffffffff191675ffffffffffffffffffffffffffffffffffffffffffff19168152602001908152602001600020600001549050919050565b60008060003373ffffffffffffffffffffffffffffffffffffffff1673ffffffffffffffffffffffffffffffffffffffff16815260200190815260200160002060008475ffffffffffffffffffffffffffffffffffffffffffff191675ffffffffffffffffffffffffffffffffffffffffffff1916815260200190815260200160002090508381600001541015610356576040517f08c379a000000000000000000000000000000000000000000000000000000000815260040161034d906105f3565b60405180910390fd5b60008273ffffffffffffffffffffffffffffffffffffffff168560405161037c906105be565b60006040518083038185875af1925050503d80600081146103b9576040519150601f19603f3d011682016040523d82523d6000602084013e6103be565b606091505b5050905080610402576040517f08c379a00000000000000000000000000000000000000000000000000000000081526004016103f990610613565b60405180910390fd5b8482600001600082825461041691906106c0565b925050819055505050505050565b60008135905061043381610834565b92915050565b6000813590506104488161084b565b92915050565b60008135905061045d81610862565b92915050565b6000602082840312156104795761047861078b565b5b600061048784828501610439565b91505092915050565b600080604083850312156104a7576104a661078b565b5b60006104b58582860161044e565b92505060206104c685828601610439565b9150509250929050565b6000806000606084860312156104e9576104e861078b565b5b60006104f78682870161044e565b935050602061050886828701610439565b925050604061051986828701610424565b9150509250925092565b6000610530602f83610659565b915061053b82610790565b604082019050919050565b6000610553601f83610659565b915061055e826107df565b602082019050919050565b600061057660008361064e565b915061058182610808565b600082019050919050565b6000610599601283610659565b91506105a48261080b565b602082019050919050565b6105b881610752565b82525050565b60006105c982610569565b9150819050919050565b600060208201905081810360008301526105ec81610523565b9050919050565b6000602082019050818103600083015261060c81610546565b9050919050565b6000602082019050818103600083015261062c8161058c565b9050919050565b600060208201905061064860008301846105af565b92915050565b600081905092915050565b600082825260208201905092915050565b600061067582610752565b915061068083610752565b9250827fffffffffffffffffffffffffffffffffffffffffffffffffffffffffffffffff038211156106b5576106b461075c565b5b828201905092915050565b60006106cb82610752565b91506106d683610752565b9250828210156106e9576106e861075c565b5b828203905092915050565b60006106ff82610732565b9050919050565b60007fffffffffffffffffffff0000000000000000000000000000000000000000000082169050919050565b600073ffffffffffffffffffffffffffffffffffffffff82169050919050565b6000819050919050565b7f4e487b7100000000000000000000000000000000000000000000000000000000600052601160045260246000fd5b600080fd5b7f4e6f20657374617320696e67726573616e646f206c61206d69736d612063616e60008201527f74696461642064652064696e65726f0000000000000000000000000000000000602082015250565b7f53616c646f20696e737566696369656e746520656e206c61206375656e746100600082015250565b50565b7f4e6f207365206861207265616c697a61646f0000000000000000000000000000600082015250565b61083d816106f4565b811461084857600080fd5b50565b61085481610706565b811461085f57600080fd5b50565b61086b81610752565b811461087657600080fd5b5056fea26469706673582212203ad39b6f6d5e56c9fcda7a7159e44aeeec2d192da5012927fafd8fc9c51cda5864736f6c63430008070033",
					"opcodes": "PUSH1 0x80 PUSH1 0x40 MSTORE CALLVALUE DUP1 ISZERO PUSH2 0x10 JUMPI PUSH1 0x0 DUP1 REVERT JUMPDEST POP PUSH2 0x8AF DUP1 PUSH2 0x20 PUSH1 0x0 CODECOPY PUSH1 0x0 RETURN INVALID PUSH1 0x80 PUSH1 0x40 MSTORE PUSH1 0x4 CALLDATASIZE LT PUSH2 0x34 JUMPI PUSH1 0x0 CALLDATALOAD PUSH1 0xE0 SHR DUP1 PUSH4 0x95E8629A EQ PUSH2 0x39 JUMPI DUP1 PUSH4 0x9DD44066 EQ PUSH2 0x55 JUMPI DUP1 PUSH4 0xCD2A041F EQ PUSH2 0x92 JUMPI JUMPDEST PUSH1 0x0 DUP1 REVERT JUMPDEST PUSH2 0x53 PUSH1 0x4 DUP1 CALLDATASIZE SUB DUP2 ADD SWAP1 PUSH2 0x4E SWAP2 SWAP1 PUSH2 0x490 JUMP JUMPDEST PUSH2 0xBB JUMP JUMPDEST STOP JUMPDEST CALLVALUE DUP1 ISZERO PUSH2 0x61 JUMPI PUSH1 0x0 DUP1 REVERT JUMPDEST POP PUSH2 0x7C PUSH1 0x4 DUP1 CALLDATASIZE SUB DUP2 ADD SWAP1 PUSH2 0x77 SWAP2 SWAP1 PUSH2 0x463 JUMP JUMPDEST PUSH2 0x1FC JUMP JUMPDEST PUSH1 0x40 MLOAD PUSH2 0x89 SWAP2 SWAP1 PUSH2 0x633 JUMP JUMPDEST PUSH1 0x40 MLOAD DUP1 SWAP2 SUB SWAP1 RETURN JUMPDEST CALLVALUE DUP1 ISZERO PUSH2 0x9E JUMPI PUSH1 0x0 DUP1 REVERT JUMPDEST POP PUSH2 0xB9 PUSH1 0x4 DUP1 CALLDATASIZE SUB DUP2 ADD SWAP1 PUSH2 0xB4 SWAP2 SWAP1 PUSH2 0x4D0 JUMP JUMPDEST PUSH2 0x28A JUMP JUMPDEST STOP JUMPDEST DUP2 CALLVALUE EQ PUSH2 0xFD JUMPI PUSH1 0x40 MLOAD PUSH32 0x8C379A000000000000000000000000000000000000000000000000000000000 DUP2 MSTORE PUSH1 0x4 ADD PUSH2 0xF4 SWAP1 PUSH2 0x5D3 JUMP JUMPDEST PUSH1 0x40 MLOAD DUP1 SWAP2 SUB SWAP1 REVERT JUMPDEST PUSH1 0x0 DUP1 PUSH1 0x0 CALLER PUSH20 0xFFFFFFFFFFFFFFFFFFFFFFFFFFFFFFFFFFFFFFFF AND PUSH20 0xFFFFFFFFFFFFFFFFFFFFFFFFFFFFFFFFFFFFFFFF AND DUP2 MSTORE PUSH1 0x20 ADD SWAP1 DUP2 MSTORE PUSH1 0x20 ADD PUSH1 0x0 KECCAK256 PUSH1 0x0 DUP4 PUSH22 0xFFFFFFFFFFFFFFFFFFFFFFFFFFFFFFFFFFFFFFFFFFFF NOT AND PUSH22 0xFFFFFFFFFFFFFFFFFFFFFFFFFFFFFFFFFFFFFFFFFFFF NOT AND DUP2 MSTORE PUSH1 0x20 ADD SWAP1 DUP2 MSTORE PUSH1 0x20 ADD PUSH1 0x0 KECCAK256 SWAP1 POP DUP3 DUP2 PUSH1 0x0 ADD PUSH1 0x0 DUP3 DUP3 SLOAD PUSH2 0x196 SWAP2 SWAP1 PUSH2 0x66A JUMP JUMPDEST SWAP3 POP POP DUP2 SWAP1 SSTORE POP PUSH1 0x0 DUP2 PUSH1 0x1 ADD PUSH1 0x0 SWAP1 SLOAD SWAP1 PUSH2 0x100 EXP SWAP1 DIV PUSH1 0xB0 SHL PUSH22 0xFFFFFFFFFFFFFFFFFFFFFFFFFFFFFFFFFFFFFFFFFFFF NOT AND EQ ISZERO PUSH2 0x1F7 JUMPI DUP2 DUP2 PUSH1 0x1 ADD PUSH1 0x0 PUSH2 0x100 EXP DUP2 SLOAD DUP2 PUSH10 0xFFFFFFFFFFFFFFFFFFFF MUL NOT AND SWAP1 DUP4 PUSH1 0xB0 SHR MUL OR SWAP1 SSTORE POP JUMPDEST POP POP POP JUMP JUMPDEST PUSH1 0x0 DUP1 PUSH1 0x0 CALLER PUSH20 0xFFFFFFFFFFFFFFFFFFFFFFFFFFFFFFFFFFFFFFFF AND PUSH20 0xFFFFFFFFFFFFFFFFFFFFFFFFFFFFFFFFFFFFFFFF AND DUP2 MSTORE PUSH1 0x20 ADD SWAP1 DUP2 MSTORE PUSH1 0x20 ADD PUSH1 0x0 KECCAK256 PUSH1 0x0 DUP4 PUSH22 0xFFFFFFFFFFFFFFFFFFFFFFFFFFFFFFFFFFFFFFFFFFFF NOT AND PUSH22 0xFFFFFFFFFFFFFFFFFFFFFFFFFFFFFFFFFFFFFFFFFFFF NOT AND DUP2 MSTORE PUSH1 0x20 ADD SWAP1 DUP2 MSTORE PUSH1 0x20 ADD PUSH1 0x0 KECCAK256 PUSH1 0x0 ADD SLOAD SWAP1 POP SWAP2 SWAP1 POP JUMP JUMPDEST PUSH1 0x0 DUP1 PUSH1 0x0 CALLER PUSH20 0xFFFFFFFFFFFFFFFFFFFFFFFFFFFFFFFFFFFFFFFF AND PUSH20 0xFFFFFFFFFFFFFFFFFFFFFFFFFFFFFFFFFFFFFFFF AND DUP2 MSTORE PUSH1 0x20 ADD SWAP1 DUP2 MSTORE PUSH1 0x20 ADD PUSH1 0x0 KECCAK256 PUSH1 0x0 DUP5 PUSH22 0xFFFFFFFFFFFFFFFFFFFFFFFFFFFFFFFFFFFFFFFFFFFF NOT AND PUSH22 0xFFFFFFFFFFFFFFFFFFFFFFFFFFFFFFFFFFFFFFFFFFFF NOT AND DUP2 MSTORE PUSH1 0x20 ADD SWAP1 DUP2 MSTORE PUSH1 0x20 ADD PUSH1 0x0 KECCAK256 SWAP1 POP DUP4 DUP2 PUSH1 0x0 ADD SLOAD LT ISZERO PUSH2 0x356 JUMPI PUSH1 0x40 MLOAD PUSH32 0x8C379A000000000000000000000000000000000000000000000000000000000 DUP2 MSTORE PUSH1 0x4 ADD PUSH2 0x34D SWAP1 PUSH2 0x5F3 JUMP JUMPDEST PUSH1 0x40 MLOAD DUP1 SWAP2 SUB SWAP1 REVERT JUMPDEST PUSH1 0x0 DUP3 PUSH20 0xFFFFFFFFFFFFFFFFFFFFFFFFFFFFFFFFFFFFFFFF AND DUP6 PUSH1 0x40 MLOAD PUSH2 0x37C SWAP1 PUSH2 0x5BE JUMP JUMPDEST PUSH1 0x0 PUSH1 0x40 MLOAD DUP1 DUP4 SUB DUP2 DUP6 DUP8 GAS CALL SWAP3 POP POP POP RETURNDATASIZE DUP1 PUSH1 0x0 DUP2 EQ PUSH2 0x3B9 JUMPI PUSH1 0x40 MLOAD SWAP2 POP PUSH1 0x1F NOT PUSH1 0x3F RETURNDATASIZE ADD AND DUP3 ADD PUSH1 0x40 MSTORE RETURNDATASIZE DUP3 MSTORE RETURNDATASIZE PUSH1 0x0 PUSH1 0x20 DUP5 ADD RETURNDATACOPY PUSH2 0x3BE JUMP JUMPDEST PUSH1 0x60 SWAP2 POP JUMPDEST POP POP SWAP1 POP DUP1 PUSH2 0x402 JUMPI PUSH1 0x40 MLOAD PUSH32 0x8C379A000000000000000000000000000000000000000000000000000000000 DUP2 MSTORE PUSH1 0x4 ADD PUSH2 0x3F9 SWAP1 PUSH2 0x613 JUMP JUMPDEST PUSH1 0x40 MLOAD DUP1 SWAP2 SUB SWAP1 REVERT JUMPDEST DUP5 DUP3 PUSH1 0x0 ADD PUSH1 0x0 DUP3 DUP3 SLOAD PUSH2 0x416 SWAP2 SWAP1 PUSH2 0x6C0 JUMP JUMPDEST SWAP3 POP POP DUP2 SWAP1 SSTORE POP POP POP POP POP POP JUMP JUMPDEST PUSH1 0x0 DUP2 CALLDATALOAD SWAP1 POP PUSH2 0x433 DUP2 PUSH2 0x834 JUMP JUMPDEST SWAP3 SWAP2 POP POP JUMP JUMPDEST PUSH1 0x0 DUP2 CALLDATALOAD SWAP1 POP PUSH2 0x448 DUP2 PUSH2 0x84B JUMP JUMPDEST SWAP3 SWAP2 POP POP JUMP JUMPDEST PUSH1 0x0 DUP2 CALLDATALOAD SWAP1 POP PUSH2 0x45D DUP2 PUSH2 0x862 JUMP JUMPDEST SWAP3 SWAP2 POP POP JUMP JUMPDEST PUSH1 0x0 PUSH1 0x20 DUP3 DUP5 SUB SLT ISZERO PUSH2 0x479 JUMPI PUSH2 0x478 PUSH2 0x78B JUMP JUMPDEST JUMPDEST PUSH1 0x0 PUSH2 0x487 DUP5 DUP3 DUP6 ADD PUSH2 0x439 JUMP JUMPDEST SWAP2 POP POP SWAP3 SWAP2 POP POP JUMP JUMPDEST PUSH1 0x0 DUP1 PUSH1 0x40 DUP4 DUP6 SUB SLT ISZERO PUSH2 0x4A7 JUMPI PUSH2 0x4A6 PUSH2 0x78B JUMP JUMPDEST JUMPDEST PUSH1 0x0 PUSH2 0x4B5 DUP6 DUP3 DUP7 ADD PUSH2 0x44E JUMP JUMPDEST SWAP3 POP POP PUSH1 0x20 PUSH2 0x4C6 DUP6 DUP3 DUP7 ADD PUSH2 0x439 JUMP JUMPDEST SWAP2 POP POP SWAP3 POP SWAP3 SWAP1 POP JUMP JUMPDEST PUSH1 0x0 DUP1 PUSH1 0x0 PUSH1 0x60 DUP5 DUP7 SUB SLT ISZERO PUSH2 0x4E9 JUMPI PUSH2 0x4E8 PUSH2 0x78B JUMP JUMPDEST JUMPDEST PUSH1 0x0 PUSH2 0x4F7 DUP7 DUP3 DUP8 ADD PUSH2 0x44E JUMP JUMPDEST SWAP4 POP POP PUSH1 0x20 PUSH2 0x508 DUP7 DUP3 DUP8 ADD PUSH2 0x439 JUMP JUMPDEST SWAP3 POP POP PUSH1 0x40 PUSH2 0x519 DUP7 DUP3 DUP8 ADD PUSH2 0x424 JUMP JUMPDEST SWAP2 POP POP SWAP3 POP SWAP3 POP SWAP3 JUMP JUMPDEST PUSH1 0x0 PUSH2 0x530 PUSH1 0x2F DUP4 PUSH2 0x659 JUMP JUMPDEST SWAP2 POP PUSH2 0x53B DUP3 PUSH2 0x790 JUMP JUMPDEST PUSH1 0x40 DUP3 ADD SWAP1 POP SWAP2 SWAP1 POP JUMP JUMPDEST PUSH1 0x0 PUSH2 0x553 PUSH1 0x1F DUP4 PUSH2 0x659 JUMP JUMPDEST SWAP2 POP PUSH2 0x55E DUP3 PUSH2 0x7DF JUMP JUMPDEST PUSH1 0x20 DUP3 ADD SWAP1 POP SWAP2 SWAP1 POP JUMP JUMPDEST PUSH1 0x0 PUSH2 0x576 PUSH1 0x0 DUP4 PUSH2 0x64E JUMP JUMPDEST SWAP2 POP PUSH2 0x581 DUP3 PUSH2 0x808 JUMP JUMPDEST PUSH1 0x0 DUP3 ADD SWAP1 POP SWAP2 SWAP1 POP JUMP JUMPDEST PUSH1 0x0 PUSH2 0x599 PUSH1 0x12 DUP4 PUSH2 0x659 JUMP JUMPDEST SWAP2 POP PUSH2 0x5A4 DUP3 PUSH2 0x80B JUMP JUMPDEST PUSH1 0x20 DUP3 ADD SWAP1 POP SWAP2 SWAP1 POP JUMP JUMPDEST PUSH2 0x5B8 DUP2 PUSH2 0x752 JUMP JUMPDEST DUP3 MSTORE POP POP JUMP JUMPDEST PUSH1 0x0 PUSH2 0x5C9 DUP3 PUSH2 0x569 JUMP JUMPDEST SWAP2 POP DUP2 SWAP1 POP SWAP2 SWAP1 POP JUMP JUMPDEST PUSH1 0x0 PUSH1 0x20 DUP3 ADD SWAP1 POP DUP2 DUP2 SUB PUSH1 0x0 DUP4 ADD MSTORE PUSH2 0x5EC DUP2 PUSH2 0x523 JUMP JUMPDEST SWAP1 POP SWAP2 SWAP1 POP JUMP JUMPDEST PUSH1 0x0 PUSH1 0x20 DUP3 ADD SWAP1 POP DUP2 DUP2 SUB PUSH1 0x0 DUP4 ADD MSTORE PUSH2 0x60C DUP2 PUSH2 0x546 JUMP JUMPDEST SWAP1 POP SWAP2 SWAP1 POP JUMP JUMPDEST PUSH1 0x0 PUSH1 0x20 DUP3 ADD SWAP1 POP DUP2 DUP2 SUB PUSH1 0x0 DUP4 ADD MSTORE PUSH2 0x62C DUP2 PUSH2 0x58C JUMP JUMPDEST SWAP1 POP SWAP2 SWAP1 POP JUMP JUMPDEST PUSH1 0x0 PUSH1 0x20 DUP3 ADD SWAP1 POP PUSH2 0x648 PUSH1 0x0 DUP4 ADD DUP5 PUSH2 0x5AF JUMP JUMPDEST SWAP3 SWAP2 POP POP JUMP JUMPDEST PUSH1 0x0 DUP2 SWAP1 POP SWAP3 SWAP2 POP POP JUMP JUMPDEST PUSH1 0x0 DUP3 DUP3 MSTORE PUSH1 0x20 DUP3 ADD SWAP1 POP SWAP3 SWAP2 POP POP JUMP JUMPDEST PUSH1 0x0 PUSH2 0x675 DUP3 PUSH2 0x752 JUMP JUMPDEST SWAP2 POP PUSH2 0x680 DUP4 PUSH2 0x752 JUMP JUMPDEST SWAP3 POP DUP3 PUSH32 0xFFFFFFFFFFFFFFFFFFFFFFFFFFFFFFFFFFFFFFFFFFFFFFFFFFFFFFFFFFFFFFFF SUB DUP3 GT ISZERO PUSH2 0x6B5 JUMPI PUSH2 0x6B4 PUSH2 0x75C JUMP JUMPDEST JUMPDEST DUP3 DUP3 ADD SWAP1 POP SWAP3 SWAP2 POP POP JUMP JUMPDEST PUSH1 0x0 PUSH2 0x6CB DUP3 PUSH2 0x752 JUMP JUMPDEST SWAP2 POP PUSH2 0x6D6 DUP4 PUSH2 0x752 JUMP JUMPDEST SWAP3 POP DUP3 DUP3 LT ISZERO PUSH2 0x6E9 JUMPI PUSH2 0x6E8 PUSH2 0x75C JUMP JUMPDEST JUMPDEST DUP3 DUP3 SUB SWAP1 POP SWAP3 SWAP2 POP POP JUMP JUMPDEST PUSH1 0x0 PUSH2 0x6FF DUP3 PUSH2 0x732 JUMP JUMPDEST SWAP1 POP SWAP2 SWAP1 POP JUMP JUMPDEST PUSH1 0x0 PUSH32 0xFFFFFFFFFFFFFFFFFFFF00000000000000000000000000000000000000000000 DUP3 AND SWAP1 POP SWAP2 SWAP1 POP JUMP JUMPDEST PUSH1 0x0 PUSH20 0xFFFFFFFFFFFFFFFFFFFFFFFFFFFFFFFFFFFFFFFF DUP3 AND SWAP1 POP SWAP2 SWAP1 POP JUMP JUMPDEST PUSH1 0x0 DUP2 SWAP1 POP SWAP2 SWAP1 POP JUMP JUMPDEST PUSH32 0x4E487B7100000000000000000000000000000000000000000000000000000000 PUSH1 0x0 MSTORE PUSH1 0x11 PUSH1 0x4 MSTORE PUSH1 0x24 PUSH1 0x0 REVERT JUMPDEST PUSH1 0x0 DUP1 REVERT JUMPDEST PUSH32 0x4E6F20657374617320696E67726573616E646F206C61206D69736D612063616E PUSH1 0x0 DUP3 ADD MSTORE PUSH32 0x74696461642064652064696E65726F0000000000000000000000000000000000 PUSH1 0x20 DUP3 ADD MSTORE POP JUMP JUMPDEST PUSH32 0x53616C646F20696E737566696369656E746520656E206C61206375656E746100 PUSH1 0x0 DUP3 ADD MSTORE POP JUMP JUMPDEST POP JUMP JUMPDEST PUSH32 0x4E6F207365206861207265616C697A61646F0000000000000000000000000000 PUSH1 0x0 DUP3 ADD MSTORE POP JUMP JUMPDEST PUSH2 0x83D DUP2 PUSH2 0x6F4 JUMP JUMPDEST DUP2 EQ PUSH2 0x848 JUMPI PUSH1 0x0 DUP1 REVERT JUMPDEST POP JUMP JUMPDEST PUSH2 0x854 DUP2 PUSH2 0x706 JUMP JUMPDEST DUP2 EQ PUSH2 0x85F JUMPI PUSH1 0x0 DUP1 REVERT JUMPDEST POP JUMP JUMPDEST PUSH2 0x86B DUP2 PUSH2 0x752 JUMP JUMPDEST DUP2 EQ PUSH2 0x876 JUMPI PUSH1 0x0 DUP1 REVERT JUMPDEST POP JUMP INVALID LOG2 PUSH5 0x6970667358 0x22 SLT KECCAK256 GASPRICE 0xD3 SWAP12 PUSH16 0x6D5E56C9FCDA7A7159E44AEEEC2D192D 0xA5 ADD 0x29 0x27 STATICCALL REVERT DUP16 0xC9 0xC5 SHR 0xDA PC PUSH5 0x736F6C6343 STOP ADDMOD SMOD STOP CALLER "
				},
				"gasEstimates": {
					"creation": {
						"codeDepositCost": "444600",
						"executionCost": "480",
						"totalCost": "445080"
					},
					"external": {
						"ConsultarSaldo(bytes10)": "2899",
						"Depositar(uint256,bytes10)": "infinite",
						"RetirarSaldo(uint256,bytes10,address)": "infinite"
					}
				},
				"methodIdentifiers": {
					"ConsultarSaldo(bytes10)": "9dd44066",
					"Depositar(uint256,bytes10)": "95e8629a",
					"RetirarSaldo(uint256,bytes10,address)": "cd2a041f"
				}
			},
			"storageLayout": {
				"storage": [
					{
						"astId": 13,
						"contract": "contracts/Fácil/wallet/Depositar.sol:DepositarDinero",
						"label": "cuentas",
						"offset": 0,
						"slot": "0",
						"type": "t_mapping(t_address,t_mapping(t_bytes10,t_struct(Cuenta)6_storage))"
					}
				],
				"types": {
					"t_address": {
						"encoding": "inplace",
						"label": "address",
						"numberOfBytes": "20"
					},
					"t_bytes10": {
						"encoding": "inplace",
						"label": "bytes10",
						"numberOfBytes": "10"
					},
					"t_mapping(t_address,t_mapping(t_bytes10,t_struct(Cuenta)6_storage))": {
						"encoding": "mapping",
						"key": "t_address",
						"label": "mapping(address => mapping(bytes10 => struct DepositarDinero.Cuenta))",
						"numberOfBytes": "32",
						"value": "t_mapping(t_bytes10,t_struct(Cuenta)6_storage)"
					},
					"t_mapping(t_bytes10,t_struct(Cuenta)6_storage)": {
						"encoding": "mapping",
						"key": "t_bytes10",
						"label": "mapping(bytes10 => struct DepositarDinero.Cuenta)",
						"numberOfBytes": "32",
						"value": "t_struct(Cuenta)6_storage"
					},
					"t_struct(Cuenta)6_storage": {
						"encoding": "inplace",
						"label": "struct DepositarDinero.Cuenta",
						"members": [
							{
								"astId": 3,
								"contract": "contracts/Fácil/wallet/Depositar.sol:DepositarDinero",
								"label": "saldo",
								"offset": 0,
								"slot": "0",
								"type": "t_uint256"
							},
							{
								"astId": 5,
								"contract": "contracts/Fácil/wallet/Depositar.sol:DepositarDinero",
								"label": "moneda",
								"offset": 0,
								"slot": "1",
								"type": "t_bytes10"
							}
						],
						"numberOfBytes": "64"
					},
					"t_uint256": {
						"encoding": "inplace",
						"label": "uint256",
						"numberOfBytes": "32"
					}
				}
			},
			"userdoc": {
				"kind": "user",
				"methods": {},
				"version": 1
			}
		}
	}
}