{
  "contractName": "CristoDappTokenSale",
  "abi": [
    {
      "inputs": [
        {
          "internalType": "address",
          "name": "_token",
          "type": "address"
        }
      ],
      "stateMutability": "nonpayable",
      "type": "constructor"
    },
    {
      "anonymous": false,
      "inputs": [
        {
          "indexed": false,
          "internalType": "address",
          "name": "_buyer",
          "type": "address"
        },
        {
          "indexed": false,
          "internalType": "uint256",
          "name": "amount",
          "type": "uint256"
        },
        {
          "indexed": false,
          "internalType": "uint256",
          "name": "price",
          "type": "uint256"
        }
      ],
      "name": "sell",
      "type": "event"
    },
    {
      "inputs": [],
      "name": "owner",
      "outputs": [
        {
          "internalType": "address",
          "name": "",
          "type": "address"
        }
      ],
      "stateMutability": "view",
      "type": "function"
    },
    {
      "inputs": [],
      "name": "__tokens",
      "outputs": [
        {
          "internalType": "uint256",
          "name": "",
          "type": "uint256"
        }
      ],
      "stateMutability": "view",
      "type": "function"
    },
    {
      "inputs": [],
      "name": "__tokenPrice",
      "outputs": [
        {
          "internalType": "uint256",
          "name": "",
          "type": "uint256"
        }
      ],
      "stateMutability": "view",
      "type": "function"
    },
    {
      "inputs": [],
      "name": "endSale",
      "outputs": [],
      "stateMutability": "nonpayable",
      "type": "function"
    },
    {
      "inputs": [],
      "name": "totalTokens",
      "outputs": [
        {
          "internalType": "uint256",
          "name": "",
          "type": "uint256"
        }
      ],
      "stateMutability": "view",
      "type": "function"
    },
    {
      "inputs": [],
      "name": "tokenSold",
      "outputs": [
        {
          "internalType": "uint256",
          "name": "",
          "type": "uint256"
        }
      ],
      "stateMutability": "view",
      "type": "function"
    },
    {
      "inputs": [],
      "name": "__phases",
      "outputs": [
        {
          "components": [
            {
              "internalType": "uint256",
              "name": "total",
              "type": "uint256"
            },
            {
              "internalType": "uint256",
              "name": "price",
              "type": "uint256"
            },
            {
              "internalType": "uint256",
              "name": "phase",
              "type": "uint256"
            }
          ],
          "internalType": "struct CristoDappTokenSale.Phase[]",
          "name": "",
          "type": "tuple[]"
        }
      ],
      "stateMutability": "view",
      "type": "function"
    },
    {
      "inputs": [],
      "name": "currentPhase",
      "outputs": [
        {
          "components": [
            {
              "internalType": "uint256",
              "name": "total",
              "type": "uint256"
            },
            {
              "internalType": "uint256",
              "name": "price",
              "type": "uint256"
            },
            {
              "internalType": "uint256",
              "name": "phase",
              "type": "uint256"
            }
          ],
          "internalType": "struct CristoDappTokenSale.Phase",
          "name": "",
          "type": "tuple"
        }
      ],
      "stateMutability": "view",
      "type": "function"
    },
    {
      "inputs": [],
      "name": "__isOwner",
      "outputs": [
        {
          "internalType": "bool",
          "name": "",
          "type": "bool"
        }
      ],
      "stateMutability": "view",
      "type": "function"
    },
    {
      "inputs": [
        {
          "internalType": "uint256",
          "name": "_amount",
          "type": "uint256"
        }
      ],
      "name": "__amount",
      "outputs": [
        {
          "internalType": "uint256",
          "name": "",
          "type": "uint256"
        }
      ],
      "stateMutability": "pure",
      "type": "function"
    },
    {
      "inputs": [
        {
          "internalType": "uint256",
          "name": "amount",
          "type": "uint256"
        }
      ],
      "name": "buy",
      "outputs": [],
      "stateMutability": "payable",
      "type": "function"
    },
    {
      "inputs": [
        {
          "internalType": "uint256",
          "name": "phase_id",
          "type": "uint256"
        }
      ],
      "name": "phase",
      "outputs": [
        {
          "components": [
            {
              "internalType": "uint256",
              "name": "total",
              "type": "uint256"
            },
            {
              "internalType": "uint256",
              "name": "price",
              "type": "uint256"
            },
            {
              "internalType": "uint256",
              "name": "phase",
              "type": "uint256"
            }
          ],
          "internalType": "struct CristoDappTokenSale.Phase",
          "name": "",
          "type": "tuple"
        }
      ],
      "stateMutability": "view",
      "type": "function"
    }
  ],
  "bytecode": "0x60806040526000600460006101000a81548173ffffffffffffffffffffffffffffffffffffffff021916908373ffffffffffffffffffffffffffffffffffffffff1602179055503480156200005357600080fd5b50604051620016e5380380620016e583398181016040528101906200007991906200020c565b336000806101000a81548173ffffffffffffffffffffffffffffffffffffffff021916908373ffffffffffffffffffffffffffffffffffffffff16021790555080600560006101000a81548173ffffffffffffffffffffffffffffffffffffffff021916908373ffffffffffffffffffffffffffffffffffffffff16021790555065048c27395000600181905550600060068190555060006002819055506200012b6207a120620001d660201b60201c565b6003819055506000600190505b600a8111620001ce576007604051806060016040528061c35081526020016001548462000166919062000238565b815260200183815250908060018154018082558091505060019003906000526020600020906003020160009091909190915060008201518160000155602082015181600101556040820151816002015550508080620001c590620002d7565b91505062000138565b50506200036e565b6000670de0b6b3a764000082620001ee919062000238565b9050919050565b600081519050620002068162000354565b92915050565b6000602082840312156200021f57600080fd5b60006200022f84828501620001f5565b91505092915050565b60006200024582620002cd565b91506200025283620002cd565b9250817fffffffffffffffffffffffffffffffffffffffffffffffffffffffffffffffff04831182151516156200028e576200028d62000325565b5b828202905092915050565b6000620002a682620002ad565b9050919050565b600073ffffffffffffffffffffffffffffffffffffffff82169050919050565b6000819050919050565b6000620002e482620002cd565b91507fffffffffffffffffffffffffffffffffffffffffffffffffffffffffffffffff8214156200031a576200031962000325565b5b600182019050919050565b7f4e487b7100000000000000000000000000000000000000000000000000000000600052601160045260246000fd5b6200035f8162000299565b81146200036b57600080fd5b50565b611367806200037e6000396000f3fe6080604052600436106100a75760003560e01c80638da5cb5b116100645780638da5cb5b146101ac5780639dedf2e6146101d7578063cbfcd7c714610202578063d51cfd2f1461023f578063d96a094a1461026a578063e050915114610286576100a7565b8063055ad42e146100ac578063135f8aa7146100d7578063380d831b14610114578063519ee19e1461012b57806361fd6b72146101565780637e1c0c0914610181575b600080fd5b3480156100b857600080fd5b506100c16102b1565b6040516100ce9190610f01565b60405180910390f35b3480156100e357600080fd5b506100fe60048036038101906100f99190610c01565b6102c9565b60405161010b9190610f01565b60405180910390f35b34801561012057600080fd5b50610129610349565b005b34801561013757600080fd5b5061014061058c565b60405161014d9190610f1c565b60405180910390f35b34801561016257600080fd5b5061016b610596565b6040516101789190610e84565b60405180910390f35b34801561018d57600080fd5b50610196610613565b6040516101a39190610f1c565b60405180910390f35b3480156101b857600080fd5b506101c16106c4565b6040516101ce9190610e09565b60405180910390f35b3480156101e357600080fd5b506101ec6106e8565b6040516101f99190610f1c565b60405180910390f35b34801561020e57600080fd5b5061022960048036038101906102249190610c01565b6106f2565b6040516102369190610f1c565b60405180910390f35b34801561024b57600080fd5b5061025461070f565b6040516102619190610ea6565b60405180910390f35b610284600480360381019061027f9190610c01565b610766565b005b34801561029257600080fd5b5061029b610a9a565b6040516102a89190610f1c565b60405180910390f35b6102b9610b78565b6102c46006546102c9565b905090565b6102d1610b78565b6007828154811061030b577f4e487b7100000000000000000000000000000000000000000000000000000000600052603260045260246000fd5b906000526020600020906003020160405180606001604052908160008201548152602001600182015481526020016002820154815250509050919050565b60008054906101000a900473ffffffffffffffffffffffffffffffffffffffff1673ffffffffffffffffffffffffffffffffffffffff163373ffffffffffffffffffffffffffffffffffffffff16146103a157600080fd5b600560009054906101000a900473ffffffffffffffffffffffffffffffffffffffff1673ffffffffffffffffffffffffffffffffffffffff1663a9059cbb60008054906101000a900473ffffffffffffffffffffffffffffffffffffffff16600560009054906101000a900473ffffffffffffffffffffffffffffffffffffffff1673ffffffffffffffffffffffffffffffffffffffff166370a08231306040518263ffffffff1660e01b815260040161045b9190610e09565b60206040518083038186803b15801561047357600080fd5b505afa158015610487573d6000803e3d6000fd5b505050506040513d601f19601f820116820180604052508101906104ab9190610c2a565b6040518363ffffffff1660e01b81526004016104c8929190610e24565b602060405180830381600087803b1580156104e257600080fd5b505af11580156104f6573d6000803e3d6000fd5b505050506040513d601f19601f8201168201806040525081019061051a9190610bd8565b61052357600080fd5b60008054906101000a900473ffffffffffffffffffffffffffffffffffffffff1673ffffffffffffffffffffffffffffffffffffffff166108fc479081150290604051600060405180830381858888f19350505050158015610589573d6000803e3d6000fd5b50565b6000600254905090565b60606007805480602002602001604051908101604052809291908181526020016000905b8282101561060a57838290600052602060002090600302016040518060600160405290816000820154815260200160018201548152602001600282015481525050815260200190600101906105ba565b50505050905090565b60006106bf600560009054906101000a900473ffffffffffffffffffffffffffffffffffffffff1673ffffffffffffffffffffffffffffffffffffffff166318160ddd6040518163ffffffff1660e01b815260040160206040518083038186803b15801561068057600080fd5b505afa158015610694573d6000803e3d6000fd5b505050506040513d601f19601f820116820180604052508101906106b89190610c2a565b6012610b56565b905090565b60008054906101000a900473ffffffffffffffffffffffffffffffffffffffff1681565b6000600154905090565b6000670de0b6b3a7640000826107089190611179565b9050919050565b60008060009054906101000a900473ffffffffffffffffffffffffffffffffffffffff1673ffffffffffffffffffffffffffffffffffffffff163373ffffffffffffffffffffffffffffffffffffffff1614905090565b806107726006546102c9565b60200151346107819190610fd7565b1461078b57600080fd5b610794816106f2565b61079f6006546102c9565b6000015111156107e4576040517f08c379a00000000000000000000000000000000000000000000000000000000081526004016107db90610ec1565b60405180910390fd5b6107ed816106f2565b600560009054906101000a900473ffffffffffffffffffffffffffffffffffffffff1673ffffffffffffffffffffffffffffffffffffffff166370a08231306040518263ffffffff1660e01b81526004016108489190610e09565b60206040518083038186803b15801561086057600080fd5b505afa158015610874573d6000803e3d6000fd5b505050506040513d601f19601f820116820180604052508101906108989190610c2a565b10156108d9576040517f08c379a00000000000000000000000000000000000000000000000000000000081526004016108d090610ee1565b60405180910390fd5b600560009054906101000a900473ffffffffffffffffffffffffffffffffffffffff1673ffffffffffffffffffffffffffffffffffffffff1663a9059cbb33610921846106f2565b6040518363ffffffff1660e01b815260040161093e929190610e24565b602060405180830381600087803b15801561095857600080fd5b505af115801561096c573d6000803e3d6000fd5b505050506040513d601f19601f820116820180604052508101906109909190610bd8565b61099957600080fd5b80600260008282546109ab9190610f81565b92505081905550806007600654815481106109ef577f4e487b7100000000000000000000000000000000000000000000000000000000600052603260045260246000fd5b90600052602060002090600302016000016000828254610a0f91906111d3565b925050819055506000610a236006546102c9565b6000015111610a455760066000815480929190610a3f9061124f565b91905055505b610a506006546102c9565b602001516001819055507f6a2724624e431447b8377988749647ad8f645528473ec819288f5f3f6ae36ce33382600154604051610a8f93929190610e4d565b60405180910390a150565b6000610b51600560009054906101000a900473ffffffffffffffffffffffffffffffffffffffff1673ffffffffffffffffffffffffffffffffffffffff166370a08231336040518263ffffffff1660e01b8152600401610afa9190610e09565b60206040518083038186803b158015610b1257600080fd5b505afa158015610b26573d6000803e3d6000fd5b505050506040513d601f19601f82011682018060405250810190610b4a9190610c2a565b6012610b56565b905090565b600081600a610b65919061105b565b83610b709190610fd7565b905092915050565b60405180606001604052806000815260200160008152602001600081525090565b600081519050610ba881611303565b92915050565b600081359050610bbd8161131a565b92915050565b600081519050610bd28161131a565b92915050565b600060208284031215610bea57600080fd5b6000610bf884828501610b99565b91505092915050565b600060208284031215610c1357600080fd5b6000610c2184828501610bae565b91505092915050565b600060208284031215610c3c57600080fd5b6000610c4a84828501610bc3565b91505092915050565b6000610c5f8383610d67565b60608301905092915050565b610c7481611207565b82525050565b6000610c8582610f47565b610c8f8185610f5f565b9350610c9a83610f37565b8060005b83811015610ccb578151610cb28882610c53565b9750610cbd83610f52565b925050600181019050610c9e565b5085935050505092915050565b610ce181611219565b82525050565b6000610cf4601183610f70565b91507f4572726f72206c6f772062616c616e63650000000000000000000000000000006000830152602082019050919050565b6000610d34600883610f70565b91507f536f6c64206f75740000000000000000000000000000000000000000000000006000830152602082019050919050565b606082016000820151610d7d6000850182610deb565b506020820151610d906020850182610deb565b506040820151610da36040850182610deb565b50505050565b606082016000820151610dbf6000850182610deb565b506020820151610dd26020850182610deb565b506040820151610de56040850182610deb565b50505050565b610df481611245565b82525050565b610e0381611245565b82525050565b6000602082019050610e1e6000830184610c6b565b92915050565b6000604082019050610e396000830185610c6b565b610e466020830184610dfa565b9392505050565b6000606082019050610e626000830186610c6b565b610e6f6020830185610dfa565b610e7c6040830184610dfa565b949350505050565b60006020820190508181036000830152610e9e8184610c7a565b905092915050565b6000602082019050610ebb6000830184610cd8565b92915050565b60006020820190508181036000830152610eda81610ce7565b9050919050565b60006020820190508181036000830152610efa81610d27565b9050919050565b6000606082019050610f166000830184610da9565b92915050565b6000602082019050610f316000830184610dfa565b92915050565b6000819050602082019050919050565b600081519050919050565b6000602082019050919050565b600082825260208201905092915050565b600082825260208201905092915050565b6000610f8c82611245565b9150610f9783611245565b9250827fffffffffffffffffffffffffffffffffffffffffffffffffffffffffffffffff03821115610fcc57610fcb611298565b5b828201905092915050565b6000610fe282611245565b9150610fed83611245565b925082610ffd57610ffc6112c7565b5b828204905092915050565b6000808291508390505b60018511156110525780860481111561102e5761102d611298565b5b600185161561103d5780820291505b808102905061104b856112f6565b9450611012565b94509492505050565b600061106682611245565b915061107183611245565b925061109e7fffffffffffffffffffffffffffffffffffffffffffffffffffffffffffffffff84846110a6565b905092915050565b6000826110b65760019050611172565b816110c45760009050611172565b81600181146110da57600281146110e457611113565b6001915050611172565b60ff8411156110f6576110f5611298565b5b8360020a91508482111561110d5761110c611298565b5b50611172565b5060208310610133831016604e8410600b84101617156111485782820a90508381111561114357611142611298565b5b611172565b6111558484846001611008565b9250905081840481111561116c5761116b611298565b5b81810290505b9392505050565b600061118482611245565b915061118f83611245565b9250817fffffffffffffffffffffffffffffffffffffffffffffffffffffffffffffffff04831182151516156111c8576111c7611298565b5b828202905092915050565b60006111de82611245565b91506111e983611245565b9250828210156111fc576111fb611298565b5b828203905092915050565b600061121282611225565b9050919050565b60008115159050919050565b600073ffffffffffffffffffffffffffffffffffffffff82169050919050565b6000819050919050565b600061125a82611245565b91507fffffffffffffffffffffffffffffffffffffffffffffffffffffffffffffffff82141561128d5761128c611298565b5b600182019050919050565b7f4e487b7100000000000000000000000000000000000000000000000000000000600052601160045260246000fd5b7f4e487b7100000000000000000000000000000000000000000000000000000000600052601260045260246000fd5b60008160011c9050919050565b61130c81611219565b811461131757600080fd5b50565b61132381611245565b811461132e57600080fd5b5056fea2646970667358221220890c044ca1a1c0d339670c5959f9c037b5f0eaffaf78519bbaa03d0b3be500b564736f6c63430008000033",
  "immutableReferences": {},
  "source": "// SPDX-License-Identifier: MIT\r\npragma solidity ^0.8.0;\r\nimport \"@openzeppelin/contracts/token/ERC20/ERC20.sol\";\r\n\r\ncontract CristoDappTokenSale{\r\n    address public owner;\r\n    uint private buyprice;\r\n    uint private sold ;\r\n    uint private toSold;\r\n    address noOne = address(0);\r\n    IERC20 private token;\r\n    uint private currentPhaseIndex;\r\n\r\n    struct Phase { // fase actual\r\n        uint total;\r\n        uint price;\r\n        uint phase;\r\n\r\n    }\r\n    Phase[] private phases;\r\n     event sell(address _buyer, uint amount, uint price);\r\n\r\n    constructor(address _token){\r\n        owner= msg.sender;\r\n        token = IERC20( _token);\r\n        buyprice = 0.000005 * 10**18;\r\n        currentPhaseIndex = 0;\r\n        sold = 0;\r\n        toSold = __amount(500000); //aqui se pone la cantidad de la vent publica\r\n\r\n        for(uint i=1; i<=10; i++){ // 10 fases , y en cada fase va aumentando el precio\r\n            phases.push(Phase(50000, i*buyprice, i)); \r\n        }\r\n\r\n    }\r\n    function __unAmount(uint256 _amount, uint256 decimals) private pure returns(uint) {\r\n        return _amount / (10**decimals);\r\n\r\n    }\r\n\r\n    function __tokens() public view returns(uint){\r\n        return __unAmount(token.balanceOf(msg.sender), 18); //tokens que tiene el que llama la funcin\r\n\r\n    }\r\n    function __tokenPrice() public view returns(uint){\r\n        return buyprice;\r\n    }\r\n    function endSale() external isOwner{\r\n        require(token.transfer(owner, token.balanceOf(address(this))));\r\n        payable(owner).transfer(address(this).balance);\r\n\r\n    }\r\n    function totalTokens() public view returns(uint){\r\n      return __unAmount(token.totalSupply(), 18);\r\n\r\n    }\r\n\r\n    function tokenSold() public view returns(uint){\r\n        return sold;\r\n    }\r\n    function __phases() external view returns(Phase [] memory) {\r\n        return phases;\r\n    }\r\n    function currentPhase() external view returns(Phase memory){\r\n        return phase(currentPhaseIndex);\r\n    }\r\n\r\n    function __isOwner()public view returns(bool) {\r\n        return msg.sender == owner;\r\n    }\r\n\r\n    function __amount(uint _amount) public pure returns(uint){// calcula el amount a wei\r\n        return _amount * (10**18);\r\n    }\r\n\r\n    function buy(uint amount) public payable{\r\n        require(msg.value/phase(currentPhaseIndex).price== amount);\r\n        require(phase(currentPhaseIndex).total <= __amount(amount), 'Error low balance');\r\n        require(token.balanceOf(address(this)) >= __amount(amount), 'Sold out');\r\n        require(token.transfer(msg.sender, __amount(amount)));\r\n\r\n         sold += amount;\r\n        phases[currentPhaseIndex].total -= amount;\r\n        if(phase(currentPhaseIndex).total <= 0)\r\n            currentPhaseIndex++;\r\n\r\n        buyprice = phase(currentPhaseIndex).price;\r\n\r\n        emit sell(msg.sender, amount, buyprice);\r\n    }\r\n\r\n    \r\n    function phase(uint phase_id) public view returns(Phase memory){\r\n        return phases[phase_id];\r\n    }\r\n    \r\n\r\n     modifier isOwner{\r\n        require(msg.sender == owner);\r\n        _;\r\n    }\r\n\r\n\r\n\r\n}",
  "sourcePath": "C:\\Users\\crlt2\\OneDrive\\Escritorio\\shop\\contracts\\CristoDappTokenSale.sol",
  "compiler": {
    "name": "solc",
    "version": "0.8.0+commit.c7dfd78e.Emscripten.clang"
  },
  "schemaVersion": "3.4.12",
  "updatedAt": "2023-03-02T18:49:32.883Z",
  "devdoc": {
    "kind": "dev",
    "methods": {},
    "version": 1
  },
  "userdoc": {
    "kind": "user",
    "methods": {},
    "version": 1
  }
}