{
  "contractName": "CristoDapp",
  "abi": [
    {
      "inputs": [
        {
          "internalType": "address",
          "name": "_token",
          "type": "address"
        }
      ],
      "stateMutability": "nonpayable",
      "type": "constructor"
    },
    {
      "anonymous": false,
      "inputs": [
        {
          "indexed": true,
          "internalType": "address",
          "name": "owner",
          "type": "address"
        },
        {
          "indexed": false,
          "internalType": "string",
          "name": "name",
          "type": "string"
        },
        {
          "indexed": false,
          "internalType": "uint256",
          "name": "price",
          "type": "uint256"
        }
      ],
      "name": "ProductAdd",
      "type": "event"
    },
    {
      "anonymous": false,
      "inputs": [
        {
          "indexed": true,
          "internalType": "address",
          "name": "user",
          "type": "address"
        },
        {
          "indexed": false,
          "internalType": "address",
          "name": "owner",
          "type": "address"
        },
        {
          "indexed": false,
          "internalType": "uint256",
          "name": "price",
          "type": "uint256"
        }
      ],
      "name": "ProductPurchase",
      "type": "event"
    },
    {
      "inputs": [],
      "name": "owner",
      "outputs": [
        {
          "internalType": "address",
          "name": "",
          "type": "address"
        }
      ],
      "stateMutability": "view",
      "type": "function"
    },
    {
      "inputs": [
        {
          "internalType": "address",
          "name": "",
          "type": "address"
        }
      ],
      "name": "users",
      "outputs": [
        {
          "internalType": "string",
          "name": "name",
          "type": "string"
        },
        {
          "internalType": "string",
          "name": "contact",
          "type": "string"
        },
        {
          "internalType": "bool",
          "name": "updated",
          "type": "bool"
        },
        {
          "internalType": "uint256",
          "name": "totalproducts",
          "type": "uint256"
        }
      ],
      "stateMutability": "view",
      "type": "function"
    },
    {
      "inputs": [
        {
          "internalType": "uint256",
          "name": "percent",
          "type": "uint256"
        }
      ],
      "name": "setSecureAddPercent",
      "outputs": [],
      "stateMutability": "nonpayable",
      "type": "function"
    },
    {
      "inputs": [
        {
          "internalType": "uint256",
          "name": "_amount",
          "type": "uint256"
        }
      ],
      "name": "__PercentValue",
      "outputs": [
        {
          "internalType": "uint256",
          "name": "",
          "type": "uint256"
        }
      ],
      "stateMutability": "view",
      "type": "function"
    },
    {
      "inputs": [
        {
          "internalType": "uint256",
          "name": "_amount",
          "type": "uint256"
        }
      ],
      "name": "__amount",
      "outputs": [
        {
          "internalType": "uint256",
          "name": "",
          "type": "uint256"
        }
      ],
      "stateMutability": "pure",
      "type": "function"
    },
    {
      "inputs": [
        {
          "internalType": "string",
          "name": "name",
          "type": "string"
        },
        {
          "internalType": "string",
          "name": "desc",
          "type": "string"
        },
        {
          "internalType": "string",
          "name": "section",
          "type": "string"
        },
        {
          "internalType": "uint256",
          "name": "price",
          "type": "uint256"
        }
      ],
      "name": "addProduct",
      "outputs": [],
      "stateMutability": "nonpayable",
      "type": "function"
    },
    {
      "inputs": [
        {
          "internalType": "uint256",
          "name": "product_id",
          "type": "uint256"
        },
        {
          "internalType": "uint256",
          "name": "price",
          "type": "uint256"
        }
      ],
      "name": "updateProductPrice",
      "outputs": [],
      "stateMutability": "nonpayable",
      "type": "function"
    },
    {
      "inputs": [
        {
          "internalType": "string",
          "name": "contact",
          "type": "string"
        },
        {
          "internalType": "string",
          "name": "name",
          "type": "string"
        }
      ],
      "name": "updateUserContact",
      "outputs": [],
      "stateMutability": "nonpayable",
      "type": "function"
    },
    {
      "inputs": [
        {
          "internalType": "uint256",
          "name": "product_id",
          "type": "uint256"
        }
      ],
      "name": "buyProduct",
      "outputs": [],
      "stateMutability": "nonpayable",
      "type": "function"
    },
    {
      "inputs": [],
      "name": "totalUsers",
      "outputs": [
        {
          "internalType": "uint256",
          "name": "",
          "type": "uint256"
        }
      ],
      "stateMutability": "view",
      "type": "function"
    },
    {
      "inputs": [],
      "name": "getProducts",
      "outputs": [
        {
          "components": [
            {
              "internalType": "string",
              "name": "name",
              "type": "string"
            },
            {
              "internalType": "string",
              "name": "desc",
              "type": "string"
            },
            {
              "internalType": "string",
              "name": "section",
              "type": "string"
            },
            {
              "internalType": "uint256",
              "name": "price",
              "type": "uint256"
            },
            {
              "internalType": "address",
              "name": "owner",
              "type": "address"
            },
            {
              "internalType": "address",
              "name": "reserved_by",
              "type": "address"
            }
          ],
          "internalType": "struct CristoDapp.Product[]",
          "name": "",
          "type": "tuple[]"
        }
      ],
      "stateMutability": "view",
      "type": "function"
    },
    {
      "inputs": [
        {
          "internalType": "uint256",
          "name": "product_id",
          "type": "uint256"
        }
      ],
      "name": "getProduct",
      "outputs": [
        {
          "components": [
            {
              "internalType": "string",
              "name": "name",
              "type": "string"
            },
            {
              "internalType": "string",
              "name": "desc",
              "type": "string"
            },
            {
              "internalType": "string",
              "name": "section",
              "type": "string"
            },
            {
              "internalType": "uint256",
              "name": "price",
              "type": "uint256"
            },
            {
              "internalType": "address",
              "name": "owner",
              "type": "address"
            },
            {
              "internalType": "address",
              "name": "reserved_by",
              "type": "address"
            }
          ],
          "internalType": "struct CristoDapp.Product",
          "name": "",
          "type": "tuple"
        }
      ],
      "stateMutability": "view",
      "type": "function"
    },
    {
      "inputs": [
        {
          "internalType": "address",
          "name": "userAddress",
          "type": "address"
        }
      ],
      "name": "getUser",
      "outputs": [
        {
          "components": [
            {
              "internalType": "string",
              "name": "name",
              "type": "string"
            },
            {
              "internalType": "string",
              "name": "contact",
              "type": "string"
            },
            {
              "internalType": "bool",
              "name": "updated",
              "type": "bool"
            },
            {
              "internalType": "uint256",
              "name": "totalproducts",
              "type": "uint256"
            },
            {
              "internalType": "uint256[]",
              "name": "products",
              "type": "uint256[]"
            }
          ],
          "internalType": "struct CristoDapp.User",
          "name": "",
          "type": "tuple"
        }
      ],
      "stateMutability": "view",
      "type": "function"
    },
    {
      "inputs": [
        {
          "internalType": "address payable",
          "name": "account",
          "type": "address"
        }
      ],
      "name": "withdrawBNB",
      "outputs": [],
      "stateMutability": "nonpayable",
      "type": "function"
    },
    {
      "inputs": [
        {
          "internalType": "address",
          "name": "to",
          "type": "address"
        },
        {
          "internalType": "uint256",
          "name": "amount",
          "type": "uint256"
        }
      ],
      "name": "withdraw",
      "outputs": [],
      "stateMutability": "nonpayable",
      "type": "function"
    }
  ],
  "bytecode": "0x608060405260056001556000600260006101000a81548173ffffffffffffffffffffffffffffffffffffffff021916908373ffffffffffffffffffffffffffffffffffffffff1602179055503480156200005857600080fd5b50604051620029a2380380620029a283398181016040528101906200007e919062000125565b336000806101000a81548173ffffffffffffffffffffffffffffffffffffffff021916908373ffffffffffffffffffffffffffffffffffffffff16021790555080600360006101000a81548173ffffffffffffffffffffffffffffffffffffffff021916908373ffffffffffffffffffffffffffffffffffffffff1602179055506000600681905550506200019f565b6000815190506200011f8162000185565b92915050565b6000602082840312156200013857600080fd5b600062000148848285016200010e565b91505092915050565b60006200015e8262000165565b9050919050565b600073ffffffffffffffffffffffffffffffffffffffff82169050919050565b620001908162000151565b81146200019c57600080fd5b50565b6127f380620001af6000396000f3fe608060405234801561001057600080fd5b50600436106100f55760003560e01c80639c3bddb211610097578063c29b2f2011610066578063c29b2f2014610285578063cbfcd7c7146102a3578063d43ca177146102d3578063f3fef3a3146102ef576100f5565b80639c3bddb2146101e8578063a87430ba14610204578063b9db15b414610237578063bff1f9e114610267576100f5565b806372609471116100d357806372609471146101765780638165fed5146101925780638642269e146101ae5780638da5cb5b146101ca576100f5565b806301e57447146100fa578063621ec9cd1461012a5780636f77926b14610146575b600080fd5b610114600480360381019061010f9190611c43565b61030b565b6040516101219190612376565b60405180910390f35b610144600480360381019061013f9190611b2c565b61032e565b005b610160600480360381019061015b9190611a75565b61044f565b60405161016d9190612354565b60405180910390f35b610190600480360381019061018b9190611a9e565b610649565b005b6101ac60048036038101906101a79190611b98565b61071b565b005b6101c860048036038101906101c39190611c43565b610933565b005b6101d2610b59565b6040516101df9190612189565b60405180910390f35b61020260048036038101906101fd9190611c95565b610b7d565b005b61021e60048036038101906102199190611a75565b610d14565b60405161022e949392919061224f565b60405180910390f35b610251600480360381019061024c9190611c43565b610e61565b60405161025e9190612332565b60405180910390f35b61026f61112f565b60405161027c9190612376565b60405180910390f35b61028d611139565b60405161029a919061222d565b60405180910390f35b6102bd60048036038101906102b89190611c43565b611404565b6040516102ca9190612376565b60405180910390f35b6102ed60048036038101906102e89190611c43565b611421565b005b61030960048036038101906103049190611ac7565b611483565b005b600060648260015461031d9190612523565b61032791906124f2565b9050919050565b600260009054906101000a900473ffffffffffffffffffffffffffffffffffffffff1673ffffffffffffffffffffffffffffffffffffffff163373ffffffffffffffffffffffffffffffffffffffff16141561038957600080fd5b6000600560003373ffffffffffffffffffffffffffffffffffffffff1673ffffffffffffffffffffffffffffffffffffffff1681526020019081526020016000209050828160010190805190602001906103e492919061186e565b50818160000190805190602001906103fd92919061186e565b508060020160009054906101000a900460ff1661042d57600660008154809291906104279061264b565b91905055505b60018160020160006101000a81548160ff021916908315150217905550505050565b6104576118f4565b600560008373ffffffffffffffffffffffffffffffffffffffff1673ffffffffffffffffffffffffffffffffffffffff1681526020019081526020016000206040518060a00160405290816000820180546104b190612619565b80601f01602080910402602001604051908101604052809291908181526020018280546104dd90612619565b801561052a5780601f106104ff5761010080835404028352916020019161052a565b820191906000526020600020905b81548152906001019060200180831161050d57829003601f168201915b5050505050815260200160018201805461054390612619565b80601f016020809104026020016040519081016040528092919081815260200182805461056f90612619565b80156105bc5780601f10610591576101008083540402835291602001916105bc565b820191906000526020600020905b81548152906001019060200180831161059f57829003601f168201915b505050505081526020016002820160009054906101000a900460ff16151515158152602001600382015481526020016004820180548060200260200160405190810160405280929190818152602001828054801561063957602002820191906000526020600020905b815481526020019060010190808311610625575b5050505050815250509050919050565b60008054906101000a900473ffffffffffffffffffffffffffffffffffffffff1673ffffffffffffffffffffffffffffffffffffffff163373ffffffffffffffffffffffffffffffffffffffff16146106a157600080fd5b60008173ffffffffffffffffffffffffffffffffffffffff16476040516106c790612174565b60006040518083038185875af1925050503d8060008114610704576040519150601f19603f3d011682016040523d82523d6000602084013e610709565b606091505b505090508061071757600080fd5b5050565b6107363061073061072b8461030b565b611404565b33611597565b60046040518060c0016040528086815260200185815260200184815260200161075e84611404565b81526020013373ffffffffffffffffffffffffffffffffffffffff168152602001600260009054906101000a900473ffffffffffffffffffffffffffffffffffffffff1673ffffffffffffffffffffffffffffffffffffffff168152509080600181540180825580915050600190039060005260206000209060060201600090919091909150600082015181600001908051906020019061080092919061186e565b50602082015181600101908051906020019061081d92919061186e565b50604082015181600201908051906020019061083a92919061186e565b506060820151816003015560808201518160040160006101000a81548173ffffffffffffffffffffffffffffffffffffffff021916908373ffffffffffffffffffffffffffffffffffffffff16021790555060a08201518160050160006101000a81548173ffffffffffffffffffffffffffffffffffffffff021916908373ffffffffffffffffffffffffffffffffffffffff16021790555050503373ffffffffffffffffffffffffffffffffffffffff167f9b5b6179e7b357b8848abb1ce624826221c42811a51fc631c436a7953b2eb2c58561091784611404565b6040516109259291906122a2565b60405180910390a250505050565b60006004828154811061096f577f4e487b7100000000000000000000000000000000000000000000000000000000600052603260045260246000fd5b906000526020600020906006020190508060040160009054906101000a900473ffffffffffffffffffffffffffffffffffffffff1673ffffffffffffffffffffffffffffffffffffffff163373ffffffffffffffffffffffffffffffffffffffff1614156109dc57600080fd5b610a0f8160040160009054906101000a900473ffffffffffffffffffffffffffffffffffffffff16826003015433611597565b6000600560003373ffffffffffffffffffffffffffffffffffffffff1673ffffffffffffffffffffffffffffffffffffffff16815260200190815260200160002090506001816003016000828254610a67919061249c565b9250508190555080600401839080600181540180825580915050600190039060005260206000200160009091909190915055338260050160006101000a81548173ffffffffffffffffffffffffffffffffffffffff021916908373ffffffffffffffffffffffffffffffffffffffff1602179055503373ffffffffffffffffffffffffffffffffffffffff167f52fd9114a926713d55020a31bf73dcee3d85efee5dbddd2f60610ced8189d0ba8360040160009054906101000a900473ffffffffffffffffffffffffffffffffffffffff168460030154604051610b4c929190612204565b60405180910390a2505050565b60008054906101000a900473ffffffffffffffffffffffffffffffffffffffff1681565b600260009054906101000a900473ffffffffffffffffffffffffffffffffffffffff1673ffffffffffffffffffffffffffffffffffffffff163373ffffffffffffffffffffffffffffffffffffffff161415610bd857600080fd5b600060048381548110610c14577f4e487b7100000000000000000000000000000000000000000000000000000000600052603260045260246000fd5b906000526020600020906006020190508060040160009054906101000a900473ffffffffffffffffffffffffffffffffffffffff1673ffffffffffffffffffffffffffffffffffffffff163373ffffffffffffffffffffffffffffffffffffffff1614610c8057600080fd5b600260009054906101000a900473ffffffffffffffffffffffffffffffffffffffff1673ffffffffffffffffffffffffffffffffffffffff168160050160009054906101000a900473ffffffffffffffffffffffffffffffffffffffff1673ffffffffffffffffffffffffffffffffffffffff1614610cfe57600080fd5b610d0782611404565b8160030181905550505050565b6005602052806000526040600020600091509050806000018054610d3790612619565b80601f0160208091040260200160405190810160405280929190818152602001828054610d6390612619565b8015610db05780601f10610d8557610100808354040283529160200191610db0565b820191906000526020600020905b815481529060010190602001808311610d9357829003601f168201915b505050505090806001018054610dc590612619565b80601f0160208091040260200160405190810160405280929190818152602001828054610df190612619565b8015610e3e5780601f10610e1357610100808354040283529160200191610e3e565b820191906000526020600020905b815481529060010190602001808311610e2157829003601f168201915b5050505050908060020160009054906101000a900460ff16908060030154905084565b610e69611925565b60048281548110610ea3577f4e487b7100000000000000000000000000000000000000000000000000000000600052603260045260246000fd5b90600052602060002090600602016040518060c0016040529081600082018054610ecc90612619565b80601f0160208091040260200160405190810160405280929190818152602001828054610ef890612619565b8015610f455780601f10610f1a57610100808354040283529160200191610f45565b820191906000526020600020905b815481529060010190602001808311610f2857829003601f168201915b50505050508152602001600182018054610f5e90612619565b80601f0160208091040260200160405190810160405280929190818152602001828054610f8a90612619565b8015610fd75780601f10610fac57610100808354040283529160200191610fd7565b820191906000526020600020905b815481529060010190602001808311610fba57829003601f168201915b50505050508152602001600282018054610ff090612619565b80601f016020809104026020016040519081016040528092919081815260200182805461101c90612619565b80156110695780601f1061103e57610100808354040283529160200191611069565b820191906000526020600020905b81548152906001019060200180831161104c57829003601f168201915b50505050508152602001600382015481526020016004820160009054906101000a900473ffffffffffffffffffffffffffffffffffffffff1673ffffffffffffffffffffffffffffffffffffffff1673ffffffffffffffffffffffffffffffffffffffff1681526020016005820160009054906101000a900473ffffffffffffffffffffffffffffffffffffffff1673ffffffffffffffffffffffffffffffffffffffff1673ffffffffffffffffffffffffffffffffffffffff16815250509050919050565b6000600654905090565b60606004805480602002602001604051908101604052809291908181526020016000905b828210156113fb57838290600052602060002090600602016040518060c001604052908160008201805461119090612619565b80601f01602080910402602001604051908101604052809291908181526020018280546111bc90612619565b80156112095780601f106111de57610100808354040283529160200191611209565b820191906000526020600020905b8154815290600101906020018083116111ec57829003601f168201915b5050505050815260200160018201805461122290612619565b80601f016020809104026020016040519081016040528092919081815260200182805461124e90612619565b801561129b5780601f106112705761010080835404028352916020019161129b565b820191906000526020600020905b81548152906001019060200180831161127e57829003601f168201915b505050505081526020016002820180546112b490612619565b80601f01602080910402602001604051908101604052809291908181526020018280546112e090612619565b801561132d5780601f106113025761010080835404028352916020019161132d565b820191906000526020600020905b81548152906001019060200180831161131057829003601f168201915b50505050508152602001600382015481526020016004820160009054906101000a900473ffffffffffffffffffffffffffffffffffffffff1673ffffffffffffffffffffffffffffffffffffffff1673ffffffffffffffffffffffffffffffffffffffff1681526020016005820160009054906101000a900473ffffffffffffffffffffffffffffffffffffffff1673ffffffffffffffffffffffffffffffffffffffff1673ffffffffffffffffffffffffffffffffffffffff16815250508152602001906001019061115d565b50505050905090565b6000670de0b6b3a76400008261141a9190612523565b9050919050565b60008054906101000a900473ffffffffffffffffffffffffffffffffffffffff1673ffffffffffffffffffffffffffffffffffffffff163373ffffffffffffffffffffffffffffffffffffffff161461147957600080fd5b8060018190555050565b60008054906101000a900473ffffffffffffffffffffffffffffffffffffffff1673ffffffffffffffffffffffffffffffffffffffff163373ffffffffffffffffffffffffffffffffffffffff16146114db57600080fd5b600360009054906101000a900473ffffffffffffffffffffffffffffffffffffffff1673ffffffffffffffffffffffffffffffffffffffff1663a9059cbb83836040518363ffffffff1660e01b8152600401611538929190612204565b602060405180830381600087803b15801561155257600080fd5b505af1158015611566573d6000803e3d6000fd5b505050506040513d601f19601f8201168201806040525081019061158a9190611b03565b61159357600080fd5b5050565b600360009054906101000a900473ffffffffffffffffffffffffffffffffffffffff1673ffffffffffffffffffffffffffffffffffffffff166370a08231826040518263ffffffff1660e01b81526004016115f29190612189565b60206040518083038186803b15801561160a57600080fd5b505afa15801561161e573d6000803e3d6000fd5b505050506040513d601f19601f820116820180604052508101906116429190611c6c565b821115611684576040517f08c379a000000000000000000000000000000000000000000000000000000000815260040161167b906122f2565b60405180910390fd5b81600360009054906101000a900473ffffffffffffffffffffffffffffffffffffffff1673ffffffffffffffffffffffffffffffffffffffff1663dd62ed3e83306040518363ffffffff1660e01b81526004016116e29291906121a4565b60206040518083038186803b1580156116fa57600080fd5b505afa15801561170e573d6000803e3d6000fd5b505050506040513d601f19601f820116820180604052508101906117329190611c6c565b1015611773576040517f08c379a000000000000000000000000000000000000000000000000000000000815260040161176a906122d2565b60405180910390fd5b6000600360009054906101000a900473ffffffffffffffffffffffffffffffffffffffff1673ffffffffffffffffffffffffffffffffffffffff166323b872dd8386866040518463ffffffff1660e01b81526004016117d4939291906121cd565b602060405180830381600087803b1580156117ee57600080fd5b505af1158015611802573d6000803e3d6000fd5b505050506040513d601f19601f820116820180604052508101906118269190611b03565b905080611868576040517f08c379a000000000000000000000000000000000000000000000000000000000815260040161185f90612312565b60405180910390fd5b50505050565b82805461187a90612619565b90600052602060002090601f01602090048101928261189c57600085556118e3565b82601f106118b557805160ff19168380011785556118e3565b828001600101855582156118e3579182015b828111156118e25782518255916020019190600101906118c7565b5b5090506118f09190611987565b5090565b6040518060a00160405280606081526020016060815260200160001515815260200160008152602001606081525090565b6040518060c0016040528060608152602001606081526020016060815260200160008152602001600073ffffffffffffffffffffffffffffffffffffffff168152602001600073ffffffffffffffffffffffffffffffffffffffff1681525090565b5b808211156119a0576000816000905550600101611988565b5090565b60006119b76119b2846123c2565b612391565b9050828152602081018484840111156119cf57600080fd5b6119da8482856125d7565b509392505050565b6000813590506119f181612761565b92915050565b600081359050611a0681612778565b92915050565b600081519050611a1b8161278f565b92915050565b600082601f830112611a3257600080fd5b8135611a428482602086016119a4565b91505092915050565b600081359050611a5a816127a6565b92915050565b600081519050611a6f816127a6565b92915050565b600060208284031215611a8757600080fd5b6000611a95848285016119e2565b91505092915050565b600060208284031215611ab057600080fd5b6000611abe848285016119f7565b91505092915050565b60008060408385031215611ada57600080fd5b6000611ae8858286016119e2565b9250506020611af985828601611a4b565b9150509250929050565b600060208284031215611b1557600080fd5b6000611b2384828501611a0c565b91505092915050565b60008060408385031215611b3f57600080fd5b600083013567ffffffffffffffff811115611b5957600080fd5b611b6585828601611a21565b925050602083013567ffffffffffffffff811115611b8257600080fd5b611b8e85828601611a21565b9150509250929050565b60008060008060808587031215611bae57600080fd5b600085013567ffffffffffffffff811115611bc857600080fd5b611bd487828801611a21565b945050602085013567ffffffffffffffff811115611bf157600080fd5b611bfd87828801611a21565b935050604085013567ffffffffffffffff811115611c1a57600080fd5b611c2687828801611a21565b9250506060611c3787828801611a4b565b91505092959194509250565b600060208284031215611c5557600080fd5b6000611c6384828501611a4b565b91505092915050565b600060208284031215611c7e57600080fd5b6000611c8c84828501611a60565b91505092915050565b60008060408385031215611ca857600080fd5b6000611cb685828601611a4b565b9250506020611cc785828601611a4b565b9150509250929050565b6000611cdd8383611fa4565b905092915050565b6000611cf18383612156565b60208301905092915050565b611d068161257d565b82525050565b611d158161257d565b82525050565b6000611d2682612412565b611d30818561244d565b935083602082028501611d42856123f2565b8060005b85811015611d7e5784840389528151611d5f8582611cd1565b9450611d6a83612433565b925060208a01995050600181019050611d46565b50829750879550505050505092915050565b6000611d9b8261241d565b611da5818561245e565b9350611db083612402565b8060005b83811015611de1578151611dc88882611ce5565b9750611dd383612440565b925050600181019050611db4565b5085935050505092915050565b611df7816125a1565b82525050565b611e06816125a1565b82525050565b6000611e1782612428565b611e21818561247a565b9350611e318185602086016125e6565b611e3a81612750565b840191505092915050565b6000611e5082612428565b611e5a818561248b565b9350611e6a8185602086016125e6565b611e7381612750565b840191505092915050565b6000611e8b602a8361248b565b91507f496e737566696369656e7420616c6c6f77616e636520746f206d616b6520746860008301527f65207472616e73666572000000000000000000000000000000000000000000006020830152604082019050919050565b6000611ef1602a8361248b565b91507f496e737566696369656e7420746f6b656e7320746f206d616b6520746865207460008301527f72616e73616374696f6e000000000000000000000000000000000000000000006020830152604082019050919050565b6000611f5760008361246f565b9150600082019050919050565b6000611f7160088361248b565b91507f4e6f742073656e740000000000000000000000000000000000000000000000006000830152602082019050919050565b600060c0830160008301518482036000860152611fc18282611e0c565b91505060208301518482036020860152611fdb8282611e0c565b91505060408301518482036040860152611ff58282611e0c565b915050606083015161200a6060860182612156565b50608083015161201d6080860182611cfd565b5060a083015161203060a0860182611cfd565b508091505092915050565b600060c08301600083015184820360008601526120588282611e0c565b915050602083015184820360208601526120728282611e0c565b9150506040830151848203604086015261208c8282611e0c565b91505060608301516120a16060860182612156565b5060808301516120b46080860182611cfd565b5060a08301516120c760a0860182611cfd565b508091505092915050565b600060a08301600083015184820360008601526120ef8282611e0c565b915050602083015184820360208601526121098282611e0c565b915050604083015161211e6040860182611dee565b5060608301516121316060860182612156565b50608083015184820360808601526121498282611d90565b9150508091505092915050565b61215f816125cd565b82525050565b61216e816125cd565b82525050565b600061217f82611f4a565b9150819050919050565b600060208201905061219e6000830184611d0c565b92915050565b60006040820190506121b96000830185611d0c565b6121c66020830184611d0c565b9392505050565b60006060820190506121e26000830186611d0c565b6121ef6020830185611d0c565b6121fc6040830184612165565b949350505050565b60006040820190506122196000830185611d0c565b6122266020830184612165565b9392505050565b600060208201905081810360008301526122478184611d1b565b905092915050565b600060808201905081810360008301526122698187611e45565b9050818103602083015261227d8186611e45565b905061228c6040830185611dfd565b6122996060830184612165565b95945050505050565b600060408201905081810360008301526122bc8185611e45565b90506122cb6020830184612165565b9392505050565b600060208201905081810360008301526122eb81611e7e565b9050919050565b6000602082019050818103600083015261230b81611ee4565b9050919050565b6000602082019050818103600083015261232b81611f64565b9050919050565b6000602082019050818103600083015261234c818461203b565b905092915050565b6000602082019050818103600083015261236e81846120d2565b905092915050565b600060208201905061238b6000830184612165565b92915050565b6000604051905081810181811067ffffffffffffffff821117156123b8576123b7612721565b5b8060405250919050565b600067ffffffffffffffff8211156123dd576123dc612721565b5b601f19601f8301169050602081019050919050565b6000819050602082019050919050565b6000819050602082019050919050565b600081519050919050565b600081519050919050565b600081519050919050565b6000602082019050919050565b6000602082019050919050565b600082825260208201905092915050565b600082825260208201905092915050565b600081905092915050565b600082825260208201905092915050565b600082825260208201905092915050565b60006124a7826125cd565b91506124b2836125cd565b9250827fffffffffffffffffffffffffffffffffffffffffffffffffffffffffffffffff038211156124e7576124e6612694565b5b828201905092915050565b60006124fd826125cd565b9150612508836125cd565b925082612518576125176126c3565b5b828204905092915050565b600061252e826125cd565b9150612539836125cd565b9250817fffffffffffffffffffffffffffffffffffffffffffffffffffffffffffffffff048311821515161561257257612571612694565b5b828202905092915050565b6000612588826125ad565b9050919050565b600061259a826125ad565b9050919050565b60008115159050919050565b600073ffffffffffffffffffffffffffffffffffffffff82169050919050565b6000819050919050565b82818337600083830152505050565b60005b838110156126045780820151818401526020810190506125e9565b83811115612613576000848401525b50505050565b6000600282049050600182168061263157607f821691505b60208210811415612645576126446126f2565b5b50919050565b6000612656826125cd565b91507fffffffffffffffffffffffffffffffffffffffffffffffffffffffffffffffff82141561268957612688612694565b5b600182019050919050565b7f4e487b7100000000000000000000000000000000000000000000000000000000600052601160045260246000fd5b7f4e487b7100000000000000000000000000000000000000000000000000000000600052601260045260246000fd5b7f4e487b7100000000000000000000000000000000000000000000000000000000600052602260045260246000fd5b7f4e487b7100000000000000000000000000000000000000000000000000000000600052604160045260246000fd5b6000601f19601f8301169050919050565b61276a8161257d565b811461277557600080fd5b50565b6127818161258f565b811461278c57600080fd5b50565b612798816125a1565b81146127a357600080fd5b50565b6127af816125cd565b81146127ba57600080fd5b5056fea2646970667358221220dd68ee52d1ee31b08cf52737980c91573f1d4e46fc27f8ca89a08a34cece92c464736f6c63430008000033",
  "immutableReferences": {},
  "source": "// SPDX-License-Identifier: MIT\r\npragma solidity ^0.8.0;\r\nimport \"@openzeppelin/contracts/token/ERC20/ERC20.sol\";\r\n\r\ncontract CristoDapp{\r\n    address public owner;\r\n    uint private secureAddPercent = 5; // La comisin que nos llevamos\r\n    address private noOne = address(0);\r\n    IERC20 private token;\r\n\r\n    struct User{\r\n        string name;\r\n        string contact;\r\n        bool updated;\r\n        uint totalproducts;\r\n        uint[] products;\r\n    }\r\n\r\n    struct Product{\r\n        string name;\r\n        string desc;\r\n        string section;\r\n        uint price;\r\n        address owner;\r\n        address reserved_by;\r\n\r\n    }\r\n\r\n    Product[] private products;\r\n    mapping(address=> User) public users;\r\n\r\n    uint _totalUser;\r\n\r\n    event ProductPurchase(address indexed user , address owner , uint price);\r\n    event ProductAdd(address indexed owner, string name, uint price);\r\n\r\n    constructor(address _token){\r\n        owner = msg.sender;\r\n        token = IERC20( _token);\r\n        _totalUser = 0;\r\n\r\n    }\r\n\r\n    function setSecureAddPercent(uint percent) public isOwner {\r\n        secureAddPercent = percent;\r\n\r\n\r\n    }\r\n\r\n    function getSecurePercent() private isOwner view returns(uint){\r\n        return(secureAddPercent);\r\n\r\n    }\r\n\r\n    function __PercentValue(uint _amount) public view returns(uint){ // calcula la comisin.\r\n\r\n        return(secureAddPercent * _amount)/100;\r\n\r\n    }\r\n\r\n    function __amount(uint _amount) public pure returns(uint){// calcula el amount a wei\r\n        return _amount * (10**18);\r\n    }\r\n\r\n    function addProduct(string memory name, string memory desc, string memory  section, uint price) public {\r\n        transferToken(address(this),__amount(__PercentValue(price)), msg.sender);\r\n        products.push(Product(name, desc, section, __amount(price),msg.sender,noOne ));\r\n        emit ProductAdd(msg.sender, name, __amount(price));\r\n    }\r\n\r\n    function transferToken(address _owner , uint _price , address _buyer)private {// se cobra la comision\r\n        require(_price<= token.balanceOf(_buyer), \"Insuficient tokens to make the transaction\"); // comprobamos si hay suficiente dinero para realizar la transaccin\r\n        require(token.allowance(_buyer, address(this))>= _price , \"Insuficient allowance to make the transfer\");// comprobamos si el contrat tiene permisos para ralizar la transaccin\r\n        bool sent = token.transferFrom(_buyer, _owner, _price);\r\n        require(sent, \"Not sent\");\r\n    }\r\n\r\n    function updateProductPrice(uint product_id, uint price) public{\r\n        require(msg.sender != noOne);\r\n        Product storage product = products[product_id];\r\n        require(msg.sender==product.owner);\r\n        require(product.reserved_by == noOne);\r\n        product.price= __amount(price);\r\n        \r\n    }\r\n\r\n    function updateUserContact(string memory contact, string memory name) public{\r\n        require(msg.sender != noOne);\r\n        User storage user = users[msg.sender];\r\n        user.contact = contact;\r\n        user.name = name;\r\n\r\n         if(!user.updated)\r\n            _totalUser++;\r\n\r\n        user.updated = true;\r\n\r\n    }\r\n\r\n    function buyProduct(uint product_id)public{\r\n        Product storage product = products[product_id];\r\n        require(msg.sender != product.owner);\r\n        transferToken(product.owner, product.price, msg.sender);\r\n        User storage buyer = users[msg.sender];\r\n        buyer.totalproducts += 1;\r\n        buyer.products.push(product_id);// hacemos push del producto que compro\r\n        product.reserved_by = msg.sender;\r\n\r\n        emit ProductPurchase(msg.sender, product.owner, product.price);\r\n\r\n\r\n    }\r\n\r\n     function totalUsers() external view returns (uint){\r\n        return _totalUser;\r\n    }\r\n\r\n    function getProducts() external view returns(Product[] memory){\r\n      return products;\r\n    }\r\n\r\n    function getProduct(uint product_id) external view returns(Product memory){\r\n      return products[product_id];\r\n    }\r\n\r\n    function getUser(address userAddress) external view returns(User memory){\r\n      return users[userAddress];\r\n    }\r\n\r\n    function withdrawBNB(address payable account) external isOwner {\r\n        (bool success, ) = account.call{value: address(this).balance}(\"\");\r\n        require(success);\r\n    }\r\n\r\n    function withdraw(address to, uint256 amount) external isOwner{\r\n        require(token.transfer(to, amount));\r\n    }\r\n\r\n\r\n\r\n\r\n    modifier isOwner{\r\n        require(msg.sender == owner);\r\n        _;\r\n    }\r\n\r\n}",
  "sourcePath": "C:\\Users\\crlt2\\OneDrive\\Escritorio\\shop\\contracts\\CristoDapp.sol",
  "compiler": {
    "name": "solc",
    "version": "0.8.0+commit.c7dfd78e.Emscripten.clang"
  },
  "schemaVersion": "3.4.12",
  "updatedAt": "2023-03-02T18:49:32.868Z",
  "devdoc": {
    "kind": "dev",
    "methods": {},
    "version": 1
  },
  "userdoc": {
    "kind": "user",
    "methods": {},
    "version": 1
  }
}