{
	"contracts/Fácil/Votaciones/votaciones.sol": {
		"CuentaAtras": {
			"abi": [
				{
					"inputs": [],
					"stateMutability": "nonpayable",
					"type": "constructor"
				},
				{
					"inputs": [],
					"name": "GetDuration",
					"outputs": [
						{
							"internalType": "uint256",
							"name": "",
							"type": "uint256"
						}
					],
					"stateMutability": "view",
					"type": "function"
				},
				{
					"inputs": [
						{
							"internalType": "uint256",
							"name": "tiempo",
							"type": "uint256"
						}
					],
					"name": "SetTiempoVotacion",
					"outputs": [],
					"stateMutability": "nonpayable",
					"type": "function"
				},
				{
					"inputs": [],
					"name": "getVoto",
					"outputs": [
						{
							"components": [
								{
									"internalType": "uint256",
									"name": "peso",
									"type": "uint256"
								},
								{
									"internalType": "bool",
									"name": "votado",
									"type": "bool"
								}
							],
							"internalType": "struct CuentaAtras.Votante",
							"name": "",
							"type": "tuple"
						}
					],
					"stateMutability": "view",
					"type": "function"
				},
				{
					"inputs": [],
					"name": "restablecer",
					"outputs": [],
					"stateMutability": "nonpayable",
					"type": "function"
				},
				{
					"inputs": [],
					"name": "tiemporestante",
					"outputs": [
						{
							"internalType": "uint256",
							"name": "",
							"type": "uint256"
						}
					],
					"stateMutability": "view",
					"type": "function"
				},
				{
					"inputs": [
						{
							"internalType": "uint256",
							"name": "_peso",
							"type": "uint256"
						}
					],
					"name": "votar",
					"outputs": [],
					"stateMutability": "nonpayable",
					"type": "function"
				}
			],
			"devdoc": {
				"kind": "dev",
				"methods": {},
				"version": 1
			},
			"evm": {
				"assembly": "    /* \"contracts/F\\xc3\\xa1cil/Votaciones/votaciones.sol\":57:1184  contract CuentaAtras{... */\n  mstore(0x40, 0x80)\n    /* \"contracts/F\\xc3\\xa1cil/Votaciones/votaciones.sol\":135:137  60 */\n  0x3c\n    /* \"contracts/F\\xc3\\xa1cil/Votaciones/votaciones.sol\":110:137  uint256 TiempoVotacion = 60 */\n  0x01\n  sstore\n    /* \"contracts/F\\xc3\\xa1cil/Votaciones/votaciones.sol\":261:321  constructor(){... */\n  callvalue\n  dup1\n  iszero\n  tag_1\n  jumpi\n  0x00\n  dup1\n  revert\ntag_1:\n  pop\n    /* \"contracts/F\\xc3\\xa1cil/Votaciones/votaciones.sol\":299:314  block.timestamp */\n  timestamp\n    /* \"contracts/F\\xc3\\xa1cil/Votaciones/votaciones.sol\":284:296  TiempoInicio */\n  0x00\n    /* \"contracts/F\\xc3\\xa1cil/Votaciones/votaciones.sol\":284:314  TiempoInicio = block.timestamp */\n  dup2\n  swap1\n  sstore\n  pop\n    /* \"contracts/F\\xc3\\xa1cil/Votaciones/votaciones.sol\":57:1184  contract CuentaAtras{... */\n  dataSize(sub_0)\n  dup1\n  dataOffset(sub_0)\n  0x00\n  codecopy\n  0x00\n  return\nstop\n\nsub_0: assembly {\n        /* \"contracts/F\\xc3\\xa1cil/Votaciones/votaciones.sol\":57:1184  contract CuentaAtras{... */\n      mstore(0x40, 0x80)\n      callvalue\n      dup1\n      iszero\n      tag_1\n      jumpi\n      0x00\n      dup1\n      revert\n    tag_1:\n      pop\n      jumpi(tag_2, lt(calldatasize, 0x04))\n      shr(0xe0, calldataload(0x00))\n      dup1\n      0x099d946c\n      eq\n      tag_3\n      jumpi\n      dup1\n      0x21606831\n      eq\n      tag_4\n      jumpi\n      dup1\n      0x3935bdc1\n      eq\n      tag_5\n      jumpi\n      dup1\n      0x3e34e4ba\n      eq\n      tag_6\n      jumpi\n      dup1\n      0x84ed9e76\n      eq\n      tag_7\n      jumpi\n      dup1\n      0x89d9a7cc\n      eq\n      tag_8\n      jumpi\n    tag_2:\n      0x00\n      dup1\n      revert\n        /* \"contracts/F\\xc3\\xa1cil/Votaciones/votaciones.sol\":522:600  function restablecer() external{... */\n    tag_3:\n      tag_9\n      tag_10\n      jump\t// in\n    tag_9:\n      stop\n        /* \"contracts/F\\xc3\\xa1cil/Votaciones/votaciones.sol\":959:1180  function votar(uint _peso) external {... */\n    tag_4:\n      tag_11\n      0x04\n      dup1\n      calldatasize\n      sub\n      dup2\n      add\n      swap1\n      tag_12\n      swap2\n      swap1\n      tag_13\n      jump\t// in\n    tag_12:\n      tag_14\n      jump\t// in\n    tag_11:\n      stop\n        /* \"contracts/F\\xc3\\xa1cil/Votaciones/votaciones.sol\":857:954  function getVoto() external view returns(Votante memory){... */\n    tag_5:\n      tag_15\n      tag_16\n      jump\t// in\n    tag_15:\n      mload(0x40)\n      tag_17\n      swap2\n      swap1\n      tag_18\n      jump\t// in\n    tag_17:\n      mload(0x40)\n      dup1\n      swap2\n      sub\n      swap1\n      return\n        /* \"contracts/F\\xc3\\xa1cil/Votaciones/votaciones.sol\":605:852  function tiemporestante () public view returns(uint256){... */\n    tag_6:\n      tag_19\n      tag_20\n      jump\t// in\n    tag_19:\n      mload(0x40)\n      tag_21\n      swap2\n      swap1\n      tag_22\n      jump\t// in\n    tag_21:\n      mload(0x40)\n      dup1\n      swap2\n      sub\n      swap1\n      return\n        /* \"contracts/F\\xc3\\xa1cil/Votaciones/votaciones.sol\":328:420  function SetTiempoVotacion(uint256 tiempo) external{... */\n    tag_7:\n      tag_23\n      0x04\n      dup1\n      calldatasize\n      sub\n      dup2\n      add\n      swap1\n      tag_24\n      swap2\n      swap1\n      tag_13\n      jump\t// in\n    tag_24:\n      tag_25\n      jump\t// in\n    tag_23:\n      stop\n        /* \"contracts/F\\xc3\\xa1cil/Votaciones/votaciones.sol\":426:517  function GetDuration() external view returns(uint256){... */\n    tag_8:\n      tag_26\n      tag_27\n      jump\t// in\n    tag_26:\n      mload(0x40)\n      tag_28\n      swap2\n      swap1\n      tag_22\n      jump\t// in\n    tag_28:\n      mload(0x40)\n      dup1\n      swap2\n      sub\n      swap1\n      return\n        /* \"contracts/F\\xc3\\xa1cil/Votaciones/votaciones.sol\":522:600  function restablecer() external{... */\n    tag_10:\n        /* \"contracts/F\\xc3\\xa1cil/Votaciones/votaciones.sol\":578:593  block.timestamp */\n      timestamp\n        /* \"contracts/F\\xc3\\xa1cil/Votaciones/votaciones.sol\":563:575  TiempoInicio */\n      0x00\n        /* \"contracts/F\\xc3\\xa1cil/Votaciones/votaciones.sol\":563:593  TiempoInicio = block.timestamp */\n      dup2\n      swap1\n      sstore\n      pop\n        /* \"contracts/F\\xc3\\xa1cil/Votaciones/votaciones.sol\":522:600  function restablecer() external{... */\n      jump\t// out\n        /* \"contracts/F\\xc3\\xa1cil/Votaciones/votaciones.sol\":959:1180  function votar(uint _peso) external {... */\n    tag_14:\n        /* \"contracts/F\\xc3\\xa1cil/Votaciones/votaciones.sol\":1033:1034  0 */\n      0x00\n        /* \"contracts/F\\xc3\\xa1cil/Votaciones/votaciones.sol\":1013:1029  tiemporestante() */\n      tag_31\n        /* \"contracts/F\\xc3\\xa1cil/Votaciones/votaciones.sol\":1013:1027  tiemporestante */\n      tag_20\n        /* \"contracts/F\\xc3\\xa1cil/Votaciones/votaciones.sol\":1013:1029  tiemporestante() */\n      jump\t// in\n    tag_31:\n        /* \"contracts/F\\xc3\\xa1cil/Votaciones/votaciones.sol\":1013:1034  tiemporestante() >= 0 */\n      lt\n      iszero\n        /* \"contracts/F\\xc3\\xa1cil/Votaciones/votaciones.sol\":1005:1055  require(tiemporestante() >= 0 , \"Leggas tarde :(\") */\n      tag_32\n      jumpi\n      mload(0x40)\n      0x08c379a000000000000000000000000000000000000000000000000000000000\n      dup2\n      mstore\n      0x04\n      add\n      tag_33\n      swap1\n      tag_34\n      jump\t// in\n    tag_33:\n      mload(0x40)\n      dup1\n      swap2\n      sub\n      swap1\n      revert\n    tag_32:\n        /* \"contracts/F\\xc3\\xa1cil/Votaciones/votaciones.sol\":1065:1088  Votante storage votante */\n      0x00\n        /* \"contracts/F\\xc3\\xa1cil/Votaciones/votaciones.sol\":1091:1099  votantes */\n      0x02\n        /* \"contracts/F\\xc3\\xa1cil/Votaciones/votaciones.sol\":1091:1111  votantes[msg.sender] */\n      0x00\n        /* \"contracts/F\\xc3\\xa1cil/Votaciones/votaciones.sol\":1100:1110  msg.sender */\n      caller\n        /* \"contracts/F\\xc3\\xa1cil/Votaciones/votaciones.sol\":1091:1111  votantes[msg.sender] */\n      0xffffffffffffffffffffffffffffffffffffffff\n      and\n      0xffffffffffffffffffffffffffffffffffffffff\n      and\n      dup2\n      mstore\n      0x20\n      add\n      swap1\n      dup2\n      mstore\n      0x20\n      add\n      0x00\n      keccak256\n        /* \"contracts/F\\xc3\\xa1cil/Votaciones/votaciones.sol\":1065:1111  Votante storage votante = votantes[msg.sender] */\n      swap1\n      pop\n        /* \"contracts/F\\xc3\\xa1cil/Votaciones/votaciones.sol\":1138:1142  true */\n      0x01\n        /* \"contracts/F\\xc3\\xa1cil/Votaciones/votaciones.sol\":1121:1128  votante */\n      dup2\n        /* \"contracts/F\\xc3\\xa1cil/Votaciones/votaciones.sol\":1121:1135  votante.votado */\n      0x01\n      add\n      0x00\n        /* \"contracts/F\\xc3\\xa1cil/Votaciones/votaciones.sol\":1121:1142  votante.votado = true */\n      0x0100\n      exp\n      dup2\n      sload\n      dup2\n      0xff\n      mul\n      not\n      and\n      swap1\n      dup4\n      iszero\n      iszero\n      mul\n      or\n      swap1\n      sstore\n      pop\n        /* \"contracts/F\\xc3\\xa1cil/Votaciones/votaciones.sol\":1167:1172  _peso */\n      dup2\n        /* \"contracts/F\\xc3\\xa1cil/Votaciones/votaciones.sol\":1152:1159  votante */\n      dup2\n        /* \"contracts/F\\xc3\\xa1cil/Votaciones/votaciones.sol\":1152:1164  votante.peso */\n      0x00\n      add\n        /* \"contracts/F\\xc3\\xa1cil/Votaciones/votaciones.sol\":1152:1172  votante.peso = _peso */\n      dup2\n      swap1\n      sstore\n      pop\n        /* \"contracts/F\\xc3\\xa1cil/Votaciones/votaciones.sol\":995:1180  {... */\n      pop\n        /* \"contracts/F\\xc3\\xa1cil/Votaciones/votaciones.sol\":959:1180  function votar(uint _peso) external {... */\n      pop\n      jump\t// out\n        /* \"contracts/F\\xc3\\xa1cil/Votaciones/votaciones.sol\":857:954  function getVoto() external view returns(Votante memory){... */\n    tag_16:\n        /* \"contracts/F\\xc3\\xa1cil/Votaciones/votaciones.sol\":898:912  Votante memory */\n      tag_35\n      tag_36\n      jump\t// in\n    tag_35:\n        /* \"contracts/F\\xc3\\xa1cil/Votaciones/votaciones.sol\":928:936  votantes */\n      0x02\n        /* \"contracts/F\\xc3\\xa1cil/Votaciones/votaciones.sol\":928:948  votantes[msg.sender] */\n      0x00\n        /* \"contracts/F\\xc3\\xa1cil/Votaciones/votaciones.sol\":937:947  msg.sender */\n      caller\n        /* \"contracts/F\\xc3\\xa1cil/Votaciones/votaciones.sol\":928:948  votantes[msg.sender] */\n      0xffffffffffffffffffffffffffffffffffffffff\n      and\n      0xffffffffffffffffffffffffffffffffffffffff\n      and\n      dup2\n      mstore\n      0x20\n      add\n      swap1\n      dup2\n      mstore\n      0x20\n      add\n      0x00\n      keccak256\n        /* \"contracts/F\\xc3\\xa1cil/Votaciones/votaciones.sol\":921:948  return votantes[msg.sender] */\n      mload(0x40)\n      dup1\n      0x40\n      add\n      0x40\n      mstore\n      swap1\n      dup2\n      0x00\n      dup3\n      add\n      sload\n      dup2\n      mstore\n      0x20\n      add\n      0x01\n      dup3\n      add\n      0x00\n      swap1\n      sload\n      swap1\n      0x0100\n      exp\n      swap1\n      div\n      0xff\n      and\n      iszero\n      iszero\n      iszero\n      iszero\n      dup2\n      mstore\n      pop\n      pop\n      swap1\n      pop\n        /* \"contracts/F\\xc3\\xa1cil/Votaciones/votaciones.sol\":857:954  function getVoto() external view returns(Votante memory){... */\n      swap1\n      jump\t// out\n        /* \"contracts/F\\xc3\\xa1cil/Votaciones/votaciones.sol\":605:852  function tiemporestante () public view returns(uint256){... */\n    tag_20:\n        /* \"contracts/F\\xc3\\xa1cil/Votaciones/votaciones.sol\":652:659  uint256 */\n      0x00\n        /* \"contracts/F\\xc3\\xa1cil/Votaciones/votaciones.sol\":694:709  block.timestamp */\n      timestamp\n        /* \"contracts/F\\xc3\\xa1cil/Votaciones/votaciones.sol\":678:690  TiempoInicio */\n      sload(0x00)\n        /* \"contracts/F\\xc3\\xa1cil/Votaciones/votaciones.sol\":678:709  TiempoInicio <= block.timestamp */\n      gt\n      iszero\n        /* \"contracts/F\\xc3\\xa1cil/Votaciones/votaciones.sol\":670:723  require(TiempoInicio <= block.timestamp, \"No valido\") */\n      tag_39\n      jumpi\n      mload(0x40)\n      0x08c379a000000000000000000000000000000000000000000000000000000000\n      dup2\n      mstore\n      0x04\n      add\n      tag_40\n      swap1\n      tag_41\n      jump\t// in\n    tag_40:\n      mload(0x40)\n      dup1\n      swap2\n      sub\n      swap1\n      revert\n    tag_39:\n        /* \"contracts/F\\xc3\\xa1cil/Votaciones/votaciones.sol\":733:745  uint256 diff */\n      0x00\n        /* \"contracts/F\\xc3\\xa1cil/Votaciones/votaciones.sol\":766:778  TiempoInicio */\n      dup1\n      sload\n        /* \"contracts/F\\xc3\\xa1cil/Votaciones/votaciones.sol\":748:763  block.timestamp */\n      timestamp\n        /* \"contracts/F\\xc3\\xa1cil/Votaciones/votaciones.sol\":748:778  block.timestamp - TiempoInicio */\n      tag_42\n      swap2\n      swap1\n      tag_43\n      jump\t// in\n    tag_42:\n        /* \"contracts/F\\xc3\\xa1cil/Votaciones/votaciones.sol\":733:778  uint256 diff = block.timestamp - TiempoInicio */\n      swap1\n      pop\n        /* \"contracts/F\\xc3\\xa1cil/Votaciones/votaciones.sol\":788:800  uint256 rest */\n      0x00\n        /* \"contracts/F\\xc3\\xa1cil/Votaciones/votaciones.sol\":820:824  diff */\n      dup2\n        /* \"contracts/F\\xc3\\xa1cil/Votaciones/votaciones.sol\":803:817  TiempoVotacion */\n      sload(0x01)\n        /* \"contracts/F\\xc3\\xa1cil/Votaciones/votaciones.sol\":803:824  TiempoVotacion - diff */\n      tag_44\n      swap2\n      swap1\n      tag_43\n      jump\t// in\n    tag_44:\n        /* \"contracts/F\\xc3\\xa1cil/Votaciones/votaciones.sol\":788:824  uint256 rest = TiempoVotacion - diff */\n      swap1\n      pop\n        /* \"contracts/F\\xc3\\xa1cil/Votaciones/votaciones.sol\":841:845  rest */\n      dup1\n        /* \"contracts/F\\xc3\\xa1cil/Votaciones/votaciones.sol\":834:845  return rest */\n      swap3\n      pop\n      pop\n      pop\n        /* \"contracts/F\\xc3\\xa1cil/Votaciones/votaciones.sol\":605:852  function tiemporestante () public view returns(uint256){... */\n      swap1\n      jump\t// out\n        /* \"contracts/F\\xc3\\xa1cil/Votaciones/votaciones.sol\":328:420  function SetTiempoVotacion(uint256 tiempo) external{... */\n    tag_25:\n        /* \"contracts/F\\xc3\\xa1cil/Votaciones/votaciones.sol\":407:413  tiempo */\n      dup1\n        /* \"contracts/F\\xc3\\xa1cil/Votaciones/votaciones.sol\":390:404  TiempoVotacion */\n      0x01\n        /* \"contracts/F\\xc3\\xa1cil/Votaciones/votaciones.sol\":390:413  TiempoVotacion = tiempo */\n      dup2\n      swap1\n      sstore\n      pop\n        /* \"contracts/F\\xc3\\xa1cil/Votaciones/votaciones.sol\":328:420  function SetTiempoVotacion(uint256 tiempo) external{... */\n      pop\n      jump\t// out\n        /* \"contracts/F\\xc3\\xa1cil/Votaciones/votaciones.sol\":426:517  function GetDuration() external view returns(uint256){... */\n    tag_27:\n        /* \"contracts/F\\xc3\\xa1cil/Votaciones/votaciones.sol\":471:478  uint256 */\n      0x00\n        /* \"contracts/F\\xc3\\xa1cil/Votaciones/votaciones.sol\":496:510  TiempoVotacion */\n      sload(0x01)\n        /* \"contracts/F\\xc3\\xa1cil/Votaciones/votaciones.sol\":489:510  return TiempoVotacion */\n      swap1\n      pop\n        /* \"contracts/F\\xc3\\xa1cil/Votaciones/votaciones.sol\":426:517  function GetDuration() external view returns(uint256){... */\n      swap1\n      jump\t// out\n    tag_36:\n      mload(0x40)\n      dup1\n      0x40\n      add\n      0x40\n      mstore\n      dup1\n      0x00\n      dup2\n      mstore\n      0x20\n      add\n      iszero(iszero(0x00))\n      dup2\n      mstore\n      pop\n      swap1\n      jump\t// out\n        /* \"#utility.yul\":7:146   */\n    tag_48:\n        /* \"#utility.yul\":53:58   */\n      0x00\n        /* \"#utility.yul\":91:97   */\n      dup2\n        /* \"#utility.yul\":78:98   */\n      calldataload\n        /* \"#utility.yul\":69:98   */\n      swap1\n      pop\n        /* \"#utility.yul\":107:140   */\n      tag_50\n        /* \"#utility.yul\":134:139   */\n      dup2\n        /* \"#utility.yul\":107:140   */\n      tag_51\n      jump\t// in\n    tag_50:\n        /* \"#utility.yul\":7:146   */\n      swap3\n      swap2\n      pop\n      pop\n      jump\t// out\n        /* \"#utility.yul\":152:481   */\n    tag_13:\n        /* \"#utility.yul\":211:217   */\n      0x00\n        /* \"#utility.yul\":260:262   */\n      0x20\n        /* \"#utility.yul\":248:257   */\n      dup3\n        /* \"#utility.yul\":239:246   */\n      dup5\n        /* \"#utility.yul\":235:258   */\n      sub\n        /* \"#utility.yul\":231:263   */\n      slt\n        /* \"#utility.yul\":228:347   */\n      iszero\n      tag_53\n      jumpi\n        /* \"#utility.yul\":266:345   */\n      tag_54\n      tag_55\n      jump\t// in\n    tag_54:\n        /* \"#utility.yul\":228:347   */\n    tag_53:\n        /* \"#utility.yul\":386:387   */\n      0x00\n        /* \"#utility.yul\":411:464   */\n      tag_56\n        /* \"#utility.yul\":456:463   */\n      dup5\n        /* \"#utility.yul\":447:453   */\n      dup3\n        /* \"#utility.yul\":436:445   */\n      dup6\n        /* \"#utility.yul\":432:454   */\n      add\n        /* \"#utility.yul\":411:464   */\n      tag_48\n      jump\t// in\n    tag_56:\n        /* \"#utility.yul\":401:464   */\n      swap2\n      pop\n        /* \"#utility.yul\":357:474   */\n      pop\n        /* \"#utility.yul\":152:481   */\n      swap3\n      swap2\n      pop\n      pop\n      jump\t// out\n        /* \"#utility.yul\":487:586   */\n    tag_57:\n        /* \"#utility.yul\":558:579   */\n      tag_59\n        /* \"#utility.yul\":573:578   */\n      dup2\n        /* \"#utility.yul\":558:579   */\n      tag_60\n      jump\t// in\n    tag_59:\n        /* \"#utility.yul\":553:556   */\n      dup3\n        /* \"#utility.yul\":546:580   */\n      mstore\n        /* \"#utility.yul\":487:586   */\n      pop\n      pop\n      jump\t// out\n        /* \"#utility.yul\":592:958   */\n    tag_61:\n        /* \"#utility.yul\":734:737   */\n      0x00\n        /* \"#utility.yul\":755:822   */\n      tag_63\n        /* \"#utility.yul\":819:821   */\n      0x0f\n        /* \"#utility.yul\":814:817   */\n      dup4\n        /* \"#utility.yul\":755:822   */\n      tag_64\n      jump\t// in\n    tag_63:\n        /* \"#utility.yul\":748:822   */\n      swap2\n      pop\n        /* \"#utility.yul\":831:924   */\n      tag_65\n        /* \"#utility.yul\":920:923   */\n      dup3\n        /* \"#utility.yul\":831:924   */\n      tag_66\n      jump\t// in\n    tag_65:\n        /* \"#utility.yul\":949:951   */\n      0x20\n        /* \"#utility.yul\":944:947   */\n      dup3\n        /* \"#utility.yul\":940:952   */\n      add\n        /* \"#utility.yul\":933:952   */\n      swap1\n      pop\n        /* \"#utility.yul\":592:958   */\n      swap2\n      swap1\n      pop\n      jump\t// out\n        /* \"#utility.yul\":964:1329   */\n    tag_67:\n        /* \"#utility.yul\":1106:1109   */\n      0x00\n        /* \"#utility.yul\":1127:1193   */\n      tag_69\n        /* \"#utility.yul\":1191:1192   */\n      0x09\n        /* \"#utility.yul\":1186:1189   */\n      dup4\n        /* \"#utility.yul\":1127:1193   */\n      tag_64\n      jump\t// in\n    tag_69:\n        /* \"#utility.yul\":1120:1193   */\n      swap2\n      pop\n        /* \"#utility.yul\":1202:1295   */\n      tag_70\n        /* \"#utility.yul\":1291:1294   */\n      dup3\n        /* \"#utility.yul\":1202:1295   */\n      tag_71\n      jump\t// in\n    tag_70:\n        /* \"#utility.yul\":1320:1322   */\n      0x20\n        /* \"#utility.yul\":1315:1318   */\n      dup3\n        /* \"#utility.yul\":1311:1323   */\n      add\n        /* \"#utility.yul\":1304:1323   */\n      swap1\n      pop\n        /* \"#utility.yul\":964:1329   */\n      swap2\n      swap1\n      pop\n      jump\t// out\n        /* \"#utility.yul\":1399:1898   */\n    tag_72:\n        /* \"#utility.yul\":1542:1546   */\n      0x40\n        /* \"#utility.yul\":1537:1540   */\n      dup3\n        /* \"#utility.yul\":1533:1547   */\n      add\n        /* \"#utility.yul\":1629:1633   */\n      0x00\n        /* \"#utility.yul\":1622:1627   */\n      dup3\n        /* \"#utility.yul\":1618:1634   */\n      add\n        /* \"#utility.yul\":1612:1635   */\n      mload\n        /* \"#utility.yul\":1648:1711   */\n      tag_74\n        /* \"#utility.yul\":1705:1709   */\n      0x00\n        /* \"#utility.yul\":1700:1703   */\n      dup6\n        /* \"#utility.yul\":1696:1710   */\n      add\n        /* \"#utility.yul\":1682:1694   */\n      dup3\n        /* \"#utility.yul\":1648:1711   */\n      tag_75\n      jump\t// in\n    tag_74:\n        /* \"#utility.yul\":1557:1721   */\n      pop\n        /* \"#utility.yul\":1805:1809   */\n      0x20\n        /* \"#utility.yul\":1798:1803   */\n      dup3\n        /* \"#utility.yul\":1794:1810   */\n      add\n        /* \"#utility.yul\":1788:1811   */\n      mload\n        /* \"#utility.yul\":1824:1881   */\n      tag_76\n        /* \"#utility.yul\":1875:1879   */\n      0x20\n        /* \"#utility.yul\":1870:1873   */\n      dup6\n        /* \"#utility.yul\":1866:1880   */\n      add\n        /* \"#utility.yul\":1852:1864   */\n      dup3\n        /* \"#utility.yul\":1824:1881   */\n      tag_57\n      jump\t// in\n    tag_76:\n        /* \"#utility.yul\":1731:1891   */\n      pop\n        /* \"#utility.yul\":1511:1898   */\n      pop\n        /* \"#utility.yul\":1399:1898   */\n      pop\n      pop\n      jump\t// out\n        /* \"#utility.yul\":1904:2012   */\n    tag_75:\n        /* \"#utility.yul\":1981:2005   */\n      tag_78\n        /* \"#utility.yul\":1999:2004   */\n      dup2\n        /* \"#utility.yul\":1981:2005   */\n      tag_79\n      jump\t// in\n    tag_78:\n        /* \"#utility.yul\":1976:1979   */\n      dup3\n        /* \"#utility.yul\":1969:2006   */\n      mstore\n        /* \"#utility.yul\":1904:2012   */\n      pop\n      pop\n      jump\t// out\n        /* \"#utility.yul\":2018:2136   */\n    tag_80:\n        /* \"#utility.yul\":2105:2129   */\n      tag_82\n        /* \"#utility.yul\":2123:2128   */\n      dup2\n        /* \"#utility.yul\":2105:2129   */\n      tag_79\n      jump\t// in\n    tag_82:\n        /* \"#utility.yul\":2100:2103   */\n      dup3\n        /* \"#utility.yul\":2093:2130   */\n      mstore\n        /* \"#utility.yul\":2018:2136   */\n      pop\n      pop\n      jump\t// out\n        /* \"#utility.yul\":2142:2561   */\n    tag_34:\n        /* \"#utility.yul\":2308:2312   */\n      0x00\n        /* \"#utility.yul\":2346:2348   */\n      0x20\n        /* \"#utility.yul\":2335:2344   */\n      dup3\n        /* \"#utility.yul\":2331:2349   */\n      add\n        /* \"#utility.yul\":2323:2349   */\n      swap1\n      pop\n        /* \"#utility.yul\":2395:2404   */\n      dup2\n        /* \"#utility.yul\":2389:2393   */\n      dup2\n        /* \"#utility.yul\":2385:2405   */\n      sub\n        /* \"#utility.yul\":2381:2382   */\n      0x00\n        /* \"#utility.yul\":2370:2379   */\n      dup4\n        /* \"#utility.yul\":2366:2383   */\n      add\n        /* \"#utility.yul\":2359:2406   */\n      mstore\n        /* \"#utility.yul\":2423:2554   */\n      tag_84\n        /* \"#utility.yul\":2549:2553   */\n      dup2\n        /* \"#utility.yul\":2423:2554   */\n      tag_61\n      jump\t// in\n    tag_84:\n        /* \"#utility.yul\":2415:2554   */\n      swap1\n      pop\n        /* \"#utility.yul\":2142:2561   */\n      swap2\n      swap1\n      pop\n      jump\t// out\n        /* \"#utility.yul\":2567:2986   */\n    tag_41:\n        /* \"#utility.yul\":2733:2737   */\n      0x00\n        /* \"#utility.yul\":2771:2773   */\n      0x20\n        /* \"#utility.yul\":2760:2769   */\n      dup3\n        /* \"#utility.yul\":2756:2774   */\n      add\n        /* \"#utility.yul\":2748:2774   */\n      swap1\n      pop\n        /* \"#utility.yul\":2820:2829   */\n      dup2\n        /* \"#utility.yul\":2814:2818   */\n      dup2\n        /* \"#utility.yul\":2810:2830   */\n      sub\n        /* \"#utility.yul\":2806:2807   */\n      0x00\n        /* \"#utility.yul\":2795:2804   */\n      dup4\n        /* \"#utility.yul\":2791:2808   */\n      add\n        /* \"#utility.yul\":2784:2831   */\n      mstore\n        /* \"#utility.yul\":2848:2979   */\n      tag_86\n        /* \"#utility.yul\":2974:2978   */\n      dup2\n        /* \"#utility.yul\":2848:2979   */\n      tag_67\n      jump\t// in\n    tag_86:\n        /* \"#utility.yul\":2840:2979   */\n      swap1\n      pop\n        /* \"#utility.yul\":2567:2986   */\n      swap2\n      swap1\n      pop\n      jump\t// out\n        /* \"#utility.yul\":2992:3306   */\n    tag_18:\n        /* \"#utility.yul\":3131:3135   */\n      0x00\n        /* \"#utility.yul\":3169:3171   */\n      0x40\n        /* \"#utility.yul\":3158:3167   */\n      dup3\n        /* \"#utility.yul\":3154:3172   */\n      add\n        /* \"#utility.yul\":3146:3172   */\n      swap1\n      pop\n        /* \"#utility.yul\":3182:3299   */\n      tag_88\n        /* \"#utility.yul\":3296:3297   */\n      0x00\n        /* \"#utility.yul\":3285:3294   */\n      dup4\n        /* \"#utility.yul\":3281:3298   */\n      add\n        /* \"#utility.yul\":3272:3278   */\n      dup5\n        /* \"#utility.yul\":3182:3299   */\n      tag_72\n      jump\t// in\n    tag_88:\n        /* \"#utility.yul\":2992:3306   */\n      swap3\n      swap2\n      pop\n      pop\n      jump\t// out\n        /* \"#utility.yul\":3312:3534   */\n    tag_22:\n        /* \"#utility.yul\":3405:3409   */\n      0x00\n        /* \"#utility.yul\":3443:3445   */\n      0x20\n        /* \"#utility.yul\":3432:3441   */\n      dup3\n        /* \"#utility.yul\":3428:3446   */\n      add\n        /* \"#utility.yul\":3420:3446   */\n      swap1\n      pop\n        /* \"#utility.yul\":3456:3527   */\n      tag_90\n        /* \"#utility.yul\":3524:3525   */\n      0x00\n        /* \"#utility.yul\":3513:3522   */\n      dup4\n        /* \"#utility.yul\":3509:3526   */\n      add\n        /* \"#utility.yul\":3500:3506   */\n      dup5\n        /* \"#utility.yul\":3456:3527   */\n      tag_80\n      jump\t// in\n    tag_90:\n        /* \"#utility.yul\":3312:3534   */\n      swap3\n      swap2\n      pop\n      pop\n      jump\t// out\n        /* \"#utility.yul\":3621:3790   */\n    tag_64:\n        /* \"#utility.yul\":3705:3716   */\n      0x00\n        /* \"#utility.yul\":3739:3745   */\n      dup3\n        /* \"#utility.yul\":3734:3737   */\n      dup3\n        /* \"#utility.yul\":3727:3746   */\n      mstore\n        /* \"#utility.yul\":3779:3783   */\n      0x20\n        /* \"#utility.yul\":3774:3777   */\n      dup3\n        /* \"#utility.yul\":3770:3784   */\n      add\n        /* \"#utility.yul\":3755:3784   */\n      swap1\n      pop\n        /* \"#utility.yul\":3621:3790   */\n      swap3\n      swap2\n      pop\n      pop\n      jump\t// out\n        /* \"#utility.yul\":3796:3987   */\n    tag_43:\n        /* \"#utility.yul\":3836:3840   */\n      0x00\n        /* \"#utility.yul\":3856:3876   */\n      tag_95\n        /* \"#utility.yul\":3874:3875   */\n      dup3\n        /* \"#utility.yul\":3856:3876   */\n      tag_79\n      jump\t// in\n    tag_95:\n        /* \"#utility.yul\":3851:3876   */\n      swap2\n      pop\n        /* \"#utility.yul\":3890:3910   */\n      tag_96\n        /* \"#utility.yul\":3908:3909   */\n      dup4\n        /* \"#utility.yul\":3890:3910   */\n      tag_79\n      jump\t// in\n    tag_96:\n        /* \"#utility.yul\":3885:3910   */\n      swap3\n      pop\n        /* \"#utility.yul\":3929:3930   */\n      dup3\n        /* \"#utility.yul\":3926:3927   */\n      dup3\n        /* \"#utility.yul\":3923:3931   */\n      lt\n        /* \"#utility.yul\":3920:3954   */\n      iszero\n      tag_97\n      jumpi\n        /* \"#utility.yul\":3934:3952   */\n      tag_98\n      tag_99\n      jump\t// in\n    tag_98:\n        /* \"#utility.yul\":3920:3954   */\n    tag_97:\n        /* \"#utility.yul\":3979:3980   */\n      dup3\n        /* \"#utility.yul\":3976:3977   */\n      dup3\n        /* \"#utility.yul\":3972:3981   */\n      sub\n        /* \"#utility.yul\":3964:3981   */\n      swap1\n      pop\n        /* \"#utility.yul\":3796:3987   */\n      swap3\n      swap2\n      pop\n      pop\n      jump\t// out\n        /* \"#utility.yul\":3993:4083   */\n    tag_60:\n        /* \"#utility.yul\":4027:4034   */\n      0x00\n        /* \"#utility.yul\":4070:4075   */\n      dup2\n        /* \"#utility.yul\":4063:4076   */\n      iszero\n        /* \"#utility.yul\":4056:4077   */\n      iszero\n        /* \"#utility.yul\":4045:4077   */\n      swap1\n      pop\n        /* \"#utility.yul\":3993:4083   */\n      swap2\n      swap1\n      pop\n      jump\t// out\n        /* \"#utility.yul\":4089:4166   */\n    tag_79:\n        /* \"#utility.yul\":4126:4133   */\n      0x00\n        /* \"#utility.yul\":4155:4160   */\n      dup2\n        /* \"#utility.yul\":4144:4160   */\n      swap1\n      pop\n        /* \"#utility.yul\":4089:4166   */\n      swap2\n      swap1\n      pop\n      jump\t// out\n        /* \"#utility.yul\":4172:4352   */\n    tag_99:\n        /* \"#utility.yul\":4220:4297   */\n      0x4e487b7100000000000000000000000000000000000000000000000000000000\n        /* \"#utility.yul\":4217:4218   */\n      0x00\n        /* \"#utility.yul\":4210:4298   */\n      mstore\n        /* \"#utility.yul\":4317:4321   */\n      0x11\n        /* \"#utility.yul\":4314:4315   */\n      0x04\n        /* \"#utility.yul\":4307:4322   */\n      mstore\n        /* \"#utility.yul\":4341:4345   */\n      0x24\n        /* \"#utility.yul\":4338:4339   */\n      0x00\n        /* \"#utility.yul\":4331:4346   */\n      revert\n        /* \"#utility.yul\":4481:4598   */\n    tag_55:\n        /* \"#utility.yul\":4590:4591   */\n      0x00\n        /* \"#utility.yul\":4587:4588   */\n      dup1\n        /* \"#utility.yul\":4580:4592   */\n      revert\n        /* \"#utility.yul\":4604:4773   */\n    tag_66:\n        /* \"#utility.yul\":4744:4761   */\n      0x4c6567676173207461726465203a280000000000000000000000000000000000\n        /* \"#utility.yul\":4740:4741   */\n      0x00\n        /* \"#utility.yul\":4732:4738   */\n      dup3\n        /* \"#utility.yul\":4728:4742   */\n      add\n        /* \"#utility.yul\":4721:4762   */\n      mstore\n        /* \"#utility.yul\":4604:4773   */\n      pop\n      jump\t// out\n        /* \"#utility.yul\":4783:4950   */\n    tag_71:\n        /* \"#utility.yul\":4927:4938   */\n      0x4e6f2076616c69646f0000000000000000000000000000000000000000000000\n        /* \"#utility.yul\":4923:4924   */\n      0x00\n        /* \"#utility.yul\":4915:4921   */\n      dup3\n        /* \"#utility.yul\":4911:4925   */\n      add\n        /* \"#utility.yul\":4904:4939   */\n      mstore\n        /* \"#utility.yul\":4783:4950   */\n      pop\n      jump\t// out\n        /* \"#utility.yul\":4960:5090   */\n    tag_51:\n        /* \"#utility.yul\":5037:5061   */\n      tag_109\n        /* \"#utility.yul\":5055:5060   */\n      dup2\n        /* \"#utility.yul\":5037:5061   */\n      tag_79\n      jump\t// in\n    tag_109:\n        /* \"#utility.yul\":5030:5035   */\n      dup2\n        /* \"#utility.yul\":5027:5062   */\n      eq\n        /* \"#utility.yul\":5017:5080   */\n      tag_110\n      jumpi\n        /* \"#utility.yul\":5076:5077   */\n      0x00\n        /* \"#utility.yul\":5073:5074   */\n      dup1\n        /* \"#utility.yul\":5066:5078   */\n      revert\n        /* \"#utility.yul\":5017:5080   */\n    tag_110:\n        /* \"#utility.yul\":4960:5090   */\n      pop\n      jump\t// out\n\n    auxdata: 0xa26469706673582212207d9cbe4f32c74fbc62d1a4ab4ac4a4a0f4abf9913477c3041ff5ab8ddbc936a364736f6c63430008070033\n}\n",
				"bytecode": {
					"linkReferences": {},
					"object": "6080604052603c60015534801561001557600080fd5b504260008190555061056a8061002c6000396000f3fe608060405234801561001057600080fd5b50600436106100625760003560e01c8063099d946c1461006757806321606831146100715780633935bdc11461008d5780633e34e4ba146100ab57806384ed9e76146100c957806389d9a7cc146100e5575b600080fd5b61006f610103565b005b61008b600480360381019061008691906102f7565b61010c565b005b6100956101c4565b6040516100a29190610406565b60405180910390f35b6100b3610240565b6040516100c09190610421565b60405180910390f35b6100e360048036038101906100de91906102f7565b6102b2565b005b6100ed6102bc565b6040516100fa9190610421565b60405180910390f35b42600081905550565b6000610116610240565b1015610157576040517f08c379a000000000000000000000000000000000000000000000000000000000815260040161014e906103c6565b60405180910390fd5b6000600260003373ffffffffffffffffffffffffffffffffffffffff1673ffffffffffffffffffffffffffffffffffffffff168152602001908152602001600020905060018160010160006101000a81548160ff0219169083151502179055508181600001819055505050565b6101cc6102c6565b600260003373ffffffffffffffffffffffffffffffffffffffff1673ffffffffffffffffffffffffffffffffffffffff168152602001908152602001600020604051806040016040529081600082015481526020016001820160009054906101000a900460ff161515151581525050905090565b6000426000541115610287576040517f08c379a000000000000000000000000000000000000000000000000000000000815260040161027e906103e6565b60405180910390fd5b6000805442610296919061044d565b90506000816001546102a8919061044d565b9050809250505090565b8060018190555050565b6000600154905090565b6040518060400160405280600081526020016000151581525090565b6000813590506102f18161051d565b92915050565b60006020828403121561030d5761030c6104c6565b5b600061031b848285016102e2565b91505092915050565b61032d81610481565b82525050565b6000610340600f8361043c565b915061034b826104cb565b602082019050919050565b600061036360098361043c565b915061036e826104f4565b602082019050919050565b60408201600082015161038f60008501826103a8565b5060208201516103a26020850182610324565b50505050565b6103b18161048d565b82525050565b6103c08161048d565b82525050565b600060208201905081810360008301526103df81610333565b9050919050565b600060208201905081810360008301526103ff81610356565b9050919050565b600060408201905061041b6000830184610379565b92915050565b600060208201905061043660008301846103b7565b92915050565b600082825260208201905092915050565b60006104588261048d565b91506104638361048d565b92508282101561047657610475610497565b5b828203905092915050565b60008115159050919050565b6000819050919050565b7f4e487b7100000000000000000000000000000000000000000000000000000000600052601160045260246000fd5b600080fd5b7f4c6567676173207461726465203a280000000000000000000000000000000000600082015250565b7f4e6f2076616c69646f0000000000000000000000000000000000000000000000600082015250565b6105268161048d565b811461053157600080fd5b5056fea26469706673582212207d9cbe4f32c74fbc62d1a4ab4ac4a4a0f4abf9913477c3041ff5ab8ddbc936a364736f6c63430008070033",
					"opcodes": "PUSH1 0x80 PUSH1 0x40 MSTORE PUSH1 0x3C PUSH1 0x1 SSTORE CALLVALUE DUP1 ISZERO PUSH2 0x15 JUMPI PUSH1 0x0 DUP1 REVERT JUMPDEST POP TIMESTAMP PUSH1 0x0 DUP2 SWAP1 SSTORE POP PUSH2 0x56A DUP1 PUSH2 0x2C PUSH1 0x0 CODECOPY PUSH1 0x0 RETURN INVALID PUSH1 0x80 PUSH1 0x40 MSTORE CALLVALUE DUP1 ISZERO PUSH2 0x10 JUMPI PUSH1 0x0 DUP1 REVERT JUMPDEST POP PUSH1 0x4 CALLDATASIZE LT PUSH2 0x62 JUMPI PUSH1 0x0 CALLDATALOAD PUSH1 0xE0 SHR DUP1 PUSH4 0x99D946C EQ PUSH2 0x67 JUMPI DUP1 PUSH4 0x21606831 EQ PUSH2 0x71 JUMPI DUP1 PUSH4 0x3935BDC1 EQ PUSH2 0x8D JUMPI DUP1 PUSH4 0x3E34E4BA EQ PUSH2 0xAB JUMPI DUP1 PUSH4 0x84ED9E76 EQ PUSH2 0xC9 JUMPI DUP1 PUSH4 0x89D9A7CC EQ PUSH2 0xE5 JUMPI JUMPDEST PUSH1 0x0 DUP1 REVERT JUMPDEST PUSH2 0x6F PUSH2 0x103 JUMP JUMPDEST STOP JUMPDEST PUSH2 0x8B PUSH1 0x4 DUP1 CALLDATASIZE SUB DUP2 ADD SWAP1 PUSH2 0x86 SWAP2 SWAP1 PUSH2 0x2F7 JUMP JUMPDEST PUSH2 0x10C JUMP JUMPDEST STOP JUMPDEST PUSH2 0x95 PUSH2 0x1C4 JUMP JUMPDEST PUSH1 0x40 MLOAD PUSH2 0xA2 SWAP2 SWAP1 PUSH2 0x406 JUMP JUMPDEST PUSH1 0x40 MLOAD DUP1 SWAP2 SUB SWAP1 RETURN JUMPDEST PUSH2 0xB3 PUSH2 0x240 JUMP JUMPDEST PUSH1 0x40 MLOAD PUSH2 0xC0 SWAP2 SWAP1 PUSH2 0x421 JUMP JUMPDEST PUSH1 0x40 MLOAD DUP1 SWAP2 SUB SWAP1 RETURN JUMPDEST PUSH2 0xE3 PUSH1 0x4 DUP1 CALLDATASIZE SUB DUP2 ADD SWAP1 PUSH2 0xDE SWAP2 SWAP1 PUSH2 0x2F7 JUMP JUMPDEST PUSH2 0x2B2 JUMP JUMPDEST STOP JUMPDEST PUSH2 0xED PUSH2 0x2BC JUMP JUMPDEST PUSH1 0x40 MLOAD PUSH2 0xFA SWAP2 SWAP1 PUSH2 0x421 JUMP JUMPDEST PUSH1 0x40 MLOAD DUP1 SWAP2 SUB SWAP1 RETURN JUMPDEST TIMESTAMP PUSH1 0x0 DUP2 SWAP1 SSTORE POP JUMP JUMPDEST PUSH1 0x0 PUSH2 0x116 PUSH2 0x240 JUMP JUMPDEST LT ISZERO PUSH2 0x157 JUMPI PUSH1 0x40 MLOAD PUSH32 0x8C379A000000000000000000000000000000000000000000000000000000000 DUP2 MSTORE PUSH1 0x4 ADD PUSH2 0x14E SWAP1 PUSH2 0x3C6 JUMP JUMPDEST PUSH1 0x40 MLOAD DUP1 SWAP2 SUB SWAP1 REVERT JUMPDEST PUSH1 0x0 PUSH1 0x2 PUSH1 0x0 CALLER PUSH20 0xFFFFFFFFFFFFFFFFFFFFFFFFFFFFFFFFFFFFFFFF AND PUSH20 0xFFFFFFFFFFFFFFFFFFFFFFFFFFFFFFFFFFFFFFFF AND DUP2 MSTORE PUSH1 0x20 ADD SWAP1 DUP2 MSTORE PUSH1 0x20 ADD PUSH1 0x0 KECCAK256 SWAP1 POP PUSH1 0x1 DUP2 PUSH1 0x1 ADD PUSH1 0x0 PUSH2 0x100 EXP DUP2 SLOAD DUP2 PUSH1 0xFF MUL NOT AND SWAP1 DUP4 ISZERO ISZERO MUL OR SWAP1 SSTORE POP DUP2 DUP2 PUSH1 0x0 ADD DUP2 SWAP1 SSTORE POP POP POP JUMP JUMPDEST PUSH2 0x1CC PUSH2 0x2C6 JUMP JUMPDEST PUSH1 0x2 PUSH1 0x0 CALLER PUSH20 0xFFFFFFFFFFFFFFFFFFFFFFFFFFFFFFFFFFFFFFFF AND PUSH20 0xFFFFFFFFFFFFFFFFFFFFFFFFFFFFFFFFFFFFFFFF AND DUP2 MSTORE PUSH1 0x20 ADD SWAP1 DUP2 MSTORE PUSH1 0x20 ADD PUSH1 0x0 KECCAK256 PUSH1 0x40 MLOAD DUP1 PUSH1 0x40 ADD PUSH1 0x40 MSTORE SWAP1 DUP2 PUSH1 0x0 DUP3 ADD SLOAD DUP2 MSTORE PUSH1 0x20 ADD PUSH1 0x1 DUP3 ADD PUSH1 0x0 SWAP1 SLOAD SWAP1 PUSH2 0x100 EXP SWAP1 DIV PUSH1 0xFF AND ISZERO ISZERO ISZERO ISZERO DUP2 MSTORE POP POP SWAP1 POP SWAP1 JUMP JUMPDEST PUSH1 0x0 TIMESTAMP PUSH1 0x0 SLOAD GT ISZERO PUSH2 0x287 JUMPI PUSH1 0x40 MLOAD PUSH32 0x8C379A000000000000000000000000000000000000000000000000000000000 DUP2 MSTORE PUSH1 0x4 ADD PUSH2 0x27E SWAP1 PUSH2 0x3E6 JUMP JUMPDEST PUSH1 0x40 MLOAD DUP1 SWAP2 SUB SWAP1 REVERT JUMPDEST PUSH1 0x0 DUP1 SLOAD TIMESTAMP PUSH2 0x296 SWAP2 SWAP1 PUSH2 0x44D JUMP JUMPDEST SWAP1 POP PUSH1 0x0 DUP2 PUSH1 0x1 SLOAD PUSH2 0x2A8 SWAP2 SWAP1 PUSH2 0x44D JUMP JUMPDEST SWAP1 POP DUP1 SWAP3 POP POP POP SWAP1 JUMP JUMPDEST DUP1 PUSH1 0x1 DUP2 SWAP1 SSTORE POP POP JUMP JUMPDEST PUSH1 0x0 PUSH1 0x1 SLOAD SWAP1 POP SWAP1 JUMP JUMPDEST PUSH1 0x40 MLOAD DUP1 PUSH1 0x40 ADD PUSH1 0x40 MSTORE DUP1 PUSH1 0x0 DUP2 MSTORE PUSH1 0x20 ADD PUSH1 0x0 ISZERO ISZERO DUP2 MSTORE POP SWAP1 JUMP JUMPDEST PUSH1 0x0 DUP2 CALLDATALOAD SWAP1 POP PUSH2 0x2F1 DUP2 PUSH2 0x51D JUMP JUMPDEST SWAP3 SWAP2 POP POP JUMP JUMPDEST PUSH1 0x0 PUSH1 0x20 DUP3 DUP5 SUB SLT ISZERO PUSH2 0x30D JUMPI PUSH2 0x30C PUSH2 0x4C6 JUMP JUMPDEST JUMPDEST PUSH1 0x0 PUSH2 0x31B DUP5 DUP3 DUP6 ADD PUSH2 0x2E2 JUMP JUMPDEST SWAP2 POP POP SWAP3 SWAP2 POP POP JUMP JUMPDEST PUSH2 0x32D DUP2 PUSH2 0x481 JUMP JUMPDEST DUP3 MSTORE POP POP JUMP JUMPDEST PUSH1 0x0 PUSH2 0x340 PUSH1 0xF DUP4 PUSH2 0x43C JUMP JUMPDEST SWAP2 POP PUSH2 0x34B DUP3 PUSH2 0x4CB JUMP JUMPDEST PUSH1 0x20 DUP3 ADD SWAP1 POP SWAP2 SWAP1 POP JUMP JUMPDEST PUSH1 0x0 PUSH2 0x363 PUSH1 0x9 DUP4 PUSH2 0x43C JUMP JUMPDEST SWAP2 POP PUSH2 0x36E DUP3 PUSH2 0x4F4 JUMP JUMPDEST PUSH1 0x20 DUP3 ADD SWAP1 POP SWAP2 SWAP1 POP JUMP JUMPDEST PUSH1 0x40 DUP3 ADD PUSH1 0x0 DUP3 ADD MLOAD PUSH2 0x38F PUSH1 0x0 DUP6 ADD DUP3 PUSH2 0x3A8 JUMP JUMPDEST POP PUSH1 0x20 DUP3 ADD MLOAD PUSH2 0x3A2 PUSH1 0x20 DUP6 ADD DUP3 PUSH2 0x324 JUMP JUMPDEST POP POP POP POP JUMP JUMPDEST PUSH2 0x3B1 DUP2 PUSH2 0x48D JUMP JUMPDEST DUP3 MSTORE POP POP JUMP JUMPDEST PUSH2 0x3C0 DUP2 PUSH2 0x48D JUMP JUMPDEST DUP3 MSTORE POP POP JUMP JUMPDEST PUSH1 0x0 PUSH1 0x20 DUP3 ADD SWAP1 POP DUP2 DUP2 SUB PUSH1 0x0 DUP4 ADD MSTORE PUSH2 0x3DF DUP2 PUSH2 0x333 JUMP JUMPDEST SWAP1 POP SWAP2 SWAP1 POP JUMP JUMPDEST PUSH1 0x0 PUSH1 0x20 DUP3 ADD SWAP1 POP DUP2 DUP2 SUB PUSH1 0x0 DUP4 ADD MSTORE PUSH2 0x3FF DUP2 PUSH2 0x356 JUMP JUMPDEST SWAP1 POP SWAP2 SWAP1 POP JUMP JUMPDEST PUSH1 0x0 PUSH1 0x40 DUP3 ADD SWAP1 POP PUSH2 0x41B PUSH1 0x0 DUP4 ADD DUP5 PUSH2 0x379 JUMP JUMPDEST SWAP3 SWAP2 POP POP JUMP JUMPDEST PUSH1 0x0 PUSH1 0x20 DUP3 ADD SWAP1 POP PUSH2 0x436 PUSH1 0x0 DUP4 ADD DUP5 PUSH2 0x3B7 JUMP JUMPDEST SWAP3 SWAP2 POP POP JUMP JUMPDEST PUSH1 0x0 DUP3 DUP3 MSTORE PUSH1 0x20 DUP3 ADD SWAP1 POP SWAP3 SWAP2 POP POP JUMP JUMPDEST PUSH1 0x0 PUSH2 0x458 DUP3 PUSH2 0x48D JUMP JUMPDEST SWAP2 POP PUSH2 0x463 DUP4 PUSH2 0x48D JUMP JUMPDEST SWAP3 POP DUP3 DUP3 LT ISZERO PUSH2 0x476 JUMPI PUSH2 0x475 PUSH2 0x497 JUMP JUMPDEST JUMPDEST DUP3 DUP3 SUB SWAP1 POP SWAP3 SWAP2 POP POP JUMP JUMPDEST PUSH1 0x0 DUP2 ISZERO ISZERO SWAP1 POP SWAP2 SWAP1 POP JUMP JUMPDEST PUSH1 0x0 DUP2 SWAP1 POP SWAP2 SWAP1 POP JUMP JUMPDEST PUSH32 0x4E487B7100000000000000000000000000000000000000000000000000000000 PUSH1 0x0 MSTORE PUSH1 0x11 PUSH1 0x4 MSTORE PUSH1 0x24 PUSH1 0x0 REVERT JUMPDEST PUSH1 0x0 DUP1 REVERT JUMPDEST PUSH32 0x4C6567676173207461726465203A280000000000000000000000000000000000 PUSH1 0x0 DUP3 ADD MSTORE POP JUMP JUMPDEST PUSH32 0x4E6F2076616C69646F0000000000000000000000000000000000000000000000 PUSH1 0x0 DUP3 ADD MSTORE POP JUMP JUMPDEST PUSH2 0x526 DUP2 PUSH2 0x48D JUMP JUMPDEST DUP2 EQ PUSH2 0x531 JUMPI PUSH1 0x0 DUP1 REVERT JUMPDEST POP JUMP INVALID LOG2 PUSH5 0x6970667358 0x22 SLT KECCAK256 PUSH30 0x9CBE4F32C74FBC62D1A4AB4AC4A4A0F4ABF9913477C3041FF5AB8DDBC936 LOG3 PUSH5 0x736F6C6343 STOP ADDMOD SMOD STOP CALLER "
				},
				"gasEstimates": {
					"creation": {
						"codeDepositCost": "277200",
						"executionCost": "44537",
						"totalCost": "321737"
					},
					"external": {
						"GetDuration()": "2525",
						"SetTiempoVotacion(uint256)": "22586",
						"getVoto()": "5035",
						"restablecer()": "22235",
						"tiemporestante()": "infinite",
						"votar(uint256)": "infinite"
					}
				},
				"methodIdentifiers": {
					"GetDuration()": "89d9a7cc",
					"SetTiempoVotacion(uint256)": "84ed9e76",
					"getVoto()": "3935bdc1",
					"restablecer()": "099d946c",
					"tiemporestante()": "3e34e4ba",
					"votar(uint256)": "21606831"
				}
			},
			"storageLayout": {
				"storage": [
					{
						"astId": 3,
						"contract": "contracts/Fácil/Votaciones/votaciones.sol:CuentaAtras",
						"label": "TiempoInicio",
						"offset": 0,
						"slot": "0",
						"type": "t_uint256"
					},
					{
						"astId": 6,
						"contract": "contracts/Fácil/Votaciones/votaciones.sol:CuentaAtras",
						"label": "TiempoVotacion",
						"offset": 0,
						"slot": "1",
						"type": "t_uint256"
					},
					{
						"astId": 16,
						"contract": "contracts/Fácil/Votaciones/votaciones.sol:CuentaAtras",
						"label": "votantes",
						"offset": 0,
						"slot": "2",
						"type": "t_mapping(t_address,t_struct(Votante)11_storage)"
					}
				],
				"types": {
					"t_address": {
						"encoding": "inplace",
						"label": "address",
						"numberOfBytes": "20"
					},
					"t_bool": {
						"encoding": "inplace",
						"label": "bool",
						"numberOfBytes": "1"
					},
					"t_mapping(t_address,t_struct(Votante)11_storage)": {
						"encoding": "mapping",
						"key": "t_address",
						"label": "mapping(address => struct CuentaAtras.Votante)",
						"numberOfBytes": "32",
						"value": "t_struct(Votante)11_storage"
					},
					"t_struct(Votante)11_storage": {
						"encoding": "inplace",
						"label": "struct CuentaAtras.Votante",
						"members": [
							{
								"astId": 8,
								"contract": "contracts/Fácil/Votaciones/votaciones.sol:CuentaAtras",
								"label": "peso",
								"offset": 0,
								"slot": "0",
								"type": "t_uint256"
							},
							{
								"astId": 10,
								"contract": "contracts/Fácil/Votaciones/votaciones.sol:CuentaAtras",
								"label": "votado",
								"offset": 0,
								"slot": "1",
								"type": "t_bool"
							}
						],
						"numberOfBytes": "64"
					},
					"t_uint256": {
						"encoding": "inplace",
						"label": "uint256",
						"numberOfBytes": "32"
					}
				}
			},
			"userdoc": {
				"kind": "user",
				"methods": {},
				"version": 1
			}
		}
	}
}