{
	"contracs.sol": {
		"Mycontract2": {
			"abi": [
				{
					"constant": true,
					"inputs": [],
					"name": "get",
					"outputs": [
						{
							"name": "",
							"type": "int256"
						}
					],
					"payable": false,
					"stateMutability": "view",
					"type": "function"
				},
				{
					"constant": false,
					"inputs": [
						{
							"name": "_valuee",
							"type": "int256"
						}
					],
					"name": "set",
					"outputs": [],
					"payable": false,
					"stateMutability": "nonpayable",
					"type": "function"
				},
				{
					"inputs": [],
					"payable": false,
					"stateMutability": "nonpayable",
					"type": "constructor"
				}
			],
			"devdoc": {
				"methods": {}
			},
			"evm": {
				"assembly": "    /* \"contracs.sol\":26:291  contract Mycontract2 {... */\n  mstore(0x40, 0x80)\n    /* \"contracs.sol\":71:120  constructor() public {... */\n  callvalue\n    /* \"--CODEGEN--\":8:17   */\n  dup1\n    /* \"--CODEGEN--\":5:7   */\n  iszero\n  tag_1\n  jumpi\n    /* \"--CODEGEN--\":30:31   */\n  0x0\n    /* \"--CODEGEN--\":27:28   */\n  dup1\n    /* \"--CODEGEN--\":20:32   */\n  revert\n    /* \"--CODEGEN--\":5:7   */\ntag_1:\n    /* \"contracs.sol\":71:120  constructor() public {... */\n  pop\n    /* \"contracs.sol\":112:113  0 */\n  0x0\n    /* \"contracs.sol\":103:109  valuee */\n  dup1\n    /* \"contracs.sol\":103:113  valuee = 0 */\n  dup2\n  swap1\n  sstore\n  pop\n    /* \"contracs.sol\":26:291  contract Mycontract2 {... */\n  dataSize(sub_0)\n  dup1\n  dataOffset(sub_0)\n  0x0\n  codecopy\n  0x0\n  return\nstop\n\nsub_0: assembly {\n        /* \"contracs.sol\":26:291  contract Mycontract2 {... */\n      mstore(0x40, 0x80)\n      jumpi(tag_1, lt(calldatasize, 0x4))\n      calldataload(0x0)\n      0x100000000000000000000000000000000000000000000000000000000\n      swap1\n      div\n      0xffffffff\n      and\n      dup1\n      0x6d4ce63c\n      eq\n      tag_2\n      jumpi\n      dup1\n      0xe5c19b2d\n      eq\n      tag_3\n      jumpi\n    tag_1:\n      0x0\n      dup1\n      revert\n        /* \"contracs.sol\":125:195  function get() public view returns(int){... */\n    tag_2:\n      callvalue\n        /* \"--CODEGEN--\":8:17   */\n      dup1\n        /* \"--CODEGEN--\":5:7   */\n      iszero\n      tag_4\n      jumpi\n        /* \"--CODEGEN--\":30:31   */\n      0x0\n        /* \"--CODEGEN--\":27:28   */\n      dup1\n        /* \"--CODEGEN--\":20:32   */\n      revert\n        /* \"--CODEGEN--\":5:7   */\n    tag_4:\n        /* \"contracs.sol\":125:195  function get() public view returns(int){... */\n      pop\n      tag_5\n      jump(tag_6)\n    tag_5:\n      mload(0x40)\n      dup1\n      dup3\n      dup2\n      mstore\n      0x20\n      add\n      swap2\n      pop\n      pop\n      mload(0x40)\n      dup1\n      swap2\n      sub\n      swap1\n      return\n        /* \"contracs.sol\":201:286  function set(int _valuee) public{... */\n    tag_3:\n      callvalue\n        /* \"--CODEGEN--\":8:17   */\n      dup1\n        /* \"--CODEGEN--\":5:7   */\n      iszero\n      tag_7\n      jumpi\n        /* \"--CODEGEN--\":30:31   */\n      0x0\n        /* \"--CODEGEN--\":27:28   */\n      dup1\n        /* \"--CODEGEN--\":20:32   */\n      revert\n        /* \"--CODEGEN--\":5:7   */\n    tag_7:\n        /* \"contracs.sol\":201:286  function set(int _valuee) public{... */\n      pop\n      tag_8\n      0x4\n      dup1\n      calldatasize\n      sub\n      dup2\n      add\n      swap1\n      dup1\n      dup1\n      calldataload\n      swap1\n      0x20\n      add\n      swap1\n      swap3\n      swap2\n      swap1\n      pop\n      pop\n      pop\n      jump(tag_9)\n    tag_8:\n      stop\n        /* \"contracs.sol\":125:195  function get() public view returns(int){... */\n    tag_6:\n        /* \"contracs.sol\":160:163  int */\n      0x0\n        /* \"contracs.sol\":181:187  valuee */\n      dup1\n      sload\n        /* \"contracs.sol\":174:187  return valuee */\n      swap1\n      pop\n        /* \"contracs.sol\":125:195  function get() public view returns(int){... */\n      swap1\n      jump\t// out\n        /* \"contracs.sol\":201:286  function set(int _valuee) public{... */\n    tag_9:\n        /* \"contracs.sol\":252:259  _valuee */\n      dup1\n        /* \"contracs.sol\":243:249  valuee */\n      0x0\n        /* \"contracs.sol\":243:259  valuee = _valuee */\n      dup2\n      swap1\n      sstore\n      pop\n        /* \"contracs.sol\":201:286  function set(int _valuee) public{... */\n      pop\n      jump\t// out\n\n    auxdata: 0xa165627a7a72305820d1ad5c2e4a1d9b6b8bfbe792b1e57e1ca8871ea82eebd810cb77306c850989c90029\n}\n",
				"bytecode": {
					"linkReferences": {},
					"object": "608060405234801561001057600080fd5b506000808190555060df806100266000396000f3006080604052600436106049576000357c0100000000000000000000000000000000000000000000000000000000900463ffffffff1680636d4ce63c14604e578063e5c19b2d146076575b600080fd5b348015605957600080fd5b50606060a0565b6040518082815260200191505060405180910390f35b348015608157600080fd5b50609e6004803603810190808035906020019092919050505060a9565b005b60008054905090565b80600081905550505600a165627a7a72305820d1ad5c2e4a1d9b6b8bfbe792b1e57e1ca8871ea82eebd810cb77306c850989c90029",
					"opcodes": "PUSH1 0x80 PUSH1 0x40 MSTORE CALLVALUE DUP1 ISZERO PUSH2 0x10 JUMPI PUSH1 0x0 DUP1 REVERT JUMPDEST POP PUSH1 0x0 DUP1 DUP2 SWAP1 SSTORE POP PUSH1 0xDF DUP1 PUSH2 0x26 PUSH1 0x0 CODECOPY PUSH1 0x0 RETURN STOP PUSH1 0x80 PUSH1 0x40 MSTORE PUSH1 0x4 CALLDATASIZE LT PUSH1 0x49 JUMPI PUSH1 0x0 CALLDATALOAD PUSH29 0x100000000000000000000000000000000000000000000000000000000 SWAP1 DIV PUSH4 0xFFFFFFFF AND DUP1 PUSH4 0x6D4CE63C EQ PUSH1 0x4E JUMPI DUP1 PUSH4 0xE5C19B2D EQ PUSH1 0x76 JUMPI JUMPDEST PUSH1 0x0 DUP1 REVERT JUMPDEST CALLVALUE DUP1 ISZERO PUSH1 0x59 JUMPI PUSH1 0x0 DUP1 REVERT JUMPDEST POP PUSH1 0x60 PUSH1 0xA0 JUMP JUMPDEST PUSH1 0x40 MLOAD DUP1 DUP3 DUP2 MSTORE PUSH1 0x20 ADD SWAP2 POP POP PUSH1 0x40 MLOAD DUP1 SWAP2 SUB SWAP1 RETURN JUMPDEST CALLVALUE DUP1 ISZERO PUSH1 0x81 JUMPI PUSH1 0x0 DUP1 REVERT JUMPDEST POP PUSH1 0x9E PUSH1 0x4 DUP1 CALLDATASIZE SUB DUP2 ADD SWAP1 DUP1 DUP1 CALLDATALOAD SWAP1 PUSH1 0x20 ADD SWAP1 SWAP3 SWAP2 SWAP1 POP POP POP PUSH1 0xA9 JUMP JUMPDEST STOP JUMPDEST PUSH1 0x0 DUP1 SLOAD SWAP1 POP SWAP1 JUMP JUMPDEST DUP1 PUSH1 0x0 DUP2 SWAP1 SSTORE POP POP JUMP STOP LOG1 PUSH6 0x627A7A723058 KECCAK256 0xd1 0xad 0x5c 0x2e 0x4a SAR SWAP12 PUSH12 0x8BFBE792B1E57E1CA8871EA8 0x2e 0xeb 0xd8 LT 0xcb PUSH24 0x306C850989C9002900000000000000000000000000000000 "
				},
				"gasEstimates": {
					"creation": {
						"codeDepositCost": "44600",
						"executionCost": "5107",
						"totalCost": "49707"
					},
					"external": {
						"get()": "402",
						"set(int256)": "20227"
					}
				},
				"methodIdentifiers": {
					"get()": "6d4ce63c",
					"set(int256)": "e5c19b2d"
				}
			},
			"userdoc": {
				"methods": {}
			}
		}
	}
}